:100000000000042019680000CD5E000015680000A3
:100010001768000017680000176800000000000063
:100020000000000000000000000000001768000051
:10003000176800000000000017680000AD300000E5
:1000400017680000694A0000734A00007D4A0000FA
:1000500017680000176800001768000017680000A4
:100060001768000017680000176800001768000094
:10007000176800001768000017680000DD440000E2
:10008000E7440000F1440000FB4400000545000087
:100090000F45000019450000234500002D450000D4
:1000A0003745000017680000176800001768000057
:1000B0001768000017680000176800001768000044
:1000C0001768000017680000176800001768000034
:1000D000D9500000E1500000E9500000F15000004C
:1000E000F95000000151000009510000176800009C
:1000F0001768000017680000176800001768000004
:1001000017680000176800001768000017680000F3
:1001100017680000176800001768000017680000E3
:1001200017680000176800001768000017680000D3
:10013000DD5D0000E75D0000F15D0000B53E000000
:10014000BF3E0000C93E0000D33E0000DD3E00007F
:10015000E73E0000176800001768000017680000FD
:1001600017680000176800005D6400006764000005
:10017000716400001768000017680000176800002D
:100180001768000017680000176800001768000073
:100190001768000017680000176800001768000063
:1001A0001768000017680000176800001768000053
:1001B0001768000017680000176800001768000043
:1001C0001768000017680000176800001768000033
:1001D000FB5D00001768000017680000176800004A
:1001E0001768000017680000176800001768000013
:1001F000F13E0000FB3E0000053F00000F3F000005
:10020000193F0000233F00002D3F00001768000049
:1002100017680000176800001768000017680000E2
:1002200017680000176800001768000017680000D2
:10023000176800000000000000000000000000003F
:1002400000000000000000000000000000000000AE
:10025000000000000000000000000000000000009E
:10026000000000000000000000000000000000008E
:10027000000000000000000000000000000000007E
:10028000000000000000000000000000000000006E
:10029000000000000000000000000000000000005E
:1002A000000000000000000000000000000000004E
:1002B000000000000000000000000000000000003E
:1002C000000000000000000000000000000000002E
:1002D000000000000000000000000000000000001E
:1002E000000000000000000000000000000000000E
:1002F00000000000000000000000000000000000FE
:1003000000000000000000000000000000000000ED
:1003100000000000000000000000000000000000DD
:1003200000000000000000000000000000000000CD
:1003300000000000000000000000000000000000BD
:1003400000000000000000000000000000000000AD
:10035000000000000000000000000000000000009D
:10036000000000000000000000000000000000008D
:10037000000000000000000000000000000000007D
:10038000000000000000000000000000000000006D
:10039000000000000000000000000000000000005D
:1003A000000000000000000000000000000000004D
:1003B000000000000000000000000000000000003D
:1003C0000348044B834202D0034B03B118477047E4
:1003D0005801002058010020000000000548064B8D
:1003E0001B1AD90F01EBA301491002D0034B03B133
:1003F00018477047580100205801002000000000F5
:1004000010B5064C237843B9FFF7DAFF044B13B15C
:100410000448AFF300800123237010BD5801002071
:10042000000000008096000008B5054B1BB105498F
:100430000548AFF30080BDE80840FFF7CFBF00BF1D
:10044000000000005C01002080960000A3F5803AC7
:10045000704700BF174B002B08BF134B9D46FFF79B
:10046000F5FF00218B460F461348144A121A06F076
:1004700007FE0E4B002B00D098470D4B002B00D0F1
:1004800098470020002104000D000D48002802D0EC
:100490000C48AFF3008006F057FE2000290002F060
:1004A000A7FD06F093FB00BF00000800000000005D
:1004B0000000000000000420580100203C3600200D
:1004C000000000000000000008B5064802F0E2FB52
:1004D00002E00A2002F024FE00F02AFB0028F8D0F7
:1004E00008BD00BF2481000010B500F00DF910B95F
:1004F0000024204610BD194802F0CCFB01F0AEFBF1
:10050000D0B101F055FBE8B1154802F0C3FB154826
:1005100002F0C0FB144800F0AFF9FFF7D5FF00F080
:1005200009F90446A0B9114802F0B4FB104800F0E4
:10053000A3F901F011FBDCE70E4802F0ABFB4FF032
:10054000FF34D6E70C4802F0A5FB4FF0FF34D0E7AC
:100550000A4802F09FFB4FF0FF34CAE764810000B5
:10056000D8810000F48100000C820000308200007D
:100570004C82000098810000B881000014820000C5
:1005800090F900302D2B01D00020704701207047DA
:100590000246002000E00130884202D21356002BB0
:1005A000F9D1704790F90030B3F1FF3F01D001203D
:1005B00070470020704700002DE9F0472C4B1C7855
:1005C00024B353E02B4EA50004EB840306EB830316
:1005D000DA680021986806F053FD254406EB85068D
:1005E0000023336110E0234E4FEA840804EB8403B8
:1005F00006EB83033A460021986806F041FDA044CB
:1006000006EB8806002333610134E4B2022C2AD8B9
:1006100004EB8402174B03EB82035E683046FFF75E
:10062000AFFF0028CED004EB8402124B03EB820311
:10063000DF68791E3046FFF7ABFF81460028D2D035
:100640000C4F04EB840807EB880802463146D8F8C3
:10065000080006F0A0FDD8F80830002203F80920B1
:10066000C8F81090D0E7024B01221A70BDE8F0875D
:10067000740100208C00002008B5FFF79DFF044B9B
:100680001B6913B1024B986808BD0248FCE700BF24
:100690008C000020008A000008B5FFF78DFF044B96
:1006A0005B6A13B1024BD86908BD0248FCE700BF82
:1006B0008C000020008A000008B5FFF77DFF044B86
:1006C0009B6B13B1024B186B08BD0248FCE700BFDF
:1006D0008C000020008A000008B5FFF76DFF014B79
:1006E000186908BD8C00002008B5FFF765FF014BB5
:1006F000586A08BD8C00002008B5FFF75DFF014B6C
:10070000986B08BD8C00002008B5FFF755FF084B1B
:100710001B693BB1064B5B6A33B1054B9B6B2BB935
:10072000002000E0002008BD0020FCE70120FAE7DF
:100730008C0000202DE9F0411A4C1B4F002512E0DF
:100740001A4E4FEA850805EB850306EB8303DA684A
:100750000021986806F094FCA84406EB8806002364
:1007600033610135EDB2022DEAD93A4621461048EF
:1007700002F09AFA01E004F50074BC420BD2204664
:100780000C4B98470028F6D021460B4802F08CFA13
:100790004FF0FF3003E0094802F07CFA0020BDE88A
:1007A000F08100BF0098000000A800008C0000202D
:1007B000548200000100002080820000A48200001A
:1007C000F0B593B000242DE002F148036B4403F828
:1007D000401C0132B24206D23E2A04D8A9560D2945
:1007E00001D00A29F0D102F148036B44002103F83B
:1007F000401C2AB93F238DF8083000238DF80930BA
:1008000007EB870795F90030DBB202AA019200934B
:1008100033462A46164951F82710164802F044FA82
:100820000134E4B2022C20D8274604EB8402104B9A
:1008300003EB82035D682846FFF7B4FE0028EFD083
:1008400004EB84020A4B03EB8203D9680139284682
:10085000FFF79EFE06462846FFF792FE18B90023D2
:100860008DF80830C6E70022B4E713B0F0BD00BF32
:100870008C000020D88200002DE9F04794B0074694
:10088000002446E0334B03EB8203986890F900E0C4
:100890005FFA8EFE002306E003F150060DEB060C16
:1008A0000CF8402C01338B4240D23E2B3ED8C2562E
:1008B0000D2A3BD00A2AEFD138E0DFF898904FEAB2
:1008C000850A05EB850209EB820604AB0293CDF89D
:1008D00004E00091B36859F8222039461E4802F01E
:1008E000E3F9766896F900805FFA88F8AA4459F827
:1008F0002A503046FFF744FE30B3184B0193CDF831
:10090000008033462A463946154802F0CDF90134B5
:10091000E4B2022C1AD8254604EB84020D4B03EBFB
:10092000820319690029ADD18E460B4603F15002AE
:100930006A44002002F8400C002BBED12D238DF814
:1009400010308DF81100B8E7064BD7E714B0BDE8BA
:10095000F08700BF8C0000201C8300000C83000087
:10096000508300001483000000B583B001238DF88C
:1009700007300DF107020921022004F0A9FA20B97D
:100980009DF807302BB9012000E0002003B05DF88E
:1009900004FB0020FAE7000038B50546002408E013
:1009A0000B4B03EB4402517813F8140002F0C7FB21
:1009B0000134092C0AD8002DF2D0054B03EB440278
:1009C000517813F8140002F0B5FBF1E738BD00BF11
:1009D0000096000008B5FFF7C7FF044B1B78834261
:1009E00003D0024B1870FFF7D7FF08BDC8000020E6
:1009F00038B5FFF7B9FF044600F0ECFC0546FFF7F9
:100A0000E9FF9CB90E4B1B787BB10E4B1B784BB9A1
:100A10000D4B1868281A40F6B733984202D80B4B92
:100A200001221A70064B00221A7038BD044B0122B5
:100A30001A70044B00221A70034B1D60F5E700BFCB
:100A40007F1300207E130020781300207D130020E8
:100A500010F4402F00D1704708B5FFF7C9FF08BD5B
:100A600008B50B4B1B7813B10A4B1B7803B108BDBB
:100A700000F0B0FC084B1B68C01A40F6B733984230
:100A8000F5D90123034A1370044A1370EFE700BF3E
:100A90007F1300207E130020781300207C13002099
:100AA00030B589B002258DF808500A238DF8093039
:100AB00002A9284604F08CFA01220921284604F0F4
:100AC00055FA0024009403231A460921284604F00D
:100AD00036FA8DF80C5001238DF80D300D4B049330
:100AE0000594032306938DF81C4003A804F080FAB4
:100AF000094BFF221A70094B1C70094B1C70094BE3
:100B00001C70094B1C70094B1C60FFF763FF09B098
:100B100030BD00BF490B0000C80000207F1300203B
:100B20007E1300207D1300207C130020781300200A
:100B3000044B1B7803F0FF001BB1024B00221A701C
:100B4000012070477C13002008B5FFF781FF08BD26
:100B50002DE9F0410C46002940D000229046154670
:100B600010E030F81230A3F50043DE1703FB06F661
:100B7000A3FB033101EB460113EB0803984641EB5D
:100B800005050132A242ECD3224600234046294605
:100B900005F0A4FE0A4606460F46A04575F100057D
:100BA0001FD3451C41F100086D0845EAC8754FEA9E
:100BB0005808854278EB020211D22A464346304655
:100BC000394605F08BFE281848EB010143082846FA
:100BD000424643EAC1754FEA5108EAE70846BDE8D4
:100BE000F0810020FBE708B5012204F088F908BD78
:100BF00008B5002204F083F908BD0000014B012272
:100C00001A7070478313002030B587B001AC1C4DBB
:100C10000FCD0FC42B6823601A4802F03BF81A4826
:100C200002F038F8194802F035F800240CE006AB61
:100C300003EB440313F8131C13F8140CFFF7D3FF52
:100C4000C82002F06DFA0134092CF0D94FF4FA7083
:100C500002F066FA00240CE006AB03EB440313F841
:100C6000131C13F8140CFFF7C3FF642002F058FAAA
:100C70000134092CF0D9064802F00CF807B030BD59
:100C800014960000B0830000DC830000F8830000AD
:100C90002484000030B585B0394801F0FBFF3948A5
:100CA00001F0F8FF384801F0F5FF384801F0F2FF95
:100CB00000F062FA002845D10446354801F0EAFF09
:100CC0000125344801F0E6FF02F016F800283FD174
:100CD000314801F0DFFF0135EDB2304801F0DAFFB5
:100CE00001F03AFD002839D12D4801F0D3FF01353C
:100CF000EDB22C4801F0CEFF4FF47A53009350230D
:100D00000193294B02934FF480630393684600F0EC
:100D10007BFB48BB254801F0BDFF0135EDB22448FF
:100D200001F0B8FF2B1922462946224801F0BCFFEA
:100D300004BB214801F0AEFF134801F0ABFF204691
:100D400005B030BD1D4801F0A5FF01240025B8E71E
:100D50001B4801F09FFF0134E4B2BEE7194801F0DF
:100D600099FF0134E4B2C4E7174801F093FF01345E
:100D7000E4B2D4E72146154801F096FFDCE700BF56
:100D8000B083000040840000F88300006484000009
:100D90008C840000B8840000D48400000485000026
:100DA0002885000058850000841300207885000005
:100DB000A8850000D4850000F88500009C84000010
:100DC000E88400003C8500008C850000148600004B
:100DD00010B582B024220021254806F051F900F018
:100DE000DFF940B9224B01221A72224A12681A60B6
:100DF000214A12685A600023ADF80230019301A91C
:100E00000DF1020001F0DAFF20B9194B01221A742A
:100E1000019ADA6001F04AFD58B9154B01221A76A1
:100E2000164A12885A82164A12889A82154A1288DD
:100E3000DA8200F037FB10B10D4802B010BD4FF45C
:100E40007A7002F06DF900F049FB00F05BFB01469F
:100E50000028F1D0064C012384F82030B0F5806FD3
:100E600028BF4FF480610848FFF772FEE061E3E7B6
:100E7000841B0020B01B0020AC1B00201A2D00207A
:100E8000182D0020162D0020841300202DE9F04796
:100E90008AB0844608461546DCF80040294A82FBA1
:100EA0000432E317C3EBA213002C3EDB4FF47A713C
:100EB00001FB1342DCF80440224E86FB0471E71765
:100EC000C7EBA1174FF47A7808FB174EDCF80C102B
:100ED000A6FB0146B60908FB1611BCF91240BCF985
:100EE0001490BCF916A0DCF81CC0CDF820C0CDF8D9
:100EF0001CA0CDF818900594049103961249A1FB0B
:100F00000E64E40802940197A1FB0214E408009423
:100F10000E4A294605F0F4FF002801DB854200DC7B
:100F2000681E80B20AB0BDE8F0876442054981FBC3
:100F30000421E217C2EBA1124FF47A7101FB1242B5
:100F4000B8E700BFD34D6210CDCCCCCC34860000C6
:100F500000286ED0034600296DD0002A6DD010B451
:100F6000007A68B11C6847F23050844235DD34485D
:100F7000007800283BD10120314C207000240C70F7
:100F80001C7EACB1B3F91640B4F52F7F31DC2D4C8B
:100F900024786CB92B4C4FF0010C84F800C09042BF
:100FA00006D200EB0C044FF0020C01F800C0E0B2D6
:100FB00093F820407CB1DB69B3F5FA6F2BD9224B53
:100FC0001B7843B9204B01241C70904203D20319B3
:100FD00004220A54D8B210BC70471948007800287F
:100FE000CED017480024047001200870C8E7002004
:100FF000C6E7144C2478002CDAD0124C4FF0000CC9
:1010000084F800C09042D3D2441C4FF0030C01F886
:1010100000C0E0B2CCE70C4B1B78002BDBD00A4BB6
:1010200000241C709042D6D2431C05220A54D8B228
:10103000D1E700207047002070471046704700BF7E
:10104000821300208113002080130020002975D016
:1010500010B582B0844610461C46002A70D0002C81
:1010600070D0BCF1050F70D8DFE80CF0032B4E55A3
:101070005C620A68384981FB0231D317C3EBA113C4
:10108000002A12DB4FF47A7C0CFB13223349A1FBBC
:101090000212D2080092324A214605F031FF0028A0
:1010A00055DB844255DD80B24DE052422A4981FB36
:1010B000021CD117C1EBAC114FF47A7C0CFB11224E
:1010C000E4E70A68244981FB0231D317C3EBA1137B
:1010D000002A0DDB4FF47A7C0CFB13221F49A1FB85
:1010E0000212D20800921F4A214605F009FFD6E7F6
:1010F0005242194981FB021CD117C1EBAC114FF4CC
:101100007A7C0CFB1122E9E7B1F91630164A214628
:1011100005F0F6FEC3E7B1F91630144A214605F092
:10112000EFFEBCE7CB69124A214605F0E9FEB6E7BF
:10113000CB69104A214605F0E3FEB0E70020704776
:10114000002000E0204602B010BD0020FBE7002098
:10115000F9E70020F7E700BFD34D6210CDCCCCCC2F
:1011600090860000F886000060870000C0870000BD
:10117000188800007888000008B5074800F000F9DA
:1011800043B223B9054B01221A70C0B208BD034B0C
:1011900000221A70F9E700BFB41B0020A81B002032
:1011A00008B5054B1B780BB9012008BD034904485D
:1011B00000F0CEF8C0B2F8E7A81B0020AC1B00205E
:1011C000B01B00200278407840EA02207047027885
:1011D00043781B0443EA0263827843EA0223C0781F
:1011E0001843704700B58646FF204FF0000C10E012
:1011F0004000C0B2013BDBB23BB142B2002AF7DA99
:10120000520082F03102D0B2F4E70CF1010C1FFA67
:101210008CFC8C4504D21EF80C3058400823EBE7B8
:101220005DF804FB10B51446FFF7DCFFA04201D1C6
:10123000002010BD0120FCE708B500F03DF808BD16
:101240002DE9F041570807EB470712F001041CD1C4
:101250000D46BFB23A4600F01FF88046B8B92646A0
:10126000BC4214D2A31CEA5C02212819FFF7DAFF62
:1012700080B9731C9BB22A5DAA550236B6B22A19F0
:101280005278EA540334A4B2EAE74FF00408404627
:10129000BDE8F0818046FAE700B583B0134601222D
:1012A00000920A460146022004F054FB003818BFA1
:1012B000012003B05DF804FB00B583B013460122A2
:1012C00000920A460146022004F070FA003818BF66
:1012D000012003B05DF804FB08B501F021FF08BD53
:1012E00045F2735303FB00F04013A0F52F40C838BC
:1012F000704743F6095303FB00F04013A0F5BB50C1
:101300001038704770B582B005460C46FD238DF845
:101310000030012269464420FFF78EFF064610B1D7
:10132000304602B070BD6420FFF7D6FF0422694644
:101330004420FFF785FF06460028F1D16846FFF7F5
:1013400041FF28800DF10200FFF73CFF2080E7E716
:1013500070B582B005460C4601A90DF10600FFF7F5
:10136000D1FF064648B9BDF80600FFF7B9FF28606F
:10137000BDF80400FFF7BDFF2060304602B070BD2D
:1013800030B583B0044689238DF8003001226946C8
:101390004420FFF751FF054610B1284603B030BD89
:1013A0004FF47A70FFF798FF042269464420FFF754
:1013B00047FF05460028F0D16846FFF708FF206088
:1013C000EBE70000024A136801331360704700BF67
:1013D000BC1B0020014B1868704700BFBC1B0020DD
:1013E00008B501220021084603F022FD30B907228A
:1013F0000021084603F0CCFC18B908BD4FF0FF30BF
:10140000FBE74FF0FF30F8E7002833D038B504464B
:101410000368002B31D04268642A31D88268002AE0
:1014200031D0C268002A31D01D4A12788ABB013BF4
:101430004BF67F3293422FD8194D2C22002128469B
:1014400005F01EFE23686B606368AB60A368EB6009
:10145000E3682B61FFF7C4FF38B9114B00225A61D2
:101460009A61DA6101221A7038BD04222A704FF0A5
:10147000FF30F9E76FF0010070476FF00100F3E70C
:101480006FF00100F0E76FF00100EDE76FF0010091
:10149000EAE76FF00300E7E76FF00100E4E700BF61
:1014A000C41B00200B4B1B78012B01D0032B0ED14A
:1014B000012B04D0074B02221A7000207047054B05
:1014C00000221A625A62044B01221A70F2E74FF0AE
:1014D000FF307047C41B0020C01B002008B5084B1C
:1014E0001B78023BDBB2012B07D8002004F03AFF47
:1014F000034B01221A70002008BD4FF0FF30FBE7BC
:10150000C41B0020014B586A704700BFC41B002059
:1015100010B4A0F2A960154B9B6800FB03F3144ABA
:1015200082FB0302DB17C3EB62130B60DB000B6073
:101530004A681A448868121AC2EB4212D200144652
:10154000002A0DDB24124C608B600A4B9A420ADBA6
:1015500047F6F870A042A8BF204600B210BC704702
:1015600002F1FF04EEE70448F7E700BFC41B0020C8
:101570001F85EB51010780FF0880FFFF10B50F4C5E
:101580002146FFF7C5FF54F8083CE268A0F500408B
:1015900023F81200E3680133E36054F8041C8B4223
:1015A00004D2074A536A0133536210BDA4F11403F5
:1015B00000221A62D868FFF721FBF2E7D81B00204F
:1015C000C41B00200E4B1B78022B00D0704710B5B7
:1015D00082B0002004F092FE80B964242346013CCE
:1015E00063B100208DF800006A46014604F0EAFE6F
:1015F0000028F3D1BDF80200FFF7C0FF02B010BD14
:10160000C41B002010B5002412E000F05FFC01288C
:1016100014D00F4B1B780C2B04D0F6D3103BDBB24D
:10162000012BF2D80A4B1B780C2B0ED00134E4B2FC
:10163000022C08D8064B00221A70EAE7044B1B78EC
:101640000F2BE6D0EEE7012010BD0020FCE700BF25
:10165000082D002008B500F061FA4FF4FA6001F09F
:101660005FFD034B00221A70FFF7CCFF08BD00BFDF
:10167000082D002010B5074C4FF480722146FFF76B
:1016800005FC2146044800F049FB003818BF012042
:1016900010BD00BFF01B0020D888000040B108B585
:1016A0000146044800F03AFB003818BF012008BD8D
:1016B00001207047FC88000008B5044B1B680BB183
:1016C000984708BD024B1868FBE700BF102D0020AB
:1016D0000C2D002010B5044605F06BFD02460123D9
:1016E0002146002002F0E2FA10BD2DE9F84305463C
:1016F000F3B1884616461F468B421BD8002400E0F3
:101700000134A8EB0703A3420DD305EB0409285DC0
:1017100033789842F4D13A463146484605F0A0FC69
:101720000028EDD101E04FF000094846BDE8F883FC
:101730008146FAE74FF00009F7E70000024A136814
:1017400001331360704700BF0C2D002010B5194BFA
:1017500018600024184B1C70184B1C804FF48052EA
:101760002146174805F08CFC02220721204603F091
:101770005FFB22460721204603F00AFB2246072191
:10178000204603F0BCFB02220421104603F050FB6C
:1017900022460421022003F0FBFA22460421022003
:1017A00003F0ADFB234601220649104602F0E0FAA1
:1017B00010BD00BF102D0020082D0020041D0020AA
:1017C000081D0020F01C002010B5044605F0F1FCB7
:1017D000024601232146184602F068FA10BD0000B7
:1017E000F8B506460D46FFF767FF0446304605F09C
:1017F000E0FC0746FFF760FFA0EB040CAC450FD2FE
:10180000084B1A8892B2002AF4D019883B46324617
:1018100089B20548FFF769FF0028EBD0012000E0FE
:101820000020F8BD041D0020081D002008B501207F
:1018300002F024FB4FF480520021064805F020FC02
:101840000023054A138001220449104602F090FA51
:1018500008BD00BF081D0020041D0020F01C002052
:1018600030B591B004460346114A4021684605F060
:1018700047FBFFF7DBFF6846FFF7A6FF41F2883121
:101880000C48FFF7ADFF28B1FFF7D0FF0125284630
:1018900011B030BD05460848FFF71CFF2046FFF792
:1018A00019FF0648FFF716FFFFF7C0FFEFE700BF7D
:1018B0001C8900002C89000034890000588E00002B
:1018C00070B59AB005460E4600920346344A602130
:1018D00002A805F015FBFFF7A9FF02A8FFF774FFA8
:1018E000FFF7EAFE0446FFF7E7FE001B41F28732EE
:1018F000904218D82B4B1A8892B2002AF3D019883C
:101900000723294A89B22948FFF7EFFEF8B9254B8A
:1019100019880F23264A89B22448FFF7E6FE0028DB
:10192000E1D0022300E00023022B12D0012B17D0BC
:101930002048FFF7CFFE2846FFF7CCFE1E48FFF7F2
:10194000C9FEFFF773FF002420461AB070BD0123C3
:10195000EAE7FFF76BFF2846FFF782FF0446F3E74D
:10196000FFF764FF3046FFF72FFF43F69821134837
:10197000FFF736FF044630B1FFF758FF2846FFF760
:101980006FFF0446E0E70E48FFF7A4FE2846FFF786
:10199000A1FE0948FFF79EFEFFF748FFD4E700BF0E
:1019A00054890000041D00206C890000081D0020DF
:1019B0007489000084890000588E0000B0890000FE
:1019C000B889000010B598B001230D4A602168461F
:1019D00005F096FAFFF72AFF6846FFF7F5FE41F299
:1019E00088310848FFF7FCFE28B1FFF71FFF0124EC
:1019F000204618B010BD0446FFF718FFF8E700BFF7
:101A0000DC8900008885000010B50446FFF70EFF52
:101A10002046FFF7D9FE41F288310848FFF7E0FE83
:101A200020B1FFF703FF0124204610BD04460448FF
:101A3000FFF750FEFFF7FAFEF6E700BF88850000CB
:101A4000048A000010B50446FFF7F0FE2046FFF7B9
:101A5000BBFE41F288310848FFF7C2FE20B1FFF714
:101A6000E5FE0124204610BD04460448FFF732FE7F
:101A7000FFF7DCFEF6E700BF88850000208A000043
:101A800010B504460548FFF725FE2046FFF722FE65
:101A90000348FFF71FFEFFF7C9FE10BD3C8A000098
:101AA000148A000010B5FFF7C1FE0B48FFF78CFE4B
:101AB0000A4C41F288312046FFF792FEFFF7B6FE4E
:101AC0000748FFF781FE41F288312046FFF788FE84
:101AD000FFF7ACFE10BD00BF488A000088850000FB
:101AE000588A000008B501220421022003F007FAF9
:101AF0004FF4FA7001F014FBFFF798FE0122072162
:101B0000002003F0FCF940F2DC5001F009FB002258
:101B10000721104603F0F3F908BD000008B5FFF7F0
:101B200085FE0B48FFF750FE42F210710948FFF79F
:101B300057FE4FF47A7001F0F3FA002204210220DC
:101B400003F0DDF900220721104603F0D8F908BDA3
:101B5000688A00008885000008B5FFF767FE064820
:101B6000FFF732FE41F288310448FFF739FE40F6B4
:101B7000B83001F0D5FA08BD748A000088850000ED
:101B800008B50848FFF76CFE00B908BD0648FFF726
:101B900067FE0028F9D00548FFF762FE0028F4D060
:101BA0000120F2E7808A00008C8A0000988A0000F9
:101BB00010B5FFF73BFE2248FFF706FE214C40F62A
:101BC000B8312046FFF70CFEFFF730FE1E48FFF746
:101BD000FBFD40F6B8312046FFF702FEFFF726FE78
:101BE0001A48FFF7F1FD40F6B8312046FFF7F8FD3F
:101BF000FFF71CFEFEF740FD0446FEF76DFD0246B2
:101C000021461348FFF75CFE00B910BDFEF744FD06
:101C10000446FEF769FD024621460E48FFF750FED6
:101C20000028F2D0FEF748FD0446FEF765FD0246A7
:101C300021460948FFF744FE0028E6D00120E4E7EA
:101C4000A88A000088850000C08A0000D88A0000A9
:101C5000808A00008C8A0000988A000010B5FFF787
:101C600041FFFFF729FD0446FFF726FD001B43F661
:101C70009723984219D8224B1B889BB2002BF3D094
:101C80001F4B198803231F4A89B21F48FFF72DFDF8
:101C900000BB1B4B198808231C4A89B21A48FFF75E
:101CA00024FD0028E0D0002400E00024092C13D8F3
:101CB000FFF7BCFD1648FFF787FD40F6B831154821
:101CC000FFF78EFD60B94FF4FA7001F029FA013484
:101CD000E4B2EBE70024E9E700241CB9204610BD7C
:101CE0000124FAE7FFF7A2FD0B48FFF76DFD4FF463
:101CF000FA610848FFF774FDFFF798FDEEE700BFB3
:101D0000041D0020F48A0000081D0020F88A00004D
:101D1000048B0000888500000C8B000000287AD01E
:101D200070B5ADF5647D0C460646002975D00846B1
:101D300005F03FFA0546431EB3F50C7F03D301209F
:101D40000DF5647D70BD019000960023344A4FF478
:101D5000617103A805F0D4F8FFF768FD03A8FFF749
:101D600033FD42F210712F48FFF73AFD78B3FFF7C9
:101D70005DFD322001F0D4F901232A4621461846A0
:101D800001F094FFFFF798FC0446FFF795FC001B59
:101D900047F22F53984221D8234B1B889BB2002B2C
:101DA000F3D0214B19880A23204A89B22048FFF733
:101DB0009CFC98B91C4B198805231E4A89B21C4803
:101DC000FFF793FC50B9322001F0AAF9DDE71A4879
:101DD000FFF780FCFFF72AFD0120B1E7124B1988BD
:101DE0001023164A89B21248FFF77FFC40B90E4B08
:101DF00019881023124A89B20D48FFF776FC18B1F2
:101E0000FFF714FD00209BE70E48FFF763FCFFF788
:101E10000DFD012094E701207047012090E700BFED
:101E2000148B0000348B0000041D00205C8B00002C
:101E3000081D0020688B0000388B0000708B0000AC
:101E4000848B0000988B000038B5FFF7EFFC1B482F
:101E5000FFF7BAFC40F6B8311948FFF7C1FCC0B132
:101E6000184C00E0013494F900302BB1303BDBB268
:101E7000092BF7D8224600E0224692F90030303B89
:101E8000DBB2092B01D80132F7E7121BD2B20F2ABD
:101E900003D0FFF7CBFC012038BD0B4D2B4620684B
:101EA0006168A26807C3A189A27B19809A70002487
:101EB000EC73FFF7BBFC2046EEE700BFB48B0000DD
:101EC00088850000081D0020F41C002070B5C4B0F7
:101ED000AA4B1C78112C00F2E583DFE814F0160001
:101EE0001A0041006B008900BA000B013501D401D2
:101EF00024038F03B1031200C003C703CE031200F3
:101F0000DE030024204644B070BD9C4B01221A70B1
:101F1000F8E7FFF78BFC9A48FFF756FC40F2DC51DC
:101F20009848FFF75DFC044698B90022042102207E
:101F300002F0E5FF00220721104602F0E0FF4FF417
:101F4000FA6001F0EDF8FFF7CDFD8C4B02221A701C
:101F5000D8E7FFF7A7FD894B04221A700024D1E7C8
:101F600042F6E0618848FFF73BFC30B1FFF75EFCCA
:101F7000824B03221A700024C4E740F6B83183482C
:101F8000FFF72EFCF2E74FF4FA6001F0C9F80135D3
:101F9000EDB2092D11D884B9FFF748FC7848FFF756
:101FA00013FC40F6B8317748FFF71AFC0028EAD056
:101FB0000124ECE700252C46EBE744B97448FFF711
:101FC00089FBFFF733FC6D4B0F221A709AE7FFF77E
:101FD0002DFC7048FFF7F8FB4FF4FA616948FFF7F2
:101FE000FFFBFFF723FC654B04221A70002489E7EE
:101FF0000024042C16D8FFF719FC6748FFF7E4FB10
:10200000664D41F288312846FFF7EAFB29466448CD
:1020100005F03EF888B94FF4FA6001F081F8013418
:10202000E4B2E6E7002454B95E48FFF753FBFFF73C
:10203000FDFB524B0F221A7064E70124F3E75A4864
:10204000FFF748FBFFF7F2FB4C4B05221A70002408
:1020500058E7FFF731FB0546FFF7E8FB5348FFF76A
:10206000B3FB4FF4FA614748FFF7BAFB03E04FF4C4
:10207000FA6001F055F8FFF71FFB401B4EF65F2397
:10208000984220D8FFF7D2FB4948FFF79DFB494C07
:1020900040F6B8312046FFF7A3FB642001F040F87A
:1020A00021463F4804F0F4FF04460028DFD04249AF
:1020B00004F0EEFF90B94149204604F0E9FF002802
:1020C000D5D0012400E0002454B93D48FFF702FBBD
:1020D000FFF7ACFB294B0F221A7013E70124F3E73B
:1020E0003848FFF7F7FAFFF7A1FB244B06221A70D6
:1020F000002407E700230393334B02930193334BF0
:1021000000930123324A4FF4807104A804F0F8FED2
:10211000FFF78CFB04A8FFF757FB41F28831194801
:10212000FFF75EFB30B92B48FFF7D4FAFFF77EFBD1
:102130000124E7E62848FFF7CDFAFFF777FB0F4BBE
:1021400007221A700024DDE6FFF770FB2348FFF733
:102150003BFB41F288310B48FFF742FB2049104816
:1021600004F096FF00283DD0FFF760FBFFF72AFC44
:10217000024B08221A700024C4E600BF082D00207C
:10218000048B000088850000F88A0000F48A0000B3
:10219000C08B00000C8B0000E88B0000F48B00006B
:1021A000081D0020148C0000FC8B0000408C0000F7
:1021B0004C8C0000588C0000608C0000648C000087
:1021C0008C8C0000688C0000008A0000D88C000015
:1021D000B48C0000008D0000E48C0000248D000011
:1021E000308D0000FFF722FB9D48FFF7EDFA49F61E
:1021F00040419C48FFF7F4FA4FF47A7000F090FFEA
:10220000FFF714FB9848FFF7DFFAFFF755FA04468B
:10221000FFF752FA001B954B984211D8944B1B883C
:102220009BB2002BF4D08F49924804F031FF90B953
:102230009149904804F02CFF0028E9D0002400E0E8
:102240000024FFF7F3FA44B98C48FFF743FA8C4BAC
:102250000F221A7056E60124F3E7FFF7E7FA8948E0
:10226000FFF7B2FA41F288318748FFF7B9FA874899
:10227000FFF730FAFFF7DAFAFFF7A4FB804B0822EA
:102280001A7000243EE6FEF73FFA20B1FFF790FCFB
:1022900020B9012436E6FFF773FC60B102237C4AC3
:1022A0004FF4807104A804F02BFE04A8FFF7ACFBE8
:1022B00030B9012426E67748FFF70CFA012421E61D
:1022C0000223754A4FF4807104A804F019FE04A893
:1022D000FFF79AFB08B9012414E602236F4A4FF472
:1022E000807104A804F00CFE04A8FFF78DFB08B968
:1022F000012407E602236A4A4FF4807104A804F01F
:10230000FFFD04A8FFF780FB08B90124FAE50223CA
:10231000644A4FF4807104A804F0F2FD04A8FFF7AA
:1023200073FB08B90124EDE502235F4A4FF4807185
:1023300004A804F0E5FD04A8FFF766FB08B9012432
:10234000E0E50223594A4FF4807104A804F0D8FD57
:1023500004A8FFF759FB08B90124D3E50223544A26
:102360004FF4807104A804F0CBFD04A8FFF74CFBE8
:1023700008B90124C6E502234E4A4FF4807104A82F
:1023800004F0BEFD04A8FFF73FFB08B90124B9E53E
:10239000022300930023484A4FF4807104A804F0FC
:1023A000AFFD04A8FFF74EFB08B90124AAE50023FE
:1023B000424A4FF4807104A804F0A2FD04A8FFF77C
:1023C00041FB08B901249DE500233D4A4FF480718B
:1023D00004A804F095FD04A8FFF734FB08B9012414
:1023E00090E53C2300930023364A4FF4807104A803
:1023F00004F086FD04A8FFF725FB08B9012481E558
:102400003148FFF767F91E4B09221A70002479E55D
:1024100042F2B32301932D4B009300232C4A4FF437
:10242000807104A804F06CFDFFF700FA04A8FFF720
:10243000CBF941F288310B48FFF7D2F9002849D196
:102440000135EDB2022D71D8002C6FD1002DDFD0F7
:10245000FFF728FB4FF4FA6000F062FED8E700BFF8
:102460003C8D0000888500004C8D0000EF49020083
:10247000041D0020081D0020688B0000848D0000D2
:10248000082D0020248D00005C8D0000648D00006C
:10249000DC8D0000B08D0000048E0000308E000046
:1024A0005C8E00007C8E00009C8E0000C48E0000BC
:1024B000E88E0000008F0000248F0000408F000095
:1024C0005C8F0000788F0000988F0000C88F00009C
:1024D000B08F0000FFF7F0F80646FFF7EDF8801B1D
:1024E0004EF65F2398421BD86F4B1B889BB2002B84
:1024F000F3D06D4B198809236C4A89B26C48FFF7F9
:10250000F4F818B9642000F00BFEE6E7664B198872
:102510000D23684A89B26648FFF7E7F800B1012445
:10252000FFF784F98CE700252C468BE734B9624825
:10253000FFF7D0F8614B0F221A70E3E46048FFF711
:10254000C9F85E4B0A221A700024DBE45D4B00934D
:1025500000235D4A4FF4807104A804F0D1FCFFF71A
:1025600065F904A8FFF730F9FFF7A6F80546FFF76D
:10257000A3F8401B4EF65F2398421AD84A4B1B889B
:102580009BB2002BF3D0484B198809234F4A89B2DC
:102590004748FFF7AAF8E8B9434B198809234C4A82
:1025A00089B24348FFF7A1F8B0B9642000F0B8FD44
:1025B000DDE73546F5B13C4B19880F23454A89B212
:1025C0003B48FFF792F848B12C46FFF72FF9013648
:1025D000F6B215E00125EDE73546EBE7324B1988F9
:1025E0000E233D4A89B23248FFF77FF80028ECD02D
:1025F0002C46EAE73948FFF743FAE6E70026344677
:10260000022E0CD85CB9002EA0D0FFF74BFA4FF485
:10261000FA6000F085FD294B09221A7072E444B972
:102620002F48FFF757F8FFF701F9244B0F221A70D4
:1026300068E4FFF7FBF8214B0B221A70002461E4D9
:10264000FFF702FC20B91D4B0C221A70002459E43C
:10265000244B254A92E8030083E80300F3E7FFF7E1
:1026600021FA164B0E221A7000244BE4FFF756FA9B
:10267000124B10221A70002444E41C48FFF72AF879
:10268000FFF74CFA4FF4FA7000F04AFDFFF72AFA10
:102690000A4B02221A70002434E41548FFF71AF896
:1026A00001242FE401242DE4041D0020D88F000014
:1026B000081D0020E48F000010900000082D00206D
:1026C000F48F0000449000002C900000589000000F
:1026D00064900000709000008090000090900000D6
:1026E00098900000F41C0020B8900000C0900000FA
:1026F000DC90000008B50C4B1B889BB2B3F5805FE3
:102700000BD2094A13889BB2084908780849C85473
:1027100013889BB201339BB213800023012203492B
:10272000104601F025FB08BD041D0020F01C002010
:10273000081D002078B182B008E0019B01330193AD
:10274000019BB3F5FA5FF8D3013810B10023019370
:10275000F6E702B07047704730B585B000258DF8B8
:102760000F50012000F00FFA3220FFF7E3FF2C4654
:1027700004E00A20FFF7DEFF0134E4B2042C0AD89B
:102780000DF10F0000F052F905460028F1D19DF837
:102790000F30332BEDD115BB9DF80F103C4B19704A
:1027A000332921D1002000F0A0F9002867D10520AD
:1027B000FFF7C0FF002000F0CFF9002861D100F042
:1027C000B4F900285FD1032000F078F900285CD12B
:1027D0005F238DF8073000248DF808401FE02D4856
:1027E00000F058FA012003E02B4800F05DFA0220C7
:1027F00005B030BD2146294800F056FA0A20FFF7FF
:1028000099FF0AE023469DF808209DF80710244808
:1028100000F04AFA0A20FFF78DFF0134E4B2042CDD
:1028200019D801220DF10701202000F037F9002806
:10283000E0D10220FFF77EFF012202A9202000F054
:10284000E5F80028DED19DF808209DF807309A426F
:10285000D8D1012300E0002363B11420FFF76AFF01
:10286000062202A9292000F0D1F80E4B01221A708D
:102870000020BDE70C4800F00DFA0720B8E7032060
:10288000B6E70420B4E70520B2E70620B0E700BFB2
:102890001C2D0020F4900000209100004C910000BD
:1028A00078910000142D0020BC9100002DE9F0412A
:1028B00084B000230293ADF80C308DF80730414B03
:1028C0001B78002B76D000252E462F46A846032DD8
:1028D00040D8C82401220DF10701272000F096F806
:1028E000002869D19DF8073013F0080F06D10120A8
:1028F000FFF720FF013CA4B2002CEBD19DF807109C
:1029000011F0080F21D0062202A9292000F07EF83C
:10291000002855D19DF808209DF8093043EA02238C
:1029200008FA83F89DF80A209DF80B3043EA022349
:1029300007FA83F79DF80C209DF80D3043EA022337
:1029400006FA83F60135EDB2C1E71F4800F0ACF995
:10295000062032E0C8EB481308EB83084346B8F181
:10296000000F1BDB43F34F33184A1380C7EB4713A9
:1029700007EB83073B46002F14DB43F34F33144A26
:102980001380C6EB461306EB83063346002E0DDBA1
:1029900043F34F330F4A138000200EE008F5FF5336
:1029A0001F33DFE707F5FF531F33E6E706F5FF5355
:1029B0001F33EDE7012000E0052004B0BDE8F08101
:1029C0000220FAE7142D0020DC9100001A2D0020CF
:1029D000182D0020162D002000B585B08DF80F2091
:1029E000BDF818200192009301230DF10F02D94088
:1029F0000548007803F0D4F810B905B05DF804FB81
:102A00004FF0FF30F9E700BFC900002000B583B0E8
:102A10000B46012A01D940F0800000920246332182
:102A20000120FFF7D9FF03B05DF804FB08B50146AC
:102A300001220F20FFF7EAFF08BD000010B594B097
:102A40009E46BDF8584000238DF80F30631C402B84
:102A50001BD849088DF81020002207E0501C1EF8F2
:102A600002C051326A4402F840CC82B2A242F5D38D
:102A7000012201920DF10F02009204AA064800788B
:102A800003F08EF820B914B010BD4FF0FF30FAE714
:102A90004FF0FF30F7E700BFC900002000B583B05A
:102AA0000B46012A01D940F08000009202463321F2
:102AB0000120FFF7C3FF03B05DF804FB10B582B03F
:102AC0000446012201A91F20FFF7A0FF08B102B0B0
:102AD00010BD9DF8043064F387138DF80430012293
:102AE00001A91F20FFF7DAFFF1E710B582B0044615
:102AF000012201A92020FFF789FF0090009B13B15C
:102B0000009802B010BD9DF8043043F008038DF822
:102B10000430DBB264F307138DF80430012201A9FD
:102B20002020FFF7BBFF0090EAE710B582B0044613
:102B3000012201A92320FFF769FF08B102B010BDEF
:102B40009DF8043064F305138DF80430012201A9C7
:102B50002320FFF7A3FFF1E710B582B0044601225E
:102B600001A92320FFF752FF08B102B010BD9DF864
:102B7000043064F3C7138DF80430012201A9232027
:102B8000FFF78CFFF1E710B582B00446012201A9DE
:102B90002420FFF73BFF08B102B010BD9DF80430C0
:102BA00064F3C7138DF80430012201A92420FFF734
:102BB00075FFF1E700B583B08DF80700064B1B7871
:102BC00013B903B05DF804FB01231A460DF10701A8
:102BD000002001F06BF8F4E71D2D002010B586B041
:102BE000214B1C7814B1204606B010BD03220F21E2
:102BF000022002F0CDF80028F5D103220E21022098
:102C000002F0C6F80028EED100F03AFF0028EAD121
:102C100001238DF80C3003228DF80D208DF80E3035
:102C200003A900F059FF0028DDD14FF4E1330493EC
:102C300003238DF8143004238DF815308DF8160019
:102C40008DF8170004A900F053FF0028CBD10090A5
:102C500003460246014600F09FFF0028C3D101242D
:102C6000014B1C70BFE700BF1D2D002070B110B5D7
:102C70000446074B1B7823B907E0C0B2FFF79AFF61
:102C8000013494F900000028F7D110BD704700BF4F
:102C90001D2D002008B5FFF7E9FF0248FFF7E6FF0A
:102CA00008BD00BF588E00000FB430B5ABB02E9AEF
:102CB00012B1104B1B7823B92BB0BDE8304004B0E3
:102CC00070472FAB0193A02102A804F0BBF9051EA9
:102CD000F2DD9F2D00DD9F25002408E004F1A8030C
:102CE0006B4413F9A00CC0B2FFF764FF0134A54296
:102CF000F4DCE1E71D2D002082B00023019302E007
:102D0000019B01330193019A044B9A42F8D9044B79
:102D100001221A70002002B0704700BF1FA10700F7
:102D2000262D0020244B1B78002B3CD010B586B0FC
:102D30000C46002939D002228DF8042000238DF89A
:102D400005308DF806308DF809308DF808000A231B
:102D50008DF80A3001A9104603F058FB40BB022051
:102D600003F0CCFA30BB0023009302E0009B013358
:102D70000093009A42F20F739A42F7D900218DF81E
:102D8000101004AA022003F01DFB38B9BDF8123060
:102D90002380022003F0E6FA002007E0022003F07F
:102DA000E1FA042002E001207047012006B010BDC6
:102DB0000220FBE70320F9E7262D002030B583B081
:102DC0000023ADF80630134B1B78DBB105460C46EB
:102DD000D8B1E1B10DF106011720FFF7A3FF90B9BB
:102DE000BDF806302B804BB14FF47A12B2FBF3F2F0
:102DF000226009490B80094B1A6004E0002323601C
:102E0000052000E0012003B030BD0120FBE70120D8
:102E1000F9E700BF262D0020242D0020202D0020C2
:102E200030B44FF080439A6A42F4FE429A621A6BC1
:102E300042F4FE421A63394A1523C2F8F03F512387
:102E4000C2F8F03F00231361402111639163D36303
:102E5000536147F277711160314951603149916096
:102E6000D36031490B610B634FF630608863CB63ED
:102E70004B612E480860072048602D488860CB6071
:102E800001F580714FF4007008610B638B63CB63B5
:102E90004B612848086000F5DF2000F2D4704860DC
:102EA0006FF4407088602448C86001F580710B6140
:102EB0000B638B63CB634B614FF0773008604860E6
:102EC0004FF0FF348C60CB6001F580710B610B63B8
:102ED0008B63CB634B61086048608C60CB6001F50D
:102EE00080710B610B6380258D63CB634B61134D48
:102EF0000D6048606FF440458D60CB6001F58071D6
:102F00000B610B638B63CB634B61086048608C6023
:102F1000CB60C2F8F03F30BC704700BF00000141F9
:102F200011117077FF0FFFFC00010141777700114D
:102F3000FFF00300333370778A02A80077777707B2
:102F400038B51B4B5A681B4B9A422DD0184B5A6808
:102F5000194B9A4226D0194D154B5B6803F47F0339
:102F6000B3F5501F22D0154C154803F0F1FA29464D
:102F7000144803F0EDFA2146134803F0E9FA4FF440
:102F8000164300221149124803F0E2FA114B196866
:102F9000114803F0DDFA114803F0DAFA104803F0A3
:102FA000D7FA38BD0F4DD7E70F4DD5E70F4CDBE70C
:102FB00000F00040A0443447A14434474C92000044
:102FC0006092000094920000A4920000B892000069
:102FD000C0920000D8000020E4920000049300009A
:102FE00028930000289200000492000054920000F0
:102FF00008B5FFF715FF00F011F803F0A1FAFFF78D
:103000009FFF00F081FA00F0F7FA00F057FB00F0A4
:10301000ADFA00F017F9002008BD000030B585B00A
:1030200002258DF80C5000248DF80D408DF80E40CF
:103030001D4A6B4607CA03C31A700121284601F0D6
:1030400049FC0121084601F045FC0121204601F020
:1030500041FC0121032001F03DFC03A801F0DAFB53
:103060006946012001F068FC04238DF80C308DF8CE
:103070000D408DF80E4003A801F0CCFB204601F076
:10308000DBFC22460F21284601F0C8FC21462846D9
:1030900001F020FC2146204601F01CFC21460320C3
:1030A00001F018FC05B030BD2896000008B5174B9C
:1030B0001B681BB1154A1368013B1360FEF782F9C8
:1030C000FDF7CEFC124B1B7883B1124A13880133F3
:1030D0009BB21380B3F57A7F08D3134600221A807F
:1030E0000D4A13889BB201339BB21380FEF726FB77
:1030F0000A4A1368013313600F2B00D808BD13462A
:1031000000221A60FEF75EFAF8E700BF302D0020BB
:10311000B81B00202C2D0020BA1B0020282D0020D9
:10312000034B1860024B1B68002BFBD1704700BF9C
:10313000302D002008B5012201F0E1FE08BD08B5E0
:10314000002201F0DCFE08BDF8B506460D46174624
:1031500000240EE029463046FFF7ECFF6420FFF71D
:10316000DFFF29463046FFF7EAFF6420FFF7D8FF6C
:103170000134BC42EED3F8BD08B500220421012081
:1031800001F006FE00220921012001F001FE0022CB
:103190000721052001F0FCFD00220521012001F09E
:1031A000F7FD00220A21012001F0F2FD00220B218F
:1031B000012001F0EDFD00220C21012001F0E8FDCD
:1031C00000220D21012001F0E3FD00220E2101204B
:1031D00001F0DEFD00220F21012001F0D9FD0022C7
:1031E0000921022001F0D4FD00220721104601F040
:1031F000CFFD00220421022001F0CAFD01220A2194
:10320000002001F0C5FD01220B21002001F0C0FDCE
:1032100001220621104601F0BBFD012207211046C4
:1032200001F0B6FD01220821002001F0B1FD0122CC
:103230000921002001F0ACFD00220C21104601F014
:10324000A7FD08BD2DE9F041AAB0674B1B68674A8E
:10325000A2FB03239B09013BB3F1807F0AD24FF00D
:10326000E0225361624BF02183F823100023936125
:1032700007231361FFF780FFFDF712FCFFF7AEFC99
:1032800000283ED004210120FFF754FF5948FFF7E2
:1032900001FD5948FFF7FEFC584C2046FFF7FAFCA9
:1032A0005748FFF7F7FC5748FFF7F4FC2046FFF7B5
:1032B000F1FC5548FFF7EEFCFDF7A6FCFDF7EAFC34
:1032C000014620BB4FF47A70FFF72AFF4F48FFF703
:1032D000E1FC4F48FFF7DEFC4E48FFF7DBFC002027
:1032E000FEF734FA4C48FFF7D5FCFDF70DFA90B124
:1032F00000210846FDF7F8F890B14848FFF7CAFCEE
:103300000EE0052204210120FFF71EFFBEE744481E
:10331000FFF7CAFCD6E74348FFF7BCFCFDF750FABD
:103320004148FFF7B7FCFEF76DF900280CBF0127F5
:10333000002705D13D48FFF7ADFC4FF0010838E00C
:103340003B48FFF7A7FCF8E73A48FFF7A3FC002744
:1033500009E03948FFF79EFCFEF77CF900280CBF16
:103360000127002702D005B3002409E03348FFF706
:1033700091FC33493348FEF7D1FCF4E70134E4B261
:10338000AC4212D2A02302AA314604F1A8000DEBF0
:10339000000C1CF8A40CFDF759FE0028EED0002FFD
:1033A000ECD002A8FEF77AF9E8E74FF4FA60FFF7ED
:1033B000B7FEFDF70DFD0646032201A9FDF7C8FD86
:1033C0000546002FC5D02048FFF764FC3046FEF7C5
:1033D00051F90028B8D108F1010441461B48FFF714
:1033E00063FCA046BFE700BFD8000020D34D6210A9
:1033F00000ED00E05C9300006493000088930000FF
:10340000AC930000D0930000F4930000B083000060
:1034100040940000F8830000649400007C94000055
:103420001C940000A8940000C8940000F4940000CC
:103430001495000084950000A0950000C895000038
:10344000EC950000D88800004895000068950000C1
:1034500000B589B0002006908DF81C0002238DF87D
:103460001B30039004908DF8140001238DF8143064
:1034700002F03EFE10B109B05DF804FB06A902F0AF
:1034800053FE0028F7D103A902F066FE0028F2D10E
:10349000032300930023034A1946184602F0A0FEB6
:1034A000E9E700BF1535000000B589B00023069399
:1034B0008DF81C3002208DF81B00039304938DF8C7
:1034C000143001238DF80C308DF8143002F010FE0A
:1034D00010B109B05DF804FB06A9022002F024FE39
:1034E0000028F6D103A9022002F036FE0028F0D110
:1034F000032300930023034A1946022002F070FEC2
:10350000E7E700BF1735000008B5FFF7A1FFFFF799
:10351000CBFF08BD7047704700B587B0002302930A
:103520000393049305930F4B049301238DF81430F8
:103530003223ADF81630022002F04AF810B107B07D
:103540005DF804FB02A9022002F05AF80028F6D127
:10355000032300930023044A1946022002F09CF83A
:10356000EDE700BFA08601007535000008B5FFF744
:10357000D3FF08BD7047000000B589B01C4B93E82D
:1035800003000690ADF81C10002003900490ADF8E5
:10359000140001238DF80F308DF81030ADF8123083
:1035A0004FF47A73ADF8143000F036FE10B109B064
:1035B0005DF804FB06A900F04FFE0028F7D103A92F
:1035C00000F07CFE0028F2D100900346094A012158
:1035D00000F0EAFE0028EAD10021084600F05CFF76
:1035E0000028E4D10021084600F067FFDFE700BFB4
:1035F000349600000136000008B5FFF7BDFF08BD96
:103600007047000000B587B0134B53F8042BADF89A
:103610001420120C8DF8162003AA93E8030082E808
:103620000300022000F02CFA10B107B05DF804FB93
:1036300005A9022000F050FA0028F6D103A90220C3
:1036400000F056FA0028F0D100230093034A01212C
:10365000022000F0A1FAE8E73C960000E7360000FF
:1036600000B587B0134B53F8042BADF81420120C9F
:103670008DF8162003AA93E8030082E803000120D6
:1036800000F0FEF910B107B05DF804FB05A90120B8
:1036900000F022FA0028F6D103A9012000F028FA50
:1036A0000028F0D100230093034A0121084600F0CE
:1036B00073FAE8E73C960000C936000008B5FFF74A
:1036C000A1FFFFF7CDFF08BD10B5044610F0020FB3
:1036D00003D114F0040F03D110BDFFF70BF8F8E786
:1036E000FFF708F8F8E77047002807DB00F01F0233
:1036F000400901239340024A42F82030704700BF3E
:1037000000E100E000280CDB00F01F02400901236B
:1037100093402030034A42F82030BFF34F8FBFF36D
:103720006F8F704700E100E0002808DB0901C9B293
:1037300000F1604000F5614080F80013704700F030
:103740000F000901C9B2014B1954704714ED00E094
:103750000C284CD800B5072828D94FF0804EDEF849
:10376000282100F0070308334FF0010C0CFA03FC8A
:1037700022EA0C0201FA03F31343CEF8283107289A
:1037800026D94FF0804CDCF8303100F007000830CB
:103790000122824023EA020301FA00F00343CCF83D
:1037A000303139BB0020154B186024E04FF0804EBB
:1037B000DEF82C3000F108024FF0010C0CFA02FC8C
:1037C00023EA0C0301FA02F21343CEF82C30D6E7B9
:1037D0004FF0804CDCF8343008300122824023EA7C
:1037E000020301FA00F00343CCF83430D9E76FF05C
:1037F0000100704700205DF804FB00BF702F00201F
:103800000C2808D8DFE800F0220A0C0E101214165B
:10381000181A1C1E20006FF01000704740207047DF
:103820004120704742207047432070474420704732
:103830006C2070476D2070476E2070476F20704776
:103840007020704771207047722070473F2070478A
:103850000C284FD8052947D8DFE801F0032028308D
:10386000373E264B93FBF2F32548036000204FF0D0
:103870008043D3F8A83023F0E063002937D109064C
:103880000B434FF08041C1F8A830D1F8A83023F4A1
:103890007F0343EA0242C1F8A82070474FF4004377
:1038A00093FBF2F3164803600020E0E7154B1B681A
:1038B000B3FBF2F3124803600020D8E7124B93FBEE
:1038C000F2F30F4803600020D1E7104B93FBF2F3B3
:1038D0000B4803600020CAE70A4B1B68B3FBF2F3F6
:1038E000074803600020C2E76FF00500BFE7023120
:1038F0000906C5E76FF00100704700BF20A107006F
:10390000702F0020D80000200024F40000093D00A2
:1039100000F5800080300002704708B5FFF718FFFF
:1039200008BD000070B582B0002300930C2861D858
:103930000446FFF7EDFF83680193019B03F0060344
:10394000062B21D0019B13F0040F55D1019B13F0DE
:10395000020F03D1019B13F0100F3CD03C4B2C22E3
:1039600002FB043399691A6A914262D0036823F01A
:10397000FF0337492C2505FB04110D69561C0E6207
:10398000AA5C1343036026E0009B43F0040300930A
:10399000436913F0100F03D0009B43F0080300931A
:1039A000436913F0080F03D0009B43F0100300930A
:1039B000436913F0040F03D0009B43F020030093EE
:1039C000436913F0020F03D0009B43F040030093C0
:1039D0000368002343601E4B2C2202FB04335B6808
:1039E00043B1009A32B10098194A2C2101FB0422FC
:1039F0009168984702B070BD0568154B2C2202FBF8
:103A0000043359695A6A561C5E628D54DA695B6ADE
:103A10009A42E0D1436823F0010343600C4B2C220F
:103A200002FB043300225A73009B43F0020300930D
:103A3000D1E7074B2C2202FB043300221A734368A0
:103A400023F002034360009B43F001030093C2E7AD
:103A5000342D002010B5002400E001340C2C0BDCC8
:103A6000064B2C2202FB043393F82830002BF4D0B1
:103A7000E0B2FFF757FFF0E710BD00BF342D002084
:103A800038B50C2822D804460121FFF746FF054629
:103A9000D0B92046FFF73CFF03462C220D4802FB1D
:103AA000040000E01A685A6912F0010FFAD15A694D
:103AB00012F0200FFBD000215960D96019615A69BA
:103AC0009B682C2203F0DCFA284638BD6FF0010514
:103AD000FAE700BF342D00200C2805D808B58A78F5
:103AE0004978FFF7B5FE08BD6FF001007047000090
:103AF0000C2843D810B50C46FFF70AFF2279032A99
:103B00003FD8C36823F003031343C3606379042BD6
:103B10003AD80AD0C36843F00803C360C36823F0EF
:103B20001003627943EA0213C360A279012A2ED8F6
:103B3000C36823F0040343EA8203C360E279436865
:103B400023F0040343EA82034360124B1B6822689C
:103B50001201B3FBF2F102FB11331B02B3FBF2F3D0
:103B6000026A6FF30F0289B20A430262426A22F0CC
:103B7000FF02DBB213434362002010BD6FF001006F
:103B800070476FF00500F8E76FF00500F5E76FF09C
:103B90000500F2E7702F00200C287ED82DE9F041B7
:103BA00004460E4690461F46FFF72AFE0546012EA4
:103BB0001BD073B2002B4DD0F31EDBB2012B49D8C2
:103BC00001233A46364902F055F930B9354B2C22DB
:103BD00002FB0433C3F804809F60324B2C2202FBAB
:103BE0000433012283F8282020E02E4B2C2202FBF4
:103BF000043393F8283003BB2A4B2C2202FB0433F6
:103C0000C3F804809F60002D08DB05F01F016B09DD
:103C100001228A406033244941F82320069928462E
:103C2000FFF782FD2846FFF75FFD00202C2303FBF2
:103C300004F41C4B1E55BDE8F08100231A461946BA
:103C400002F018F9174B2C2202FB0433002283F8F0
:103C50002820D1E700231A461946284602F00AF91F
:103C6000104B2C2202FB0433002283F828209542BB
:103C700008DB05F01F016B0901228A4060330A4905
:103C800041F823202846FFF73DFD064B2C2202FB7E
:103C90000433002058609860C8E76FF00100704757
:103CA000553A0000342D002000E100E00C2856D8E1
:103CB0002DE9F84304460F4690469946FFF728FE43
:103CC0002A4B2C2202FB04331B7B012B4AD0274BAF
:103CD000154604FB05F55E19012232733761C6F8FB
:103CE0001880002232625B5D4BB3B9F1000F26D120
:103CF000436913F0200F0BD0036823F0FF031B4A26
:103D00002C2101FB0422012111623A781343036044
:103D1000436843F00203436000201EE0036823F081
:103D2000FF03124A2C2505FB042215694E1C16625E
:103D30006A5C13430360436913F0200FFBD00B4B05
:103D40002C2202FB04339A69196A8A42E6D8074B8F
:103D50002C2202FB043300201873BDE8F8836FF0B7
:103D6000010070476FF00200F7E700BF342D00201C
:103D70002DE9F8430C2879D8054688461746994618
:103D8000FFF7C6FD04463C4B2C2202FB05335B7B50
:103D9000022B6ED0384B104605FB00F01E18022295
:103DA0007273C6F81480F761002272621F5C17B14B
:103DB000B9F1000F53D02846FFF722FD0646002F29
:103DC00033D0FFF79FFC30E0013B626912F0010F36
:103DD00015D1002BF8D1284B2C2202FB05330022F1
:103DE0005A736FF00304244B2C2202FB05F55A1979
:103DF000002151735B5D73BB2046BDE8F883002B47
:103E0000E9D0606963699B08626943EAD00343EAC9
:103E1000520313F0010F13D12068174B2C2202FB21
:103E200005335A694F1C5F625054134B2C2202FB1E
:103E30000533DA69596A8A420BD942F21073C4E732
:103E40000D4B2C2202FB053300225A736FF008043D
:103E5000C9E70024C7E73046FFF746FCCCE72368F4
:103E6000636843F0010363600024C5E76FF0010459
:103E7000C2E76FF00204BFE7342D00200C2813D8EE
:103E800010B50446FFF744FDC36843F04003C36028
:103E9000C36823F04003C360054B2C2202FB0433AC
:103EA00000201873587310BD6FF00100704700BFF9
:103EB000342D002008B50020FFF734FD08BD08B5FB
:103EC0000120FFF72FFD08BD08B50220FFF72AFDEE
:103ED00008BD08B50320FFF725FD08BD08B504207F
:103EE000FFF720FD08BD08B50520FFF71BFD08BD45
:103EF00008B50620FFF716FD08BD08B50720FFF737
:103F000011FD08BD08B50820FFF70CFD08BD08B578
:103F10000920FFF707FD08BD08B50A20FFF702FDDD
:103F200008BD08B50B20FFF7FDFC08BD08B50C2047
:103F3000FFF7F8FC08BD0000002807DB00F01F02B7
:103F4000400901239340024A42F82030704700BFE5
:103F500000E100E000280CDB00F01F024009012313
:103F600093402030034A42F82030BFF34F8FBFF315
:103F70006F8F704700E100E0002808DB0901C9B23B
:103F800000F1604000F5614080F80013704700F0D8
:103F90000F000901C9B2014B1954704714ED00E03C
:103FA000092813D84FF08042936A10304FF0010C6B
:103FB0000CFA00FC23EA0C0381400B439362136B61
:103FC00023EA0C0319431163002070476FF00100CE
:103FD0007047092806D8DFE800F01A080A0C0E100E
:103FE000121416186FF0100070471020704711203F
:103FF0007047122070471320704714207047152017
:1040000070471620704717207047182070470F2000
:104010007047032809D8DFE800F00206040A0020F0
:10402000704702207047032070470420704701202A
:1040300070470246806910F0040000D002209369A6
:1040400013F0020F01D040F00400936913F0010F48
:1040500001D040F00800704710B40C6824F07004E0
:1040600044F040040C60052A3AD8DFE802F00A0A5E
:1040700007050309062204E0052202E0042200E00D
:1040800007224FF08041D1F8981004281ED96FF014
:10409000E064214004281CD91824A2400A434FF0B0
:1040A0008041C1F89820D1F89820042813D96FF4E2
:1040B0007F010A40042811D910218B4013434FF08F
:1040C0008042C2F89830002010BC70476FF4E06462
:1040D000DFE70824E1E76FF0FF01EAE70021ECE702
:1040E0006FF00500F0E7032A03D8DFE802F00606C8
:1040F000060600226FF0050000E000200B6823F0A8
:10410000700343EA02130B60704700F18070C03007
:104110008001704708B5FFF743FF08BD38B5054675
:10412000FFF7F3FF0446FFF784FF034610F0030098
:1041300017D02E4A02EB0512127B032A03D8DFE8C0
:1041400002F00F0D0F0400200BE0284A02EB0512CD
:10415000527B12F0020F11D1002002E0082000E093
:10416000012013F0040F1BD0204A02EB0512127B32
:10417000032A15D8DFE802F0041104070220F0E753
:1041800040F001000DE0194A02EB0512527B12F0DB
:10419000020F05D040F0040003E040F0100000E002
:1041A00078B1A26942F00402A261A26942F002025F
:1041B000A261A26942F00402A261A26942F0020275
:1041C000A26113F0080F05D040F02000A36943F06E
:1041D0000103A361054B03EB05135B682BB120B111
:1041E000024A02EB05129168984738BD742F0020EF
:1041F00010B5002400E00134092C09DC054B03EB69
:1042000004139B7B002BF6D0E0B2FFF787FFF2E7A9
:1042100010BD00BF742F002038B5092816D80446F9
:104220000121FFF777FF054608B1284638BD204633
:10423000FFF76BFF2101074A02EB041400235350E0
:104240006360A360E36003604360EEE76FF0010525
:10425000EBE700BF742F0020092829D870B5054668
:104260000C468B88B3F5806F25D2FFF74EFF0646CC
:104270002378012B0CD0022B10D0B3B9A37862782D
:1042800001462846FFF7E8FE0020A388B36070BD12
:10429000036843F0700303600020F6E7627801468C
:1042A0002846FFF720FF0020EFE76FF00500ECE75E
:1042B0006FF0010070476FF00500E8E7092868D843
:1042C000F8B506460D460F78032F65D8FFF71DFF9A
:1042D00004463846FFF79DFE236823F00303C0B26F
:1042E000184320606A78236823F0800343EAC213EE
:1042F0002360EB7873B12B78032B50D8DFE803F001
:10430000022F0222E36943F00403E361E36943F00F
:104310000203E3612A78234B03EB06131A732B790C
:104320001BB1E36943F00103E3612B78032B26D033
:10433000EB88E3602B892361636843F002036360C9
:104340000020F8BDE36943F00403E361E36943F04F
:104350000203E361236843F400632360DAE7E3695F
:1043600043F00403E361E36943F00203E36123687C
:1043700023F00C03AA7843EA82032360CAE7EB88A0
:10438000E3602B892361074B03EB061306225A7364
:10439000D2E76FF0010070476FF00500D1E76FF0D2
:1043A0000500CEE7742F002009286BD82DE9F041D5
:1043B00004460E4690461F46FFF70BFE0546012EAB
:1043C00020D0022E4CD000231A46194601F052FD8F
:1043D0002E4B03EB041300229A73954208DB05F081
:1043E0001F016B0901228A406033294941F82320CB
:1043F0002846FFF7AFFD254B03EB04130020986020
:1044000058601DE0214B03EB04139B7BEBB91F4B62
:1044100003EB0413C3F804809F60002D08DB05F054
:104420001F016B0901228A406033194941F823209A
:1044300006992846FFF7A0FD2846FFF77DFD0020DE
:104440002401124B1E55BDE8F08100231A4619467F
:1044500001F010FD0D4B03EB041300229A73D6E715
:1044600001233A460B4901F005FD28B9074B03EB40
:104470000413C3F804809F60044B03EB0413012270
:104480009A73DDE76FF00100704700BF742F0020C2
:1044900000E100E0F141000009280BD810B50C46FE
:1044A000FFF733FE036823F4006343EAC423036089
:1044B000002010BD6FF00100704709280BD810B51F
:1044C0000C46FFF722FE036823F4805343EA0433CB
:1044D0000360002010BD6FF00100704708B5002098
:1044E000FFF71CFE08BD08B50120FFF717FE08BD49
:1044F00008B50220FFF712FE08BD08B50320FFF73C
:104500000DFE08BD08B50420FFF708FE08BD08B57C
:104510000520FFF703FE08BD08B50620FFF7FEFDE6
:1045200008BD08B50720FFF7F9FD08BD08B508204C
:10453000FFF7F4FD08BD08B50920FFF7EFFD08BD42
:10454000104B98420DD9104B984213D90F4B9842FB
:1045500012D90F4B984211D90E4B984210D8042112
:1045600000E000214FF08242136823F00F030B4359
:10457000136070470121F5E70221F3E70321F1E71A
:104580000521EFE7408AF7018014EF0300E1F5050C
:10459000406BED0780F5E40904285FD8DFE800F000
:1045A0002533414F03004FF0070C00204FF08043AC
:1045B000596C21F0706141EA02625A64596CC1F38E
:1045C0000241294A1268CA4028490A604FF08241D4
:1045D0000A6822F00F0242F005020A605A6C22F0CB
:1045E000070242EA0C025A6470474FF080410B6C9C
:1045F00043F002030B641E4B13411B490B604FF049
:10460000060C0020D2E74FF080410B6C43F008030A
:104610000B64184B134114490B604FF0020C00203F
:10462000C4E74FF080410B6C43F020030B64124B46
:1046300013410D490B604FF0000C6046B6E74FF098
:1046400080410B6C43F080030B644FF40043134133
:1046500005490B604FF0010C0020A7E74FF0000C5C
:104660006FF00500A2E700BFD8000020D4000020B2
:1046700000093D000024F40020A107000F292ED8D6
:104680004FF08042136D23F00F0301F00F010B4335
:10469000136507281CD8DFE800F015121F07181B48
:1046A0001B040421002001E0012100204FF0804282
:1046B000136D23F0E00343EA4113136570470521AE
:1046C0000020F3E706210020F0E707210020EDE7B6
:1046D00000216FF00500E9E700210846E6E76FF0EA
:1046E000050070474FF0804CDCF8443023F44073F1
:1046F00043EA0123CCF84430032925D8DFE801F050
:1047000002141216012398B1012820D14FF08040E5
:10471000016C41F0020101640E49B1FBF3F3136037
:10472000002070470423EEE70223ECE70823EAE7C2
:104730004FF08040016C41F0080101640649B1FB73
:10474000F3F31360002070476FF0050070476FF0BF
:104750000500704700093D000024F40082B00C4BB6
:104760001B680C4AA2FB0312920C0B498B4200D827
:10477000012200FB02F20023019303E000BF019B32
:1047800001330193019B9342F8D302B0704700BFFD
:10479000D800002083DE1B433F420F0010B50346C4
:1047A00001280FD002281AD030BB4FF08042906C05
:1047B00010F0200021D01146926C42F020028A6451
:1047C00001201AE04FF08042906C10F0020014D0EB
:1047D0001146926C42F002028A6402200DE04FF012
:1047E0008042906C10F4007007D01146926C42F435
:1047F00000728A64042000E0002003EB43020449B5
:1048000051F822401CB101EB82035968A04710BD4A
:104810001430002038B50378042B43D0002B46D049
:1048200000214FF08042536C23F4805343EA01335C
:104830005364827841780078FFF7AEFE054678BB76
:104840001C4B1C68E30E6101091B63F100039B0014
:1048500043EA91738900091943F100034FEAC30C3D
:10486000154A0023C8004CEA517102F037F8134B87
:10487000A3FB00308008124B1860124BA3FB0423EB
:10488000DB0C114A1360114B9C4202D813460122E3
:104890001A60C82002F014F8064B1868FFF750FEA3
:1048A000284638BD0A4B1A68024B1A60C1E701213D
:1048B000B7E700BFD800002040420F00ABAAAAAA69
:1048C000D0000020819F5E16CC0000207F8D5B0011
:1048D0003830002003282BD8DFE800F0020C162027
:1048E0004FF08042136C23F0020343EA4103136448
:1048F000002070474FF08042136C23F0080343EA16
:10490000C1031364002070474FF08042136C23F002
:10491000200343EA41131364002070474FF08042A4
:10492000136C23F0800343EAC11313640020704723
:104930006FF005007047000030B583B0002301938D
:1049400048B94FF08042136E23F4800313660025AC
:10495000284603B030BD0C4605464FF08042136E2A
:1049600043F4800313660220FFF7F8FE2378012B3F
:1049700000D000254FF08042536C23F4805343EA6B
:104980000533536401AA61782078FFF7ABFE054632
:104990000028DDD1A37803F00F0343F48003E2780D
:1049A00043EA02236279120402F47022134343F4AF
:1049B0000013A279920602F040621343E2791206D4
:1049C00002F0407213434FF0804213664FF4FA70C6
:1049D000FFF7C4FE0F4B1B684FF4FA7202FB03F3A0
:1049E0004FF08042126E002A04DB0BB1013BF7E767
:1049F0006FF00305002DABD16279A378013302FB80
:104A00000332019BB3FBF2F3E27802FB0333024A69
:104A100013609DE7CC0000203830002010B514460C
:104A2000FFF72CFE38B94FF080410B6D23F01003D7
:104A300043EA04130B6510BD04280ED84FF08042E2
:104A4000536C23F4E02343EA00435364044B1B6894
:104A5000C340044A1360002070476FF005007047A0
:104A6000D8000020D400002008B50020FFF796FEF3
:104A700008BD08B50120FFF791FE08BD08B502206A
:104A8000FFF78CFE08BD0000002807DB00F01F02C6
:104A9000400901239340024A42F82030704700BF8A
:104AA00000E100E000280CDB00F01F0240090123B8
:104AB00093402030034A42F82030BFF34F8FBFF3BA
:104AC0006F8F704700E100E0002808DB0901C9B2E0
:104AD00000F1604000F5614080F80013704700F07D
:104AE0000F000901C9B2014B1954704714ED00E0E1
:104AF000062805D8DFE800F01307090B0D0F110099
:104B00006FF010007047252070472620704727203F
:104B1000704728207047292070472A20704724209A
:104B2000704703281CD8022839D2012853D84FF0E7
:104B30008043D3F89C3023F0E06301292DD9023162
:104B400009060B434FF08041C1F89C30D1F89C30EE
:104B500023F47F0343EA0243C1F89C3000207047EE
:104B60000438C0B2022839D84FF08043D3F8A030BF
:104B700023F0E06301292CD9023109060B434FF0E1
:104B80008041C1F8A030D1F8A03023F47F0343EA7C
:104B90000243C1F8A030002070470906D1E74FF06A
:104BA0008043D3F8A03023F4E06301290FD9023108
:104BB00009020B434FF08041C1F8A030D1F8A0307A
:104BC00023F0FF031343C1F8A0300020704709020F
:104BD000EFE70906D2E76FF0050070476FF00500B8
:104BE0007047000030B400F5820000F580700002CC
:104BF000154CD4F8F05F25F0FF0545F01505C4F815
:104C0000F05FD4F8F05F25F0FF0545F05105C4F8DA
:104C1000F05F856A49004FF0030C0CFA01FC25EAAD
:104C20000C058B401D438562036A23EA0C038A400E
:104C300013430362D4F8F03F23F0FF03C4F8F03FBE
:104C4000002030BC704700BF00000141062801D899
:104C5000002070476FF005007047000010B58446D3
:104C60001046114BD3F8F04F24F0FF0444F0150424
:104C7000C3F8F04FD3F8F04F24F0FF0444F0510490
:104C8000C3F8F04F4A62D3F8F02F22F0FF02C3F8C6
:104C9000F02F064B03EB0C135A6822B1034B03EBC6
:104CA0000C139968904710BD000001413C30002072
:104CB00010B5002400E00134062C12DC094B03EB94
:104CC00004131B7B002BF6D0E1B2090201F18241F3
:104CD00001F580314A6A002AEDD0E0B2FFF7BEFF4D
:104CE000E9E710BD3C30002008B5044B5A6A02B910
:104CF00008BD19460020FFF7B1FFF9E700000141A8
:104D000008B5044B5A6A02B908BD19460120FFF7DD
:104D1000A5FFF9E70001014108B5044B5A6A02B941
:104D200008BD19460220FFF799FFF9E7000201418B
:104D300008B5044B5A6A02B908BD19460320FFF7AB
:104D40008DFFF9E70003014108B5044B5A6A02B927
:104D500008BD19460420FFF781FFF9E7000401416F
:104D600008B5044B5A6A02B908BD19460520FFF779
:104D700075FFF9E70005014108B5044B5A6A02B90D
:104D800008BD19460620FFF769FFF9E70006014153
:104D900070B504460D461646FFF758FF002841D16E
:104DA000014604F5820303F580731B021F48D0F807
:104DB000F02F22F0FF0242F01502C0F8F02FD0F8D9
:104DC000F02F22F0FF0242F05102C0F8F02F072D21
:104DD00017D81A68AD000F20A84022EA0002042E5E
:104DE0000DD846F00806AE4032431A600F4AD2F89A
:104DF000F03F23F0FF03C2F8F03F084670BD0F26D6
:104E0000F1E75A68083DAD000F20A84022EA0002F1
:104E1000042E05D846F00806AE4032435A60E5E756
:104E20000F26F9E76FF00101E7E700BF000001413D
:104E300070B504460E461546FFF708FF002842D11C
:104E400004F5820303F580731B022049D1F8F02F8B
:104E500022F0FF0242F01502C1F8F02FD1F8F02F36
:104E600022F0FF0242F05102C1F8F02F012D21D0B3
:104E700010D83DB99A6876000321B14022EA0102B8
:104E80000A439A60114AD2F8F03F23F0FF03C2F8B8
:104E9000F03F70BDAA1ED2B2012AF3D89A687600FC
:104EA0000321B14022EA010205F00105B5402A4381
:104EB0009A60E7E79A6876000321B14022EA01028E
:104EC0000A439A60DEE76FF00100E2E7000001416B
:104ED00070B504460D461646FFF7B8FE60B904F5F6
:104EE000820303F580731B025B6B0122AA4013400F
:104EF00023FA05F1317070BD6FF00100FBE770B56A
:104F000004460E461546FFF7A1FEA8B904F5820334
:104F100003F580731B023DB99A6B0121B14022EA6F
:104F200001020A439A6370BDDA6B0121B14022EAA3
:104F300001020A43DA63F6E76FF00100F3E7F0B528
:104F400083B007460C4615461E46FFF77FFE50B954
:104F50009DF82030009333462A4621463846FFF715
:104F600041FE03B0F0BD6FF00100FAE770B50446F2
:104F70000E461546FFF76AFE20BB04F5820303F5D3
:104F800080731B02114CD4F8F02F22F0FF0242F084
:104F90001502C4F8F02FD4F8F02F22F0FF0242F0EF
:104FA0005102C4F8F02F1A690121B14022EA01022E
:104FB000B5402A431A61D4F8F03F23F0FF03C4F848
:104FC000F03F70BD6FF00100FBE700BF0000014142
:104FD00038B505460C46FFF739FE28B962782178C6
:104FE0002846FFF79EFD38BD6FF00100FBE700008B
:104FF00070B5044606783046FFF77AFD05466378BB
:10500000012B20D0022B4DD000231A46194600F068
:1050100031FF2E4B03EB061300221A73954208DB77
:1050200005F01F016B0901228A406033284941F8CD
:1050300023202846FFF736FD244B03EB0613002000
:10504000986058601EE0214B03EB06131B7BF3B9FD
:1050500062681E4B03EB06135A60A2689A60002D2B
:1050600008DB05F01F016B0901228A4060331849F3
:1050700041F82320E1682846FFF726FD2846FFF780
:1050800003FD002061783301104AD15470BD002324
:105090001A46194600F0EEFE0C4B03EB06130022F5
:1050A0001A73D5E70123A2680A4900F0E3FE30B97C
:1050B0006268064B03EB06135A60A2689A60034BC2
:1050C00003EB061301221A73DCE700BF3C3000201B
:1050D00000E100E0B14C000008B5FFF705FE08BD97
:1050E00008B5FFF70DFE08BD08B5FFF715FE08BDB2
:1050F00008B5FFF71DFE08BD08B5FFF725FE08BD82
:1051000008B5FFF72DFE08BD08B5FFF735FE08BD51
:10511000002807DB00F01F02400901239340024AE8
:1051200042F82030704700BF00E100E000280CDBAF
:1051300000F01F024009012393402030034A42F847
:105140002030BFF34F8FBFF36F8F704700E100E057
:10515000002808DB0901C9B200F1604000F5614098
:1051600080F80013704700F00F000901C9B2014B2D
:105170001954704714ED00E0032813D84FF0804213
:10518000D36A04304FF0010C0CFA00FC23EA0C0344
:1051900081400B43D362536B23EA0C0319435163E1
:1051A000002070476FF001007047032803D8DFE844
:1051B00000F00B0507096FF0100070473D207047A5
:1051C0003E207047642070473C20704700F5800007
:1051D000A0300002704708B5FFF7CEFF08BD000001
:1051E000064B426912F0800F02D11BB1013BF8E778
:1051F000806870474FF0FF30704700BF80841E000A
:10520000436943F002034361064B426912F0800F89
:1052100002D10BB1013BF8E7436923F0020343617C
:10522000704700BF80841E00094B1B680D2B0ED8F1
:1052300010B4090241EA0262C0B205490B685C1C65
:105240000C600243034941F8232010BC70477047AB
:10525000AC300020B030002070B582B00023009345
:10526000032800F28F810446FFF7B0FF05468368EC
:105270000193019B472B3CD8152B38D3153B322B80
:1052800000F25D81DFE813F0DC005B0173005B017D
:105290005B015B015B015B015B015B015B01FE008C
:1052A0005B0155005B015B015B015B015B015B0125
:1052B0005B015B015B015B015B015B015B015B010E
:1052C0005B015B015B015B015B015B015B015B01FE
:1052D0005B015B015B015B015B015B015B015B01EE
:1052E0005B015B015B011C011C01A700A7000023FF
:1052F00026E1972B00F24881852B18D3853B122B92
:1053000000F21B81DFE813F08100FC004D00190161
:1053100019011901190119011901190119011901BD
:105320001901190119011901AD00190167000023C4
:1053300006E19B4B2C2202FB04331A6A9B699A42BA
:10534000C0F02481964B2C2202FB04335B7B002BA4
:1053500000F0F680009B43F001030093904A2C2359
:1053600003FB04220023136293615373E8E08C4B28
:105370002C2202FB04331B7B002B40F0CE80884B99
:1053800002FB04331A6A9B699A42C0F0C6804369E3
:1053900043F002034361436923F0080343610023A0
:1053A000CEE07F4B2C2202FB04331B7B002B40F012
:1053B000B4807B4B02FB04331A6A9B699A42C0F0AB
:1053C000AC806B6943F002036B616B6923F00803E7
:1053D0006B610023B4E0724B2C2202FB04331B7B75
:1053E000002B40F09A806E4B02FB04331A6A9B69D3
:1053F0009A42C0F092806B6943F002036B616B6963
:1054000023F008036B6100239AE0654B2C2202FB1A
:1054100004331B7B002B40F0BB80614B02FB043349
:10542000012283F828205A6A0132DB699A4201D0AE
:10543000002385E06B6923F008036B6100237FE0A4
:10544000574B2C2202FB04331B7B012B01D0002382
:1054500076E0534B02FB0433012283F8282000231B
:105460006EE04F4B2C2202FB04331B7B012B01D03F
:10547000002365E04A4A2C2303FB0422012382F81F
:1054800028305DE0464B2C2202FB04335A6ADB696C
:105490009A427FD3424B2C2202FB043393F82830EC
:1054A000002B4DD0009B43F0020300933C4A2C2379
:1054B00003FB042200235362937382F828303FE0F9
:1054C000374B2C2202FB04331B7B002B64D1344B63
:1054D00002FB04335A6A511CDB69013B994203D039
:1054E0009A4207D001232BE0436923F0080343616C
:1054F000012325E0436943F00203436101231FE0D8
:10550000274B2C2202FB04331B7B002B46D16B69FB
:1055100043F001036B61002312E02B6823F0FF03CB
:105520001F4A2C2101FB04221069116A4E1C1662CD
:10553000425C13432B60002302E0002300E00023C1
:105540007BB1174B2C2202FB043393F8283043B174
:105550002868134B02FB043359695A6A561C5E6271
:1055600088540F4B2C2202FB04335B6843B1009A32
:1055700032B100980A4A2C2101FB04229168984715
:105580007923AB6002B070BD0023D9E70023D7E7D1
:105590000023D5E70023D3E70123D1E70023CFE79A
:1055A000F030002010B5002400E00134032C0BDCA7
:1055B000064B2C2202FB043393F82930002BF4D045
:1055C000E0B2FFF749FEF0E710BD00BFF030002069
:1055D00038B503280FD804460121FFF7FCFD054626
:1055E00008B1284638BD2C220021044802FB0400E3
:1055F00001F046FDF5E76FF00105F2E7F03000201D
:10560000032841D838B505460C46FFF7DFFD0346B1
:1056100021781F4A2C2000FB05221173DA6822F042
:10562000FE02617842EA4102DA60DA6822F00102A1
:10563000A1780A43DA60A168E9B1164A1268B2FBA0
:10564000F1F2C2F34F02901E80B2033A92B299690E
:105650006FF30F0101439961D9696FF30F010A4399
:10566000DA61227B52B11A6A6FF30E02E1890A43B2
:105670001A62002038BD20896289E8E71A6A6FF350
:105680000E021A620020F5E76FF00100704700BFBC
:10569000F0300020D400002003287ED82DE9F0410E
:1056A00004460E4690461F46FFF77FFD0546012E35
:1056B0001BD073B2002B4DD0F31EDBB2012B49D8A7
:1056C00001233A46364900F0D5FB30B9354B2C2240
:1056D00002FB0433C3F804809F60324B2C2202FB90
:1056E0000433012283F8292020E02E4B2C2202FBD8
:1056F000043393F8293003BB2A4B2C2202FB0433DA
:10570000C3F804809F60002D08DB05F01F016B09C2
:1057100001228A406033244941F823200699284613
:10572000FFF716FD2846FFF7F3FC00202C2303FBB0
:1057300004F41C4B1E55BDE8F08100231A4619469F
:1057400000F098FB174B2C2202FB0433002283F855
:105750002920D1E700231A461946284600F08AFB83
:10576000104B2C2202FB0433002283F8292095429F
:1057700008DB05F01F016B0901228A4060330A49EA
:1057800041F823202846FFF7D1FC064B2C2202FBD0
:105790000433002098605860C8E76FF0010070473C
:1057A000A5550000F030002000E100E02DE9F047B1
:1057B0009DF820A0032800F2C18005460F469146BF
:1057C0009846FFF703FD0446614B2C2202FB05338C
:1057D0005E7B002E40F0B5805D4A2C2005FB00F07A
:1057E00001215973C3F81090C3F818800021196281
:1057F000135C1BB1BAF1000F00D10126636923F0DD
:10580000100343EA06136361636943F008036361AD
:105810007923A3604E4B2C2202FB05331B7B4BB933
:10582000236823F0FF0343EA47032360636943F0DF
:1058300001036361002E40F0878037464FF0000877
:1058400051E0172866D0222823D1414B2C2202FB9D
:1058500005331A6A9B699A4226D33E46012723E004
:105860003B4B2C2202FB05331A6A9B699A4255D3A3
:10587000374B2C2202FB05331B7B2BB13B46792295
:10588000A2603E461F460FE02046FFF7B9FC012309
:10589000F5E72F4B2C2202FB05331B7B9BB37923AF
:1058A000A3603E466FF00808B8F1000F3DD1D6B1B5
:1058B000274B2C2202FB05331A6A9B69013B9A4253
:1058C0002ED0236823F0FF03214A2C2101FB05225F
:1058D0001069116A01F1010CC2F820C0425C134347
:1058E00023607923A36007BB2046FFF779FC462895
:1058F0000DD0A6D94728B3D0CBD387280CD0972872
:10590000C7D10126D0E72046FFF77AFCC7E73E461D
:105910000127C9E70126C7E70126C5E70126C3E736
:10592000636923F008036361CBE7094B2C2202FB78
:10593000053300225A734046BDE8F0876FF0010836
:10594000F9E76FF00208F6E74FF00008F3E700BF51
:10595000F03000202DE9F0479DF820A0032800F248
:10596000138104460F4691469846FFF72FFC0546E3
:105970008A4B2C2202FB04339E7B002E40F00781D1
:10598000864A2C2004FB00F001219973C3F814907F
:10599000C3F81C8000215962135C1BB1BAF1000FDF
:1059A00000D101266B6923F0100343EA06136B61F3
:1059B0006B6943F008036B617923AB60774B2C2252
:1059C00002FB04331B7B5BB92B6823F0FF0343EA24
:1059D000470343F001032B606B6943F001036B61E4
:1059E000002E40F0D7806D4B2C2202FB04334FF089
:1059F000000883F82880374691E0852810D0952844
:105A000058D1664B2C2202FB04331B7B012B5DD14A
:105A1000624B02FB0433012283F828203E4655E006
:105A20005E4B2C2202FB04331B7B002B4ED15B4BC5
:105A300002FB0433012283F828203E4646E0574B00
:105A40002C2202FB04335A6ADB699A423ED3534B41
:105A50002C2202FB043393F82830002B36D04F4A17
:105A60002C2101FB04220021516282F828103E46BD
:105A70001F462BE0494B2C2202FB04335A6ADB6998
:105A80009A4270D3454B2C2202FB043393F82890A2
:105A9000B9F1000F69D0414B02FB04331B7B2BB1E2
:105AA000B9467923AB603E464F460FE02846FFF7E4
:105AB000A7FBF6E7394B2C2202FB04331B7B002BA0
:105AC0004AD07923AB603E466FF00808B8F1000F6A
:105AD00053D1D6B1314B2C2202FB043393F828303A
