:1000000000000420354F0000E9450000314F00009A
:10001000334F0000334F0000334F0000000000005A
:10002000000000000000000000000000334F00004E
:10003000334F000000000000334F0000D1180000D3
:10004000334F0000853100008F31000099310000EE
:10005000334F0000334F0000334F0000334F000098
:10006000334F0000334F0000334F0000334F000088
:10007000334F0000334F0000334F0000F92B0000D6
:10008000032C00000D2C0000172C0000212C000078
:100090002B2C0000352C00003F2C0000492C0000C8
:1000A000532C0000334F0000334F0000334F00004B
:1000B000334F0000334F0000334F0000334F000038
:1000C000334F0000334F0000334F0000334F000028
:1000D000F5370000FD370000053800000D3800003E
:1000E000153800001D38000025380000334F00008F
:1000F000334F0000334F0000334F0000334F0000F8
:10010000334F0000334F0000334F0000334F0000E7
:10011000334F0000334F0000334F0000334F0000D7
:10012000334F0000334F0000334F0000334F0000C7
:10013000F9440000034500000D450000D1250000F2
:10014000DB250000E5250000EF250000F925000073
:1001500003260000334F0000334F0000334F0000F0
:10016000334F0000334F0000794B0000834B0000F9
:100170008D4B0000334F0000334F0000334F000021
:10018000334F0000334F0000334F0000334F000067
:10019000334F0000334F0000334F0000334F000057
:1001A000334F0000334F0000334F0000334F000047
:1001B000334F0000334F0000334F0000334F000037
:1001C000334F0000334F0000334F0000334F000027
:1001D00017450000334F0000334F0000334F00003D
:1001E000334F0000334F0000334F0000334F000007
:1001F0000D26000017260000212600002B260000F7
:10020000352600003F26000049260000334F00003D
:10021000334F0000334F0000334F0000334F0000D6
:10022000334F0000334F0000334F0000334F0000C6
:10023000334F00000000000000000000000000003C
:1002400000000000000000000000000000000000AE
:10025000000000000000000000000000000000009E
:10026000000000000000000000000000000000008E
:10027000000000000000000000000000000000007E
:10028000000000000000000000000000000000006E
:10029000000000000000000000000000000000005E
:1002A000000000000000000000000000000000004E
:1002B000000000000000000000000000000000003E
:1002C000000000000000000000000000000000002E
:1002D000000000000000000000000000000000001E
:1002E000000000000000000000000000000000000E
:1002F00000000000000000000000000000000000FE
:1003000000000000000000000000000000000000ED
:1003100000000000000000000000000000000000DD
:1003200000000000000000000000000000000000CD
:1003300000000000000000000000000000000000BD
:1003400000000000000000000000000000000000AD
:10035000000000000000000000000000000000009D
:10036000000000000000000000000000000000008D
:10037000000000000000000000000000000000007D
:10038000000000000000000000000000000000006D
:10039000000000000000000000000000000000005D
:1003A000000000000000000000000000000000004D
:1003B000000000000000000000000000000000003D
:1003C0000348044B834202D0034B03B118477047E4
:1003D0009000002090000020000000000548064B1F
:1003E0001B1AD90F01EBA301491002D0034B03B133
:1003F0001847704790000020900000200000000087
:1004000010B5064C237843B9FFF7DAFF044B13B15C
:100410000448AFF300800123237010BD900000203A
:10042000000000007C6F000008B5054B1BB10549BA
:100430000548AFF30080BDE80840FFF7CFBF00BF1D
:1004400000000000940000207C6F0000A3F5803ABB
:10045000704700BF174B002B08BF134B9D46FFF79B
:10046000F5FF00218B460F461348144A121A05F077
:1004700051F90E4B002B00D098470D4B002B00D0AC
:1004800098470020002104000D000D48002802D0EC
:100490000C48AFF3008005F08BF92000290001F033
:1004A000B9F904F021FF00BF0000080000000000BF
:1004B0000000000000000420900000204C120020EA
:1004C000000000000000000000B583B001238DF89B
:1004D00007300DF107020921022003F087F820B947
:1004E0009DF807302BB9012000E0002003B05DF833
:1004F00004FB0020FAE7000038B50546002408E0B8
:100500000B4B03EB4402517813F8140001F027FA67
:100510000134092C0AD8002DF2D0054B03EB44021C
:10052000517813F8140001F015FAF1E738BD00BF57
:100530008467000008B5FFF7C7FF044B1B788342B0
:1005400003D0024B1870FFF7D7FF08BD0000002052
:1005500038B5FFF7B9FF044600F0E6FB0546FFF7A4
:10056000E9FF9CB90E4B1B787BB10E4B1B784BB946
:100570000D4B1868281A40F6B733984202D80B4B37
:1005800001221A70064B00221A7038BD044B01225A
:100590001A70044B00221A70034B1D60F5E700BF70
:1005A000B3000020B2000020AC000020B100002009
:1005B00010F4402F00D1704708B5FFF7C9FF08BD00
:1005C00008B50B4B1B7813B10A4B1B7803B108BD60
:1005D00000F0AAFB084B1B68C01A40F6B7339842DC
:1005E000F5D90123034A1370044A1370EFE700BFE3
:1005F000B3000020B2000020AC000020B0000020BA
:1006000030B589B002258DF808500A238DF80930DD
:1006100002A9284603F06AF801220921284603F0BE
:1006200033F80024009403231A460921284603F0D6
:1006300014F88DF80C5001238DF80D300D4B0493F8
:100640000594032306938DF81C4003A803F05EF87D
:10065000094BFF221A70094B1C70094B1C70094B87
:100660001C70094B1C70094B1C60FFF763FF09B03D
:1006700030BD00BFA906000000000020B30000202C
:10068000B2000020B1000020B0000020AC0000202B
:10069000044B1B7803F0FF001BB1024B00221A70C1
:1006A00001207047B100002008B5FFF781FF08BDA9
:1006B0002DE9F0410C46002940D000229046154615
:1006C00010E030F81230A3F50043DE1703FB06F606
:1006D000A3FB033101EB460113EB0803984641EB02
:1006E00005050132A242ECD32246002340462946AA
:1006F00004F082FC0A4606460F46A04575F1000547
:100700001FD3451C41F100086D0845EAC8754FEA42
:100710005808854278EB020211D22A4643463046F9
:10072000394604F069FC281848EB010143082846C3
:10073000424643EAC1754FEA5108EAE70846BDE878
:10074000F0810020FBE708B5012202F066FF08BD3A
:1007500008B5002202F061FF08BD0000014B012234
:100760001A707047B400002030B587B001AC1C4D42
:100770000FCD0FC42B6823601A4800F09DFE1A4865
:1007800000F09AFE194800F097FE00240CE006AB3A
:1007900003EB440313F8131C13F8140CFFF7D3FFF7
:1007A000C82001F0CDF80134092CF0D94FF4FA70CB
:1007B00001F0C6F800240CE006AB03EB440313F889
:1007C000131C13F8140CFFF7C3FF642001F0B8F8F2
:1007D0000134092CF0D9064800F06EFE07B030BD98
:1007E000106F000098670000C4670000E067000019
:1007F0000C68000030B585B0394800F05DFE39481E
:1008000000F05AFE384800F057FE384800F054FE19
:1008100000F05CF9002845D10446354800F04CFE54
:100820000125344800F048FE00F078FE00283FD152
:10083000314800F041FE0135EDB2304800F03CFE99
:1008400000F09CFB002839D12D4800F035FE013521
:10085000EDB22C4800F030FE4FF47A530093502351
:100860000193294B02934FF480630393684600F091
:1008700075FA48BB254800F01FFE0135EDB224484B
:1008800000F01AFE2B1922462946224800F01EFECF
:1008900004BB214800F010FE134800F00DFE204676
:1008A00005B030BD1D4800F007FE01240025B8E763
:1008B0001B4800F001FE0134E4B2BEE7194800F025
:1008C000FBFD0134E4B2C4E7174800F0F5FD013444
:1008D000E4B2D4E72146154800F0F8FDDCE700BF9C
:1008E0009867000028680000E06700004C6800007E
:1008F00074680000A0680000BC680000EC6800009C
:100900001069000040690000B80000206069000024
:1009100090690000BC690000E06900008468000084
:10092000D06800002469000074690000FC690000C0
:10093000F0B585B024220021524804F0EBFE524865
:1009400000F0BAFD00F0D6F8002842D14D4B01224C
:100950001A724E4A12681A604D4A12685A60002391
:10096000ADF80A30039303A90DF10A0000F038FE38
:10097000002832D1434B01221A74039ADA6000F046
:10098000A7FB70BB3F4B01221A76424A12885A825B
:10099000414A12889A82414A1288DA8200F02CFA7F
:1009A00038BB4FF47A7000F0CBFF00F041FA00F052
:1009B00053FA0146C8B1334C012384F82030B0F516
:1009C000806F28BF4FF480613548FFF771FEE0610A
:1009D00012E0344800F070FDC1E7334800F06CFDD0
:1009E000CDE7324800F068FDD8E7314800F064FDFB
:1009F00002E0304800F060FD224B1A682E4B83FB6A
:100A00000213D117C1EBA311002A2EDB4FF47A7029
:100A100000FB11221B4C6768274D85FB073CFB1729
:100A2000C3EBAC104FF47A7606FB10700090C3EB6A
:100A3000AC13224800F04AFDE268A5FB02318909A7
:100A400006FB11221E4800F041FDB4F91630B4F93E
:100A50001420B4F912101B4800F038FDE1691A485F
:100A600000F034FD204605B0F0BD5242124880FB34
:100A70000230D317C3EBA0134FF47A7000FB13229C
:100A8000C8E700BFB80800201C6A0000E408002086
:100A9000E00800202A09002028090020260900205B
:100AA000B8000020346A0000486A00005C6A000058
:100AB000706A00008C6A0000D34D6210A46A0000C6
:100AC000D46A0000F46A0000146B000008B50748FF
:100AD00000F000F943B223B9054B01221A70C0B2ED
:100AE00008BD034B00221A70F9E700BFE808002098
:100AF000DC08002008B5054B1B780BB9012008BDA8
:100B00000349044800F0CEF8C0B2F8E7DC08002042
:100B1000E0080020E40800200278407840EA022043
:100B20007047027843781B0443EA0263827843EA01
:100B30000223C0781843704700B58646FF204FF067
:100B4000000C10E04000C0B2013BDBB23BB142B24E
:100B5000002AF7DA520082F03102D0B2F4E70CF149
:100B6000010C1FFA8CFC8C4504D21EF80C30584046
:100B70000823EBE75DF804FB10B51446FFF7DCFF34
:100B8000A04201D1002010BD0120FCE708B500F013
:100B90003DF808BD2DE9F041570807EB470712F073
:100BA00001041CD10D46BFB23A4600F01FF8804642
:100BB000B8B92646BC4214D2A31CEA5C022128190B
:100BC000FFF7DAFF80B9731C9BB22A5DAA55023683
:100BD000B6B22A195278EA540334A4B2EAE74FF0C5
:100BE00004084046BDE8F0818046FAE700B583B0CE
:100BF0001346012200920A460146022003F038FA09
:100C0000003818BF012003B05DF804FB00B583B0C5
:100C10001346012200920A460146022003F054F9CD
:100C2000003818BF012003B05DF804FB08B500F0E0
:100C300087FE08BD45F2735303FB00F04013A0F597
:100C40002F40C838704743F6095303FB00F04013A8
:100C5000A0F5BB501038704770B582B005460C4601
:100C6000FD238DF80030012269464420FFF78EFFF6
:100C7000064610B1304602B070BD6420FFF7D6FFC3
:100C8000042269464420FFF785FF06460028F1D17B
:100C90006846FFF741FF28800DF10200FFF73CFF97
:100CA0002080E7E770B582B005460C4601A90DF13A
:100CB0000600FFF7D1FF064648B9BDF80600FFF76A
:100CC000B9FF2860BDF80400FFF7BDFF2060304683
:100CD00002B070BD30B583B0044689238DF8003072
:100CE000012269464420FFF751FF054610B128460E
:100CF00003B030BD4FF47A70FFF798FF04226946C5
:100D00004420FFF747FF05460028F0D16846FFF76B
:100D100008FF2060EBE70000024A1368013313600C
:100D2000704700BFF0080020014B1868704700BFF3
:100D3000F008002008B501220021084602F006FC58
:100D400030B907220021084602F0B0FB18B908BDEF
:100D50004FF0FF30FBE74FF0FF30F8E7002833D0CB
:100D600038B504460368002B31D04268642A31D874
:100D70008268002A31D0C268002A31D01D4A127818
:100D80008ABB013B4BF67F3293422FD8194D2C2260
:100D90000021284604F0BEFC23686B606368AB60EA
:100DA000A368EB60E3682B61FFF7C4FF38B9114B10
:100DB00000225A619A61DA6101221A7038BD042258
:100DC0002A704FF0FF30F9E76FF0010070476FF0C5
:100DD0000100F3E76FF00100F0E76FF00100EDE7CD
:100DE0006FF00100EAE76FF00300E7E76FF0010042
:100DF000E4E700BFF80800200B4B1B78012B01D063
:100E0000032B0ED1012B04D0074B02221A700020B5
:100E10007047054B00221A625A62044B01221A7075
:100E2000F2E74FF0FF307047F8080020F408002088
:100E300008B5084B1B78023BDBB2012B07D800201A
:100E400003F01EFE034B01221A70002008BD4FF074
:100E5000FF30FBE7F8080020014B586A704700BFDD
:100E6000F808002010B4A0F2A960154B9B6800FBA5
:100E700003F3144A82FB0302DB17C3EB62130B601C
:100E8000DB000B604A681A448868121AC2EB4212EF
:100E9000D2001446002A0DDB24124C608B600A4BF2
:100EA0009A420ADB47F6F870A042A8BF204600B27B
:100EB00010BC704702F1FF04EEE70448F7E700BFFB
:100EC000F80800201F85EB51010780FF0880FFFF15
:100ED00010B50F4C2146FFF7C5FF54F8083CE268F7
:100EE000A0F5004023F81200E3680133E36054F8F2
:100EF000041C8B4204D2074A536A0133536210BD6B
:100F0000A4F1140300221A62D868FFF727FCF2E765
:100F10000C090020F80800200E4B1B78022B00D093
:100F2000704710B582B0002003F076FD80B96424CC
:100F30002346013C63B100208DF800006A4601465B
:100F400003F0CEFD0028F3D1BDF80200FFF7C0FF8B
:100F500002B010BDF808002078B182B008E0019B13
:100F600001330193019BB3F5FA5FF8D3013810B157
:100F700000230193F6E702B07047704730B585B0A3
:100F800000258DF80F50012000F00FFA3220FFF7F6
:100F9000E3FF2C4604E00A20FFF7DEFF0134E4B251
:100FA000042C0AD80DF10F0000F052F90546002874
:100FB000F1D19DF80F30332BEDD115BB9DF80F10FB
:100FC0003C4B1970332921D1002000F0A0F90028F2
:100FD00067D10520FFF7C0FF002000F0CFF90028FF
:100FE00061D100F0B4F900285FD1032000F078F956
:100FF00000285CD15F238DF8073000248DF808406D
:101000001FE02D4800F058FA012003E02B4800F0C3
:101010005DFA022005B030BD2146294800F056FA9D
:101020000A20FFF799FF0AE023469DF808209DF863
:101030000710244800F04AFA0A20FFF78DFF013418
:10104000E4B2042C19D801220DF10701202000F090
:1010500037F90028E0D10220FFF77EFF012202A924
:10106000202000F0E5F80028DED19DF808209DF84A
:1010700007309A42D8D1012300E0002363B1142045
:10108000FFF76AFF062202A9292000F0D1F80E4BD3
:1010900001221A700020BDE70C4800F00DFA07206D
:1010A000B8E70320B6E70420B4E70520B2E706203E
:1010B000B0E700BF2C090020286B0000546B000033
:1010C000806B0000AC6B000024090020F06B000076
:1010D0002DE9F04184B000230293ADF80C308DF877
:1010E0000730414B1B78002B76D000252E462F462B
:1010F000A846032D40D8C82401220DF1070127205E
:1011000000F096F8002869D19DF8073013F0080F19
:1011100006D10120FFF720FF013CA4B2002CEBD147
:101120009DF8071011F0080F21D0062202A92920EE
:1011300000F07EF8002855D19DF808209DF8093070
:1011400043EA022308FA83F89DF80A209DF80B3041
:1011500043EA022307FA83F79DF80C209DF80D302F
:1011600043EA022306FA83F60135EDB2C1E71F48D0
:1011700000F0ACF9062032E0C8EB481308EB830816
:101180004346B8F1000F1BDB43F34F33184A13807B
:10119000C7EB471307EB83073B46002F14DB43F3F2
:1011A0004F33144A1380C6EB461306EB83063346CF
:1011B000002E0DDB43F34F330F4A138000200EE067
:1011C00008F5FF531F33DFE707F5FF531F33E6E74B
:1011D00006F5FF531F33EDE7012000E0052004B0C2
:1011E000BDE8F0810220FAE724090020106C00001D
:1011F0002A090020280900202609002000B585B012
:101200008DF80F20BDF818200192009301230DF1F5
:101210000F02D9400548007803F050F810B905B026
:101220005DF804FB4FF0FF30F9E700BF010000203C
:1012300000B583B00B46012A01D940F0800000922E
:10124000024633210120FFF7D9FF03B05DF804FB0C
:1012500008B5014601220F20FFF7EAFF08BD000094
:1012600010B594B09E46BDF8584000238DF80F305D
:10127000631C402B1BD849088DF81020002207E082
:10128000501C1EF802C051326A4402F840CC82B2AF
:10129000A242F5D3012201920DF10F02009204AA9D
:1012A0000648007803F00AF820B914B010BD4FF0DA
:1012B000FF30FAE74FF0FF30F7E700BF01000020F2
:1012C00000B583B00B46012A01D940F0800000929E
:1012D000024633210120FFF7C3FF03B05DF804FB92
:1012E00010B582B00446012201A91F20FFF7A0FF1C
:1012F00008B102B010BD9DF8043064F387138DF877
:101300000430012201A91F20FFF7DAFFF1E710B531
:1013100082B00446012201A92020FFF789FF009036
:10132000009B13B1009802B010BD9DF8043043F04B
:1013300008038DF80430DBB264F307138DF8043032
:10134000012201A92020FFF7BBFF0090EAE710B5BA
:1013500082B00446012201A92320FFF769FF08B1EA
:1013600002B010BD9DF8043064F305138DF804300D
:10137000012201A92320FFF7A3FFF1E710B582B0F6
:101380000446012201A92320FFF752FF08B102B051
:1013900010BD9DF8043064F3C7138DF804300122AA
:1013A00001A92320FFF78CFFF1E710B582B00446B6
:1013B000012201A92420FFF73BFF08B102B010BDB4
:1013C0009DF8043064F3C7138DF80430012201A99D
:1013D0002420FFF775FFF1E700B583B08DF8070013
:1013E000064B1B7813B903B05DF804FB01231A46C2
:1013F0000DF10701002000F0E7FFF4E72D090020C0
:1014000010B586B0214B1C7814B1204606B010BD33
:1014100003220F21022002F049F80028F5D103220F
:101420000E21022002F042F80028EED100F0B6FEB4
:101430000028EAD101238DF80C3003228DF80D200D
:101440008DF80E3003A900F0D5FE0028DDD14FF451
:10145000E133049303238DF8143004238DF8153001
:101460008DF816008DF8170004A900F0CFFE0028B3
:10147000CBD1009003460246014600F01BFF002836
:10148000C3D10124014B1C70BFE700BF2D09002010
:1014900070B110B50446074B1B7823B907E0C0B202
:1014A000FFF79AFF013494F900000028F7D110BD2E
:1014B000704700BF2D09002008B5FFF7E9FF02487B
:1014C000FFF7E6FF08BD00BF386C00000FB430B571
:1014D000ABB02E9A12B1104B1B7823B92BB0BDE8DC
:1014E000304004B070472FAB0193A02102A804F054
:1014F00003F9051EF2DD9F2D00DD9F25002408E085
:1015000004F1A8036B4413F9A00CC0B2FFF764FF09
:101510000134A542F4DCE1E72D09002082B000236C
:10152000019302E0019B01330193019A044B9A421B
:10153000F8D9044B01221A70002002B0704700BF96
:101540001FA1070036090020244B1B78002B3CD03C
:1015500010B586B00C46002939D002228DF804203F
:1015600000238DF805308DF806308DF809308DF8A0
:1015700008000A238DF80A3001A9104603F0D4FAB6
:1015800040BB022003F048FA30BB0023009302E086
:10159000009B01330093009A42F20F739A42F7D9ED
:1015A00000218DF8101004AA022003F099FA38B92E
:1015B000BDF812302380022003F062FA002007E019
:1015C000022003F05DFA042002E0012070470120B0
:1015D00006B010BD0220FBE70320F9E73609002022
:1015E00030B583B00023ADF80630134B1B78DBB168
:1015F00005460C46D8B1E1B10DF106011720FFF701
:10160000A3FF90B9BDF806302B804BB14FF47A128E
:10161000B2FBF3F2226009490B80094B1A6004E027
:1016200000232360052000E0012003B030BD01202D
:10163000FBE70120F9E700BF36090020340900204C
:101640003009002030B44FF080439A6A42F4FE42E1
:101650009A621A6B42F4FE421A63394A1523C2F8A1
:10166000F03F5123C2F8F03F002313614021116382
:101670009163D363536147F27771116031495160CF
:1016800031499160D36031490B610B634FF6306093
:101690008863CB634B612E480860072048602D4863
:1016A0008860CB6001F580714FF4007008610B63B6
:1016B0008B63CB634B612848086000F5DF2000F2A4
:1016C000D47048606FF4407088602448C86001F5A9
:1016D00080710B610B638B63CB634B614FF0773091
:1016E000086048604FF0FF348C60CB6001F580717A
:1016F0000B610B638B63CB634B61086048608C604C
:10170000CB6001F580710B610B6380258D63CB632A
:101710004B61134D0D6048606FF440458D60CB60A8
:1017200001F580710B610B638B63CB634B610860C8
:1017300048608C60CB60C2F8F03F30BC704700BF9F
:101740000000014111117077FF0FFFFC0001014102
:1017500077770011FFF00300333370778A02A80017
:101760007777770738B51B4B5A681B4B9A422DD0B9
:10177000184B5A68194B9A4226D0194D154B5B6885
:1017800003F47F03B3F5501F22D0154C154803F026
:101790006DFA2946144803F069FA2146134803F00C
:1017A00065FA4FF4164300221149124803F05EFA1D
:1017B000114B1968114803F059FA114803F056FA11
:1017C000104803F053FA38BD0F4DD7E70F4DD5E75A
:1017D0000F4CDBE700F00040A0443447A1443447FD
:1017E000846C0000986C0000CC6C0000DC6C000085
:1017F000F06C0000F86C0000100000201C6D000070
:101800003C6D0000606D0000606C00003C6C0000EE
:101810008C6C000008B5FFF715FF00F011F803F01D
:101820001DFAFFF79FFF00F00BFA00F081FA00F0BD
:10183000E1FA00F037FA00F001F9002008BD0000DD
:1018400030B585B002258DF80C5000248DF80D4080
:101850008DF80E401D4A6B4607CA03C31A7001215A
:10186000284601F0C5FB0121084601F0C1FB01211A
:10187000204601F0BDFB0121032001F0B9FB03A8C4
:1018800001F056FB6946012001F0E4FB04238DF8CA
:101890000C308DF80D408DF80E4003A801F048FB88
:1018A000204601F057FC22460F21284601F044FC57
:1018B0002146284601F09CFB2146204601F098FB7A
:1018C0002146032001F094FB05B030BD246F0000D9
:1018D00008B5164B1B681BB1144A1368013B136013
:1018E000FFF71AFAFEF76CFE114B1B7883B1114A11
:1018F000138801339BB21380B3F57A7F08D3134664
:1019000000221A800C4A13889BB201339BB21380C9
:101910000A4A1368013313600F2B00D808BD134621
:1019200000221A60FFF7F8FAF8E700BF400900202C
:10193000EC0800203C090020EE08002038090020B7
:10194000034B1860024B1B68002BFBD1704700BF94
:101950004009002008B5012201F05FFE08BD08B56E
:10196000002201F05AFE08BDF8B506460D4617469E
:1019700000240EE029463046FFF7ECFF6420FFF715
:10198000DFFF29463046FFF7EAFF6420FFF7D8FF64
:101990000134BC42EED3F8BD08B500220421012079
:1019A00001F084FD00220921012001F07FFD0022C9
:1019B0000721052001F07AFD00220521012001F018
:1019C00075FD00220A21012001F070FD00220B218B
:1019D000012001F06BFD00220C21012001F066FDC9
:1019E00000220D21012001F061FD00220E210120C5
:1019F00001F05CFD00220F21012001F057FD0022C3
:101A00000921022001F052FD01220621104601F0B9
:101A10004DFD01220721104601F048FD0122082159
:101A2000002001F043FD01220921002001F03EFDCC
:101A300000220C21104601F039FD08BD70B5424B63
:101A40001B68424AA2FB03239B09013BB3F1807F41
:101A50000AD24FF0E02253613D4BF02183F823106E
:101A60000023936107231361FFF796FFFEF7C8FD7C
:101A7000FFF7C6FC48B304210120FFF76BFF354890
:101A8000FFF71AFD3448FFF717FD344C2046FFF7E7
:101A900013FD3348FFF710FD3248FFF70DFD2046D8
:101AA000FFF70AFD3048FFF707FDFEF75DFEFEF782
:101AB000A1FE014678B94FF47A70FFF741FF2B4839
:101AC000FFF7FAFC0024254611E00522042101203D
:101AD000FFF74AFFD3E72648FFF7F8FCEBE7254876
:101AE000FFF7EAFC00246CB93220FFF729FFFEF76C
:101AF000CFFD0028F7D0002CF1D11F48FFF7DCFC08
:101B00000124F0E71D48FFF7D7FC6E1C29461C484E
:101B1000FFF7DCFC1B48FFF7CFFC01220C2110462D
:101B2000FFF722FFFEF704FFFEF7B2FD28B94FF4DE
:101B3000FA60FFF705FF3546D9E70E48FFF7BCFC12
:101B400035460024D3E700BF10000020D34D6210BB
:101B500000ED00E0946D00009C6D0000C06D000081
:101B6000E46D0000086E00002C6E0000786E00002E
:101B7000546E0000BC6E0000A86E00009867000064
:101B8000D06E0000E06E000000B589B00020069025
:101B90008DF81C0002238DF81B30039004908DF803
:101BA000140001238DF8143002F030FE10B109B09A
:101BB0005DF804FB06A902F045FE0028F7D103A951
:101BC00002F058FE0028F2D1032300930023034AB9
:101BD0001946184602F092FEE9E700BF4D1C0000CE
:101BE00000B589B0002306938DF81C3002208DF8D3
:101BF0001B00039304938DF8143001238DF80C30EF
:101C00008DF8143002F002FE10B109B05DF804FB4B
:101C100006A9022002F016FE0028F6D103A9022030
:101C200002F028FE0028F0D1032300930023034A8A
:101C30001946022002F062FEE7E700BF4F1C0000D9
:101C400008B5FFF7A1FFFFF7CBFF08BD704770474E
:101C500000B587B0002302930393049305930F4BC1
:101C6000049301238DF814303223ADF8163002208E
:101C700002F03CF810B107B05DF804FB02A90220A5
:101C800002F04CF80028F6D1032300930023044A05
:101C90001946022002F08EF8EDE700BFA086010091
:101CA000AD1C000008B5FFF7D3FF08BD704700006A
:101CB00000B589B01C4B93E803000690ADF81C10EA
:101CC000002003900490ADF8140001238DF80F302C
:101CD0008DF81030ADF812304FF47A73ADF814303F
:101CE00000F028FE10B109B05DF804FB06A900F071
:101CF00041FE0028F7D103A900F06EFE0028F2D1C2
:101D000000900346094A012100F0DCFE0028EAD1D8
:101D10000021084600F04EFF0028E4D100210846CB
:101D200000F059FFDFE700BF306F0000391D0000F1
:101D300008B5FFF7BDFF08BD7047000000B587B0CC
:101D4000134B53F8042BADF81420120C8DF8162009
:101D500003AA93E8030082E80300022000F01EFAC1
:101D600010B107B05DF804FB05A9022000F042FAAB
:101D70000028F6D103A9022000F048FA0028F0D18B
:101D800000230093034A0121022000F093FAE8E7C0
:101D9000386F0000031E000000B587B0134B53F8E6
:101DA000042BADF81420120C8DF8162003AA93E82A
:101DB000030082E80300012000F0F0F910B107B041
:101DC0005DF804FB05A9012000F014FA0028F6D103
:101DD00003A9012000F01AFA0028F0D10023009393
:101DE000034A0121084600F065FAE8E7386F000071
:101DF000011E000008B5FFF7A1FFFFF7CDFF08BDEA
:101E000070477047002807DB00F01F0240090123DC
:101E10009340024A42F82030704700BF00E100E0E2
:101E200000280CDB00F01F02400901239340203002
:101E3000034A42F82030BFF34F8FBFF36F8F7047D4
:101E400000E100E0002808DB0901C9B200F16040B0
:101E500000F5614080F80013704700F00F000901A1
:101E6000C9B2014B1954704714ED00E00C284CD84E
:101E700000B5072828D94FF0804EDEF8282100F061
:101E8000070308334FF0010C0CFA03FC22EA0C02A2
:101E900001FA03F31343CEF82831072826D94FF06F
:101EA000804CDCF8303100F007000830012282401D
:101EB00023EA020301FA00F00343CCF8303139BBC6
:101EC0000020154B186024E04FF0804EDEF82C30D7
:101ED00000F108024FF0010C0CFA02FC23EA0C039B
:101EE00001FA02F21343CEF82C30D6E74FF0804CC3
:101EF000DCF8343008300122824023EA020301FA80
:101F000000F00343CCF83430D9E76FF0010070479C
:101F100000205DF804FB00BF800B00200C2808D8CF
:101F2000DFE800F0220A0C0E10121416181A1C1EFC
:101F300020006FF01000704740207047412070472C
:101F40004220704743207047442070476C20704700
:101F50006D2070476E2070476F207047702070476B
:101F600071207047722070473F2070470C284FD86F
:101F7000052947D8DFE801F003202830373E264BFB
:101F800093FBF2F32548036000204FF08043D3F821
:101F9000A83023F0E063002937D109060B434FF046
:101FA0008041C1F8A830D1F8A83023F47F0343EA78
:101FB0000242C1F8A82070474FF4004393FBF2F3AC
:101FC000164803600020E0E7154B1B68B3FBF2F3F3
:101FD000124803600020D8E7124B93FBF2F30F483E
:101FE00003600020D1E7104B93FBF2F30B48036032
:101FF0000020CAE70A4B1B68B3FBF2F307480360F3
:102000000020C2E76FF00500BFE702310906C5E70F
:102010006FF00100704700BF20A10700800B002077
:10202000100000200024F40000093D0000F58000AD
:1020300080300002704708B5FFF718FF08BD0000A8
:1020400070B582B0002300930C2861D80446FFF7D6
:10205000EDFF83680193019B03F00603062B21D05B
:10206000019B13F0040F55D1019B13F0020F03D114
:10207000019B13F0100F3CD03C4B2C2202FB04338D
:1020800099691A6A914262D0036823F0FF033749C5
:102090002C2505FB04110D69561C0E62AA5C134326
:1020A000036026E0009B43F004030093436913F0B0
:1020B000100F03D0009B43F008030093436913F013
:1020C000080F03D0009B43F010030093436913F003
:1020D000040F03D0009B43F020030093436913F0E7
:1020E000020F03D0009B43F04003009303680023DA
:1020F00043601E4B2C2202FB04335B6843B1009A01
:1021000032B10098194A2C2101FB042291689847AA
:1021100002B070BD0568154B2C2202FB04335969CF
:102120005A6A561C5E628D54DA695B6A9A42E0D143
:10213000436823F0010343600C4B2C2202FB043361
:1021400000225A73009B43F002030093D1E7074B30
:102150002C2202FB043300221A73436823F002038B
:102160004360009B43F001030093C2E74409002051
:1021700010B5002400E001340C2C0BDC064B2C22A3
:1021800002FB043393F82830002BF4D0E0B2FFF7C1
:1021900057FFF0E710BD00BF4409002038B50C28F8
:1021A00022D804460121FFF746FF0546D0B9204654
:1021B000FFF73CFF03462C220D4802FB040000E021
:1021C0001A685A6912F0010FFAD15A6912F0200FF9
:1021D000FBD000215960D96019615A699B682C2293
:1021E00003F098FA284638BD6FF00105FAE700BF02
:1021F000440900200C2805D808B58A784978FFF7EB
:10220000B5FE08BD6FF00100704700000C2843D8F0
:1022100010B50C46FFF70AFF2279032A3FD8C3689E
:1022200023F003031343C3606379042B3AD80AD025
:10223000C36843F00803C360C36823F010036279E6
:1022400043EA0213C360A279012A2ED8C36823F09F
:10225000040343EA8203C360E279436823F0040382
:1022600043EA82034360124B1B6822681201B3FBEE
:10227000F2F102FB11331B02B3FBF2F3026A6FF3BC
:102280000F0289B20A430262426A22F0FF02DBB205
:1022900013434362002010BD6FF0010070476FF0E0
:1022A0000500F8E76FF00500F5E76FF00500F2E7CD
:1022B000800B00200C287ED82DE9F04104460E4604
:1022C00090461F46FFF72AFE0546012E1BD073B22B
:1022D000002B4DD0F31EDBB2012B49D801233A4627
:1022E000364902F055F930B9354B2C2202FB043344
:1022F000C3F804809F60324B2C2202FB043301227E
:1023000083F8282020E02E4B2C2202FB043393F884
:10231000283003BB2A4B2C2202FB0433C3F8048071
:102320009F60002D08DB05F01F016B0901228A4028
:102330006033244941F8232006992846FFF782FD9F
:102340002846FFF75FFD00202C2303FB04F41C4B01
:102350001E55BDE8F08100231A46194602F018F90F
:10236000174B2C2202FB0433002283F82820D1E7EC
:1023700000231A461946284602F00AF9104B2C226F
:1023800002FB0433002283F82820954208DB05F085
:102390001F016B0901228A4060330A4941F823205A
:1023A0002846FFF73DFD064B2C2202FB043300209C
:1023B00058609860C8E76FF0010070477121000015
:1023C0004409002000E100E00C2856D82DE9F8432C
:1023D00004460F4690469946FFF728FE2A4B2C22CA
:1023E00002FB04331B7B012B4AD0274B154604FB11
:1023F00005F55E19012232733761C6F81880002294
:1024000032625B5D4BB3B9F1000F26D1436913F023
:10241000200F0BD0036823F0FF031B4A2C2101FB84
:102420000422012111623A7813430360436843F0A8
:102430000203436000201EE0036823F0FF03124AFA
:102440002C2505FB042215694E1C16626A5C134399
:102450000360436913F0200FFBD00B4B2C2202FBCF
:1024600004339A69196A8A42E6D8074B2C2202FB88
:10247000043300201873BDE8F8836FF00100704743
:102480006FF00200F7E700BF440900202DE9F84390
:102490000C2879D80546884617469946FFF7C6FDA9
:1024A00004463C4B2C2202FB05335B7B022B6ED097
:1024B000384B104605FB00F01E1802227273C6F856
:1024C0001480F761002272621F5C17B1B9F1000F2E
:1024D00053D02846FFF722FD0646002F33D0FFF7E2
:1024E0009FFC30E0013B626912F0010F15D1002B17
:1024F000F8D1284B2C2202FB053300225A736FF0CF
:102500000304244B2C2202FB05F55A1900215173B8
:102510005B5D73BB2046BDE8F883002BE9D06069A2
:1025200063699B08626943EAD00343EA520313F0EC
:10253000010F13D12068174B2C2202FB05335A6977
:102540004F1C5F625054134B2C2202FB0533DA6997
:10255000596A8A420BD942F21073C4E70D4B2C2200
:1025600002FB053300225A736FF00804C9E7002408
:10257000C7E73046FFF746FCCCE72368636843F0C3
:10258000010363600024C5E76FF00104C2E76FF048
:102590000204BFE7440900200C2813D810B50446F4
:1025A000FFF744FDC36843F04003C360C36823F0F2
:1025B0004003C360054B2C2202FB04330020187338
:1025C000587310BD6FF00100704700BF4409002030
:1025D00008B50020FFF734FD08BD08B50120FFF75E
:1025E0002FFD08BD08B50220FFF72AFD08BD08B57C
:1025F0000320FFF725FD08BD08B50420FFF720FDE7
:1026000008BD08B50520FFF71BFD08BD08B506206D
:10261000FFF716FD08BD08B50720FFF711FD08BD3F
:1026200008B50820FFF70CFD08BD08B50920FFF725
:1026300007FD08BD08B50A20FFF702FD08BD08B573
:102640000B20FFF7FDFC08BD08B50C20FFF7F8FCD8
:1026500008BD0000002807DB00F01F02400901232D
:102660009340024A42F82030704700BF00E100E08A
:1026700000280CDB00F01F024009012393402030AA
:10268000034A42F82030BFF34F8FBFF36F8F70477C
:1026900000E100E0002808DB0901C9B200F1604058
:1026A00000F5614080F80013704700F00F00090149
:1026B000C9B2014B1954704714ED00E0092813D832
:1026C0004FF08042936A10304FF0010C0CFA00FC7E
:1026D00023EA0C0381400B439362136B23EA0C0340
:1026E00019431163002070476FF0010070470928FB
:1026F00006D8DFE800F01A080A0C0E10121416189B
:102700006FF01000704710207047112070471220A2
:10271000704713207047142070471520704716200B
:10272000704717207047182070470F207047032804
:1027300009D8DFE800F00206040A002070470220F2
:1027400070470320704704207047012070470246FD
:10275000806910F0040000D00220936913F0020F8A
:1027600001D040F00400936913F0010F01D040F054
:102770000800704710B40C6824F0700444F0400462
:102780000C60052A3AD8DFE802F00A0A07050309B7
:10279000062204E0052202E0042200E007224FF0B6
:1027A0008041D1F8981004281ED96FF0E0642140D0
:1027B00004281CD91824A2400A434FF08041C1F8D4
:1027C0009820D1F89820042813D96FF47F010A408B
:1027D000042811D910218B4013434FF08042C2F8D6
:1027E0009830002010BC70476FF4E064DFE70824E5
:1027F000E1E76FF0FF01EAE70021ECE76FF0050089
:10280000F0E7032A03D8DFE802F0060606060022F6
:102810006FF0050000E000200B6823F0700343EA2E
:1028200002130B60704700F18070C0308001704768
:1028300008B5FFF743FF08BD38B50546FFF7F3FFBE
:102840000446FFF784FF034610F0030017D02E4A1A
:1028500002EB0512127B032A03D8DFE802F00F0D0A
:102860000F0400200BE0284A02EB0512527B12F005
:10287000020F11D1002002E0082000E0012013F037
:10288000040F1BD0204A02EB0512127B032A15D835
:10289000DFE802F0041104070220F0E740F0010035
:1028A0000DE0194A02EB0512527B12F0020F05D01F
:1028B00040F0040003E040F0100000E078B1A269AD
:1028C00042F00402A261A26942F00202A261A2697E
:1028D00042F00402A261A26942F00202A26113F076
:1028E000080F05D040F02000A36943F00103A36165
:1028F000054B03EB05135B682BB120B1024A02EBD9
:1029000005129168984738BD840B002010B500244B
:1029100000E00134092C09DC054B03EB04139B7B1D
:10292000002BF6D0E0B2FFF787FFF2E710BD00BF43
:10293000840B002038B5092816D804460121FFF77A
:1029400077FF054608B1284638BD2046FFF76BFFE4
:102950002101074A02EB0414002353506360A36073
:10296000E36003604360EEE76FF00105EBE700BF53
:10297000840B0020092829D870B505460C468B88A1
:10298000B3F5806F25D2FFF74EFF06462378012B63
:102990000CD0022B10D0B3B9A37862780146284638
:1029A000FFF7E8FE0020A388B36070BD036843F022
:1029B000700303600020F6E7627801462846FFF7BF
:1029C00020FF0020EFE76FF00500ECE76FF001005B
:1029D00070476FF00500E8E7092868D8F8B50646A3
:1029E0000D460F78032F65D8FFF71DFF04463846C4
:1029F000FFF79DFE236823F00303C0B21843206055
:102A00006A78236823F0800343EAC2132360EB78DB
:102A100073B12B78032B50D8DFE803F0022F02228A
:102A2000E36943F00403E361E36943F00203E36114
:102A30002A78234B03EB06131A732B791BB1E36936
:102A400043F00103E3612B78032B26D0EB88E3608E
:102A50002B892361636843F0020363600020F8BDA3
:102A6000E36943F00403E361E36943F00203E361D4
:102A7000236843F400632360DAE7E36943F0040367
:102A8000E361E36943F00203E361236823F00C038D
:102A9000AA7843EA82032360CAE7EB88E3602B89C4
:102AA0002361074B03EB061306225A73D2E76FF03C
:102AB000010070476FF00500D1E76FF00500CEE729
:102AC000840B002009286BD82DE9F04104460E46FE
:102AD00090461F46FFF70BFE0546012E20D0022E22
:102AE0004CD000231A46194601F052FD2E4B03EB41
:102AF000041300229A73954208DB05F01F016B094D
:102B000001228A406033294941F823202846FFF7F3
:102B1000AFFD254B03EB04130020986058601DE0C7
:102B2000214B03EB04139B7BEBB91F4B03EB04130B
:102B3000C3F804809F60002D08DB05F01F016B09BE
:102B400001228A406033194941F82320069928461A
:102B5000FFF7A0FD2846FFF77DFD00202401124B62
:102B60001E55BDE8F08100231A46194601F010FDFC
:102B70000D4B03EB041300229A73D6E701233A4668
:102B80000B4901F005FD28B9074B03EB0413C3F80B
:102B900004809F60044B03EB041301229A73DDE76A
:102BA0006FF00100704700BF840B002000E100E0DF
:102BB0000D29000009280BD810B50C46FFF733FE8D
:102BC000036823F4006343EAC4230360002010BDBC
:102BD0006FF00100704709280BD810B50C46FFF7BD
:102BE00022FE036823F4805343EA04330360002089
:102BF00010BD6FF00100704708B50020FFF71CFE04
:102C000008BD08B50120FFF717FE08BD08B5022072
:102C1000FFF712FE08BD08B50320FFF70DFE08BD43
:102C200008B50420FFF708FE08BD08B50520FFF72A
:102C300003FE08BD08B50620FFF7FEFD08BD08B578
:102C40000720FFF7F9FD08BD08B50820FFF7F4FDE0
:102C500008BD08B50920FFF7EFFD08BD104B9842ED
:102C60000DD9104B984213D90F4B984212D90F4BE4
:102C7000984211D90E4B984210D8042100E000214F
:102C80004FF08242136823F00F030B431360704729
:102C90000121F5E70221F3E70321F1E70521EFE741
:102CA000408AF7018014EF0300E1F505406BED0762
:102CB00080F5E40904285FD8DFE800F02533414FB0
:102CC00003004FF0070C00204FF08043596C21F0B7
:102CD000706141EA02625A64596CC1F30241294AA7
:102CE0001268CA4028490A604FF082410A6822F0FF
:102CF0000F0242F005020A605A6C22F0070242EA13
:102D00000C025A6470474FF080410B6C43F0020391
:102D10000B641E4B13411B490B604FF0060C002047
:102D2000D2E74FF080410B6C43F008030B64184B63
:102D3000134114490B604FF0020C0020C4E74FF020
:102D400080410B6C43F020030B64124B13410D497F
:102D50000B604FF0000C6046B6E74FF080410B6C03
:102D600043F080030B644FF40043134105490B60AB
:102D70004FF0010C0020A7E74FF0000C6FF00500AA
:102D8000A2E700BF100000200C00002000093D0059
:102D90000024F40020A107000F292ED84FF0804214
:102DA000136D23F00F0301F00F010B431365072888
:102DB0001CD8DFE800F015121F07181B1B040421A4
:102DC000002001E0012100204FF08042136D23F02C
:102DD000E00343EA41131365704705210020F3E740
:102DE00006210020F0E707210020EDE700216FF029
:102DF0000500E9E700210846E6E76FF005007047A7
:102E00004FF0804CDCF8443023F4407343EA012354
:102E1000CCF84430032925D8DFE801F0021412165B
:102E2000012398B1012820D14FF08040016C41F07E
:102E3000020101640E49B1FBF3F3136000207047F7
:102E40000423EEE70223ECE70823EAE74FF0804093
:102E5000016C41F0080101640649B1FBF3F3136012
:102E6000002070476FF0050070476FF00500704755
:102E700000093D000024F40082B00C4B1B680C4A92
:102E8000A2FB0312920C0B498B4200D8012200FBDB
:102E900002F20023019303E000BF019B0133019381
:102EA000019B9342F8D302B0704700BF100000208E
:102EB00083DE1B433F420F0010B5034601280FD0AD
:102EC00002281AD030BB4FF08042906C10F02000E6
:102ED00021D01146926C42F020028A6401201AE04F
:102EE0004FF08042906C10F0020014D01146926CAA
:102EF00042F002028A6402200DE04FF08042906CA2
:102F000010F4007007D01146926C42F400728A648B
:102F1000042000E0002003EB4302044951F8224062
:102F20001CB101EB82035968A04710BD240C00209E
:102F300038B50378042B43D0002B46D000214FF046
:102F40008042536C23F4805343EA01335364827804
:102F500041780078FFF7AEFE054678BB1C4B1C6835
:102F6000E30E6101091B63F100039B0043EA9173C7
:102F70008900091943F100034FEAC30C154A0023E5
:102F8000C8004CEA517102F037F8134BA3FB003034
:102F90008008124B1860124BA3FB0423DB0C114A70
:102FA0001360114B9C4202D8134601221A60C820BC
:102FB00002F014F8064B1868FFF750FE284638BD9B
:102FC0000A4B1A68024B1A60C1E70121B7E700BF3C
:102FD0001000002040420F00ABAAAAAA080000205F
:102FE000819F5E16040000207F8D5B00480C00204E
:102FF00003282BD8DFE800F0020C16204FF08042A7
:10300000136C23F0020343EA41031364002070476A
:103010004FF08042136C23F0080343EAC1031364AA
:10302000002070474FF08042136C23F0200343EAE6
:1030300041131364002070474FF08042136C23F05B
:10304000800343EAC1131364002070476FF005004A
:103050007047000030B583B00023019348B94FF0AA
:103060008042136E23F4800313660025284603B0C4
:1030700030BD0C4605464FF08042136E43F480038A
:1030800013660220FFF7F8FE2378012B00D00025FD
:103090004FF08042536C23F4805343EA053353646A
:1030A00001AA61782078FFF7ABFE05460028DDD144
:1030B000A37803F00F0343F48003E27843EA02238A
:1030C0006279120402F47022134343F40013A279CC
:1030D000920602F040621343E279120602F0407257
:1030E00013434FF0804213664FF4FA70FFF7C4FEAB
:1030F0000F4B1B684FF4FA7202FB03F34FF0804250
:10310000126E002A04DB0BB1013BF7E76FF00305F9
:10311000002DABD16279A378013302FB0332019B0E
:10312000B3FBF2F3E27802FB0333024A13609DE73C
:1031300004000020480C002010B51446FFF72CFEB8
:1031400038B94FF080410B6D23F0100343EA0413AC
:103150000B6510BD04280ED84FF08042536C23F449
:10316000E02343EA00435364044B1B68C340044A12
:103170001360002070476FF00500704710000020BA
:103180000C00002008B50020FFF796FE08BD08B52A
:103190000120FFF791FE08BD08B50220FFF78CFE65
:1031A00008BD0000002807DB00F01F0240090123D2
:1031B0009340024A42F82030704700BF00E100E02F
:1031C00000280CDB00F01F0240090123934020304F
:1031D000034A42F82030BFF34F8FBFF36F8F704721
:1031E00000E100E0002808DB0901C9B200F16040FD
:1031F00000F5614080F80013704700F00F000901EE
:10320000C9B2014B1954704714ED00E0062805D8E7
:10321000DFE800F01307090B0D0F11006FF010002D
:1032200070472520704726207047272070472820A8
:103230007047292070472A207047242070470328B0
:103240001CD8022839D2012853D84FF08043D3F834
:103250009C3023F0E06301292DD9023109060B438C
:103260004FF08041C1F89C30D1F89C3023F47F03AB
:1032700043EA0243C1F89C30002070470438C0B2D2
:10328000022839D84FF08043D3F8A03023F0E06310
:1032900001292CD9023109060B434FF08041C1F8B6
:1032A000A030D1F8A03023F47F0343EA0243C1F8F1
:1032B000A030002070470906D1E74FF08043D3F8D3
:1032C000A03023F4E06301290FD9023109020B4336
:1032D0004FF08041C1F8A030D1F8A03023F0FF03B7
:1032E0001343C1F8A030002070470902EFE7090638
:1032F000D2E76FF0050070476FF0050070470000DF
:1033000030B400F5820000F580700002154CD4F84E
:10331000F05F25F0FF0545F01505C4F8F05FD4F81F
:10332000F05F25F0FF0545F05105C4F8F05F856AB0
:1033300049004FF0030C0CFA01FC25EA0C058B4008
:103340001D438562036A23EA0C038A401343036228
:10335000D4F8F03F23F0FF03C4F8F03F002030BC66
:10336000704700BF00000141062801D800207047C7
:103370006FF005007047000010B584461046114BF1
:10338000D3F8F04F24F0FF0444F01504C3F8F04FD5
:10339000D3F8F04F24F0FF0444F05104C3F8F04F89
:1033A0004A62D3F8F02F22F0FF02C3F8F02F064B49
:1033B00003EB0C135A6822B1034B03EB0C1399680F
:1033C000904710BD000001414C0C002010B50024B6
:1033D00000E00134062C12DC094B03EB04131B7BC9
:1033E000002BF6D0E1B2090201F1824101F58031F2
:1033F0004A6A002AEDD0E0B2FFF7BEFFE9E710BD50
:103400004C0C002008B5044B5A6A02B908BD194695
:103410000020FFF7B1FFF9E70000014108B5044BB8
:103420005A6A02B908BD19460120FFF7A5FFF9E75E
:103430000001014108B5044B5A6A02B908BD19469A
:103440000220FFF799FFF9E70002014108B5044B9C
:103450005A6A02B908BD19460320FFF78DFFF9E744
:103460000003014108B5044B5A6A02B908BD194668
:103470000420FFF781FFF9E70004014108B5044B80
:103480005A6A02B908BD19460520FFF775FFF9E72A
:103490000005014108B5044B5A6A02B908BD194636
:1034A0000620FFF769FFF9E70006014170B5044601
:1034B0000D461646FFF758FF002841D1014604F596
:1034C000820303F580731B021F48D0F8F02F22F00F
:1034D000FF0242F01502C0F8F02FD0F8F02F22F0D2
:1034E000FF0242F05102C0F8F02F072D17D81A68DA
:1034F000AD000F20A84022EA0002042E0DD846F0AD
:103500000806AE4032431A600F4AD2F8F03F23F06B
:10351000FF03C2F8F03F084670BD0F26F1E75A6876
:10352000083DAD000F20A84022EA0002042E05D875
:1035300046F00806AE4032435A60E5E70F26F9E749
:103540006FF00101E7E700BF0000014170B50446DC
:103550000E461546FFF708FF002842D104F5820306
:1035600003F580731B022049D1F8F02F22F0FF02EF
:1035700042F01502C1F8F02FD1F8F02F22F0FF022F
:1035800042F05102C1F8F02F012D21D010D83DB9E1
:103590009A6876000321B14022EA01020A439A6048
:1035A000114AD2F8F03F23F0FF03C2F8F03F70BD9C
:1035B000AA1ED2B2012AF3D89A6876000321B1403C
:1035C00022EA010205F00105B5402A439A60E7E7C7
:1035D0009A6876000321B14022EA01020A439A6008
:1035E000DEE76FF00100E2E70000014170B504463C
:1035F0000D461646FFF7B8FE60B904F5820303F5E1
:1036000080731B025B6B0122AA40134023FA05F171
:10361000317070BD6FF00100FBE770B504460E46D7
:103620001546FFF7A1FEA8B904F5820303F58073E0
:103630001B023DB99A6B0121B14022EA01020A4303
:103640009A6370BDDA6B0121B14022EA01020A439C
:10365000DA63F6E76FF00100F3E7F0B583B00746F1
:103660000C4615461E46FFF77FFE50B99DF82030E8
:10367000009333462A4621463846FFF741FE03B001
:10368000F0BD6FF00100FAE770B504460E4615462E
:10369000FFF76AFE20BB04F5820303F580731B026B
:1036A000114CD4F8F02F22F0FF0242F01502C4F8BA
:1036B000F02FD4F8F02F22F0FF0242F05102C4F8AC
:1036C000F02F1A690121B14022EA0102B5402A43D4
:1036D0001A61D4F8F03F23F0FF03C4F8F03F70BD47
:1036E0006FF00100FBE700BF0000014138B505465F
:1036F0000C46FFF739FE28B9627821782846FFF793
:103700009EFD38BD6FF00100FBE7000070B5044678
:1037100006783046FFF77AFD05466378012B20D006
:10372000022B4DD000231A46194600F031FF2E4BD4
:1037300003EB061300221A73954208DB05F01F0104
:103740006B0901228A406033284941F8232028462A
:10375000FFF736FD244B03EB0613002098605860FA
:103760001EE0214B03EB06131B7BF3B962681E4B73
:1037700003EB06135A60A2689A60002D08DB05F07F
:103780001F016B0901228A406033184941F8232048
:10379000E1682846FFF726FD2846FFF703FD0020D5
:1037A00061783301104AD15470BD00231A4619467E
:1037B00000F0EEFE0C4B03EB061300221A73D5E764
:1037C0000123A2680A4900F0E3FE30B96268064BA3
:1037D00003EB06135A60A2689A60034B03EB0613CF
:1037E00001221A73DCE700BF4C0C002000E100E06E
:1037F000CD33000008B5FFF705FE08BD08B5FFF79B
:103800000DFE08BD08B5FFF715FE08BD08B5FFF7AA
:103810001DFE08BD08B5FFF725FE08BD08B5FFF77A
:103820002DFE08BD08B5FFF735FE08BD002807DBF3
:1038300000F01F02400901239340024A42F8203061
:10384000704700BF00E100E000280CDB00F01F0221
:103850004009012393402030034A42F82030BFF34F
:103860004F8FBFF36F8F704700E100E0002808DB47
:103870000901C9B200F1604000F5614080F8001311
:10388000704700F00F000901C9B2014B195470478D
:1038900014ED00E0032813D84FF08042D36A0430BF
:1038A0004FF0010C0CFA00FC23EA0C0381400B439F
:1038B000D362536B23EA0C03194351630020704712
:1038C0006FF001007047032803D8DFE800F00B0514
:1038D00007096FF0100070473D2070473E20704789
:1038E000642070473C20704700F58000A030000243
:1038F000704708B5FFF7CEFF08BD0000064B4269D0
:1039000012F0800F02D11BB1013BF8E780687047CD
:103910004FF0FF30704700BF80841E00436943F0C2
:1039200002034361064B426912F0800F02D10BB1D2
:10393000013BF8E7436923F002034361704700BF8E
:1039400080841E00094B1B680D2B0ED810B4090291
:1039500041EA0262C0B205490B685C1C0C6002437C
:10396000034941F8232010BC70477047BC0C00206D
:10397000C00C002070B582B000230093032800F231
:103980008F810446FFF7B0FF054683680193019BD2
:10399000472B3CD8152B38D3153B322B00F25D81D9
:1039A000DFE813F0DC005B0173005B015B015B018E
:1039B0005B015B015B015B015B01FE005B0155008C
:1039C0005B015B015B015B015B015B015B015B0117
:1039D0005B015B015B015B015B015B015B015B0107
:1039E0005B015B015B015B015B015B015B015B01F7
:1039F0005B015B015B015B015B015B015B015B01E7
:103A00005B011C011C01A700A700002326E1972BE6
:103A100000F24881852B18D3853B122B00F21B81C5
:103A2000DFE813F08100FC004D00190119011901B4
:103A300019011901190119011901190119011901B6
:103A400019011901AD0019016700002306E19B4B24
:103A50002C2202FB04331A6A9B699A42C0F024812B
:103A6000964B2C2202FB04335B7B002B00F0F6808C
:103A7000009B43F001030093904A2C2303FB042294
:103A80000023136293615373E8E08C4B2C2202FBFA
:103A900004331B7B002B40F0CE80884B02FB0433A9
:103AA0001A6A9B699A42C0F0C680436943F00203D8
:103AB0004361436923F0080343610023CEE07F4B59
:103AC0002C2202FB04331B7B002B40F0B4807B4B89
:103AD00002FB04331A6A9B699A42C0F0AC806B699E
:103AE00043F002036B616B6923F008036B610023F1
:103AF000B4E0724B2C2202FB04331B7B002B40F002
:103B00009A806E4B02FB04331A6A9B699A42C0F09A
:103B100092806B6943F002036B616B6923F00803C9
:103B20006B6100239AE0654B2C2202FB04331B7B64
:103B3000002B40F0BB80614B02FB0433012283F871
:103B400028205A6A0132DB699A4201D0002385E0BD
:103B50006B6923F008036B6100237FE0574B2C2235
:103B600002FB04331B7B012B01D0002376E0534B77
:103B700002FB0433012283F8282000236EE04F4B20
:103B80002C2202FB04331B7B012B01D0002365E0B8
:103B90004A4A2C2303FB0422012382F828305DE0EB
:103BA000464B2C2202FB04335A6ADB699A427FD3CC
:103BB000424B2C2202FB043393F82830002B4DD0CB
:103BC000009B43F0020300933C4A2C2303FB042296
:103BD00000235362937382F828303FE0374B2C2246
:103BE00002FB04331B7B002B64D1344B02FB0433F8
:103BF0005A6A511CDB69013B994203D09A4207D0B3
:103C000001232BE0436923F008034361012325E0EE
:103C1000436943F00203436101231FE0274B2C2239
:103C200002FB04331B7B002B46D16B6943F001037D
:103C30006B61002312E02B6823F0FF031F4A2C2145
:103C400001FB04221069116A4E1C1662425C134388
:103C50002B60002302E0002300E000237BB1174B20
:103C60002C2202FB043393F8283043B12868134B0D
:103C700002FB043359695A6A561C5E6288540F4B22
:103C80002C2202FB04335B6843B1009A32B10098E6
:103C90000A4A2C2101FB0422916898477923AB60E2
:103CA00002B070BD0023D9E70023D7E70023D5E792
:103CB0000023D3E70123D1E70023CFE7000D002045
:103CC00010B5002400E00134032C0BDC064B2C2241
:103CD00002FB043393F82930002BF4D0E0B2FFF755
:103CE00049FEF0E710BD00BF000D002038B50328E5
:103CF0000FD804460121FFF7FCFD054608B1284610
:103D000038BD2C220021044802FB040001F002FD12
:103D1000F5E76FF00105F2E7000D0020032841D818
:103D200038B505460C46FFF7DFFD034621781F4AEC
:103D30002C2000FB05221173DA6822F0FE02617864
:103D400042EA4102DA60DA6822F00102A1780A430D
:103D5000DA60A168E9B1164A1268B2FBF1F2C2F367
:103D60004F02901E80B2033A92B299696FF30F012D
:103D700001439961D9696FF30F010A43DA61227B2C
:103D800052B11A6A6FF30E02E1890A431A620020E7
:103D900038BD20896289E8E71A6A6FF30E021A6259
:103DA0000020F5E76FF00100704700BF000D002014
:103DB0000C00002003287ED82DE9F04104460E4671
:103DC00090461F46FFF77FFD0546012E1BD073B2BC
:103DD000002B4DD0F31EDBB2012B49D801233A460C
:103DE000364900F0D5FB30B9354B2C2202FB0433A9
:103DF000C3F804809F60324B2C2202FB0433012263
:103E000083F8292020E02E4B2C2202FB043393F868
:103E1000293003BB2A4B2C2202FB0433C3F8048055
:103E20009F60002D08DB05F01F016B0901228A400D
:103E30006033244941F8232006992846FFF716FDF0
:103E40002846FFF7F3FC00202C2303FB04F41C4B53
:103E50001E55BDE8F08100231A46194600F098FB74
:103E6000174B2C2202FB0433002283F82920D1E7D0
:103E700000231A461946284600F08AFB104B2C22D4
:103E800002FB0433002283F82920954208DB05F069
:103E90001F016B0901228A4060330A4941F823203F
:103EA0002846FFF7D1FC064B2C2202FB04330020EE
:103EB00098605860C8E76FF001007047C13C00008F
:103EC000000D002000E100E02DE9F0479DF820A062
:103ED000032800F2C18005460F4691469846FFF739
:103EE00003FD0446614B2C2202FB05335E7B002E52
:103EF00040F0B5805D4A2C2005FB00F0012159738C
:103F0000C3F81090C3F8188000211962135C1BB12C
:103F1000BAF1000F00D10126636923F0100343EAD0
:103F200006136361636943F0080363617923A36047
:103F30004E4B2C2202FB05331B7B4BB9236823F02D
:103F4000FF0343EA47032360636943F001036361AE
:103F5000002E40F0878037464FF0000851E01728C8
:103F600066D0222823D1414B2C2202FB05331A6A4A
:103F70009B699A4226D33E46012723E03B4B2C22E5
:103F800002FB05331A6A9B699A4255D3374B2C22A0
:103F900002FB05331B7B2BB13B467922A2603E46D8
:103FA0001F460FE02046FFF7B9FC0123F5E72F4B32
:103FB0002C2202FB05331B7B9BB37923A3603E4677
:103FC0006FF00808B8F1000F3DD1D6B1274B2C2275
:103FD00002FB05331A6A9B69013B9A422ED0236883
:103FE00023F0FF03214A2C2101FB05221069116AED
:103FF00001F1010CC2F820C0425C13432360792315
:10400000A36007BB2046FFF779FC46280DD0A6D950
:104010004728B3D0CBD387280CD09728C7D1012607
:10402000D0E72046FFF77AFCC7E73E460127C9E7FD
:104030000126C7E70126C5E70126C3E7636923F028
:1040400008036361CBE7094B2C2202FB05330022F6
:104050005A734046BDE8F0876FF00108F9E76FF04A
:104060000208F6E74FF00008F3E700BF000D00205C
:104070002DE9F0479DF820A0032800F213810446A3
:104080000F4691469846FFF72FFC05468A4B2C2297
:1040900002FB04339E7B002E40F00781864A2C20D1
:1040A00004FB00F001219973C3F81490C3F81C803D
:1040B00000215962135C1BB1BAF1000F00D1012637
:1040C0006B6923F0100343EA06136B616B6943F0DD
:1040D00008036B617923AB60774B2C2202FB04331E
:1040E0001B7B5BB92B6823F0FF0343EA470343F0D4
:1040F00001032B606B6943F001036B61002E40F0FC
:10410000D7806D4B2C2202FB04334FF0000883F85C
:104110002880374691E0852810D0952858D1664BE5
:104120002C2202FB04331B7B012B5DD1624B02FB73
:104130000433012283F828203E4655E05E4B2C22B2
:1041400002FB04331B7B002B4ED15B4B02FB043381
:10415000012283F828203E4646E0574B2C2202FBE2
:1041600004335A6ADB699A423ED3534B2C2202FB3A
:10417000043393F82830002B36D04F4A2C2101FB12
:1041800004220021516282F828103E461F462BE08F
:10419000494B2C2202FB04335A6ADB699A4270D3E2
:1041A000454B2C2202FB043393F82890B9F1000F01
:1041B00069D0414B02FB04331B7B2BB1B9467923F9
:1041C000AB603E464F460FE02846FFF7A7FBF6E7F9
:1041D000394B2C2202FB04331B7B002B4AD0792362
:1041E000AB603E466FF00808B8F1000F53D1D6B16E
:1041F000314B2C2202FB043393F828309BB12E4B19
:1042000002FB04335A6ADB69013B9A423ED02868BC
:10421000294B2C2202FB043359695A6A02F1010C22
:10422000C3F824C08854244B2C2202FB04335A6A5E
:10423000DB699A4201D27923AB6067BB2846FFF75E
:104240005DFB4528A4D03FF666AF202885D04428E2
:1042500014D01528BCD1184B2C2202FB04331B7B35
:10426000012BC1D1144B02FB0433012283F8282017
:104270003E46B9E72846FFF751FBB0E73E46012727
:10428000B2E70126B0E74F460126ADE76B6923F0A0
:1042900008036B61BBE7084B2C2202FB04330020B0
:1042A000987306E06FF0010003E06FF0020000E099
:1042B0000020BDE8F08700BF000D00202DE9F04F81
:1042C00083B0019200938A4B00221A60032800F207
:1042D000068106460D46FFF707FB0446854B2C2258
:1042E00002FB06335B7B002B40F0FC80814B02FB22
:1042F00006339B7B002B40F0F8807E4B02FB06339D
:1043000001225A73436923F010034361436943F068
:104310000803436179238360036823F0FF0305FAF0
:1043200002FA43EA450303604369134343610027EC
:10433000B846B9462046FFF7E1FA0546B0F1FF3F1F
:104340001BD05FB3452800F08E80852800F0848064
:10435000442800F0B2803A460021FFF7F3FA2046E5
:10436000FFF7DCFA7923A360624B2C2202FB0633B1
:1043700000225A736FF00800AEE03A460021FF2099
:10438000FFF7E0FA2046FFF7C9FA5A4B2C2202FB4E
:10439000063300225A736FF008009DE03A46002170
:1043A000FFF7D0FA472D25D0872D47D1009B99459F
:1043B0000CD2236823F0FF03019A12F8092013435B
:1043C00023607923A36009F10109B3E7636943F02E
:1043D00008036361236823F0FF034AEA030343F001
:1043E00001032360636943F0010363617923A360E0
:1043F00001279FE7009B99450CD2236823F0FF0318
:10440000019A12F80920134323607923A36009F16C
:1044100001098FE7636943F008036361236823F0B0
:10442000FF034AEA030343F001032360636943F097
:10443000010363617923A36001277BE72046FFF72F
:104440006DFA7923A3602B4B2C2202FB063300224A
:104450005A736FF008003FE03A460021FFF772FA06
:104460007923A36066E70D9B984510D22168C9B2F5
:1044700008F1010B0C9B03F808103A46FFF762FAAB
:104480000D9B5B4513D07923A360D84652E73A468B
:10449000FE21FFF757FA2046FFF740FA7923A36081
:1044A000144B2C2202FB06330020587314E063697E
:1044B00023F008036361D8463CE73A460021FFF742
:1044C00041FA2046FFF72AFA7923A360094B2C22F0
:1044D00002FB06330020587303B0BDE8F08F6FF085
:1044E0000100F9E76FF00200F6E76FF00200F3E772
:1044F000BC0C0020000D002008B50020FFF73AFAA0
:1045000008BD08B50120FFF735FA08BD08B502203F
:10451000FFF730FA08BD08B50320FFF72BFA08BDF6
:1045200038B54FF080439D6D45F00C429A650024EC
:1045300000E00134072C1CDC04EB44029300134A16
:10454000D35C002BF5D025FA04F313F0010FF0D063
:1045500004EB44039A000D4B13445A68002AE8D038
:1045600004EB44039900094B0B44996801209047E0
:10457000DFE7064B93F854303BB115F4004F04D0FD
:10458000024B9A6DD96D0120904738BDB00D0020C7
:1045900010B44FF0804CDCF8544024F4004444EA5A
:1045A000C334CCF854400F4C84F8543073B1DCF869
:1045B000543023F47F03C0B243EA0040CCF85400E7
:1045C000084B9965DA65002010BC70474FF08042B7
:1045D000536D23F47F035365024B00229A65DA651D
:1045E000F1E700BFB00D002008B5FFF799FF08BD47
:1045F000002807DB00F01F02400901239340024A14
:1046000042F82030704700BF00E100E000280CDBDA
:1046100000F01F024009012393402030034A42F872
:104620002030BFF34F8FBFF36F8F704700E100E082
:10463000002808DB0901C9B200F1604000F56140C3
:1046400080F80013704700F00F000901C9B2014B58
:104650001954704714ED00E0022813D84FF080423F
:10466000D36A14304FF0010C0CFA00FC23EA0C035F
:1046700081400B43D362536B23EA0C03194351630C
:10468000002070476FF00100704710B5032935D83E
:1046900084694FEAC10C4FF01F0E0EFA0CFE24EA9B
:1046A0000E0402FA0CFC44EA0C048461C2684FEA6E
:1046B000810E4FF00F0C0CFA0EFC22EA0C029DF852
:1046C0000840012C2BD04FF00F0C0CFA0EFC42EAE4
:1046D0000C02C26010304FEA910E50F82E2001F00B
:1046E0000301C9004FF01F0C0CFA01FC22EA0C0276
:1046F0008B40134340F82E30002010BDC469A1F157
:10470000040E4FEACE0E4FF01F0C0CFA0EFC24EAFA
:104710000C0C02FA0EF24CEA0202C261C6E79DF8E6
:104720000CC0D2E700F5820000F5907000027047DF
:1047300008B5FFF791FF08BD08B5FFF7F3FF014685
:10474000036843F080030360836823F4FE4343F46B
:1047500000738360036823F0300343F010030360A9
:10476000036843F4E0630360036A43F001030362F8
:10477000064B4A6A12F0040F04D1013BF9D16FF0E5
:10478000030000E000204B6A4B6208BDA0860100D8
:1047900010B50446FFF7C6FF436A436213F00100F9
:1047A00000D0012013F0040F01D040F0020013F0FC
:1047B000080F01D040F0040004F10802D34013F0C8
:1047C000010F01D040F00800054B03EB04135B68B8
:1047D0002BB120B1024A02EB04129168984710BD38
:1047E000100E002010B5002400E00134022C09DC7A
:1047F000054B03EB0413DB7B002BF6D0E0B2FFF795
:10480000C7FFF2E710BD00BF100E0020022813D82A
:1048100010B504460121FFF78BFF034600B110BD20
:104820002001074901EB04120B5053609360D360E1
:104830002046FFF781FFF2E76FF00100704700BFED
:10484000100E002002280FD810B50C46FFF76AFFA3
:104850002378012B0BD0836823F4FE43E27843EAEC
:1048600002238360002010BD6FF0010070476FF0DD
:104870000400F8E7022839D838B505460C46FFF79A
:1048800051FF0346A278012A33D0026822F0300299
:104890002178012913D9013909010A431A601A68DC
:1048A00022F4E062E17842EA01221A601A6822F0FA
:1048B0000702617829B1012904D00B2102E000210F
:1048C000EBE700210A431A601A6822F0400261797E
:1048D00042EA81121A601A6A42F002021A622278CF
:1048E000054B03EB05131A73002038BD6FF0010070
:1048F00070476FF00400F8E7100E002002287ED801
:104900002DE9F04104460D4690461F46022979D014
:10491000012804D0022804D0E8B94A2602E04B2638
:1049200000E04C26022D19D9EB1EDBB2012B46D834
:1049300001233A4635493046FFF72AFE28B9344B61
:1049400003EB0413C3F804809F60314B03EB0413A3
:104950000122DA7322E06FF01006E3E76BB273B363
:104960002B4B03EB0413DB7BEBB9294B03EB041359
:10497000C3F804809F60002E08DB06F00F01730966
:1049800001228A406033234941F8232006993046AA
:10499000FFF74EFE3046FFF72BFE002024011C4B94
:1049A0001D55BDE8F08100231A4619463046FFF731
:1049B000EFFD174B03EB04130022DA73D5E7002356
:1049C0001A4619463046FFF7E3FD114B03EB04137B
:1049D0000022DA73964208DB06F00F017309012208
:1049E0008A4060330B4941F823203046FFF70EFE22
:1049F000074B03EB0413002098605860CEE76FF07C
:104A0000010070476FF00400CBE700BFE5470000EE
:104A1000100E002000E100E002282BD810B504465B
:104A2000FFF780FE03460022426242624262240196
:104A3000124A125D8AB9826A22F001028262826A97
:104A400022F004028262826A22F0080282621A6AFA
:104A500042F001021A62002010BD826A42F0010297
:104A60008262826A42F004028262826A42F0080232
:104A70008262ECE76FF00100704700BF100E00206B
:104A8000022825D810B50446FFF74CFE036823F032
:104A900040030360114B03EB04135B7B1BB9036AF8
:104AA00023F08003036224010C4B1B5D013BDBB24E
:104AB000032B10D8836A23F001038362836A23F0F7
:104AC00004038362836A23F008038362002003E007
:104AD0006FF001007047002010BD00BF100E0020D5
:104AE00002281AD838B50D461446072918D8FFF7FA
:104AF00019FE23786BB12C300368C3F30B1363806A
:104B00000368C3F30443237103681B0E6371002021
:104B100038BD303000EB8500EEE76FF001007047E4
:104B20006FF00100F4E7000002281CD830B583B014
:104B300005460C46D1B1FFF7F5FD2378022B08D0CE
:104B40006FF0050062780B4B03EB05135A7303B04B
:104B500030BD6378A27801920093A37922796179BC
:104B6000FFF793FDEEE76FF0010070476FF0010073
:104B7000EDE700BF100E002008B50020FFF708FE8B
:104B800008BD08B50120FFF703FE08BD08B50220E7
:104B9000FFF7FEFD08BD08B5014601231A460020B7
:104BA000FDF712FC08BD08B5014600230122184696
:104BB000FDF70AFC08BD08B5014601231A4600208E
:104BC000FDF764FC08BD08B5014600230122184624
:104BD000FDF75CFC08BD08B50020FDF7DDFC08BD55
:104BE00010B586B00024049405944FF41643049342
:104BF00003238DF8143004238DF815300D4B1B68FA
:104C0000ADF80C301B0C8DF80E302046FDF7C6FABF
:104C100003A92046FDF7EEFA04A92046FDF7F6FAAF
:104C20000F2300932346044A01212046FDF742FB4F
:104C300006B010BD446F00003D4C000010B50446A6
:104C400010F0020F03D114F0010F03D110BD00F0DA
:104C500007F9F8E700F07CF8F8E7000008B502482B
:104C600000F0AAF808BD00BF140000200FB410B572
:104C700082B004AB53F8042B0193074C80212046EB
:104C800000F03AFD2146054800F002FC002002B089
:104C9000BDE8104004B07047400E00200C6F0000CB
:104CA00070B50E461546002403E0305700F0AAF810
:104CB0000134AC42F9DB284670BD10B50C4600202B
:104CC00000F004F9B0F1FF3FF9D02070012010BDD1
:104CD0000120704701207047012070470020704775
:104CE000016000238371013A82808360C360704752
:104CF00038B572B6134A938895681D40D268134040
:104D00009D4205D2C3F500732B449DB2002412E0EE
:104D1000ED1AADB2FAE70B4B1968DA6898880240D1
:104D20008A5C09480270DA680132DA60074B1B6856
:104D30005B6998470134A542EDDC024B00229A7171
:104D400062B638BDC00E0020F9100020F01000201F
:104D500008B5164B9A68DB689A421CD0134A9188B2
:104D600093680B40D2680A40934218D2C2F5007291
:104D70001A4493B2FF2B15D80C4B1A68D86801401F
:104D8000525C0B480270DA680132DA60094B1B682A
:104D90001B69984708BD054B00229A71FAE79B1AD8
:104DA0009BB2E7E7FFF7A4FFF4E700BFC00E0020C7
:104DB000F9100020F010002008B50C4B18600368B3
:104DC000984710220A490B48FFF78AFF4FF40072F8
:104DD00009490A48FFF784FF094B1868002302229B
:104DE0001946806800F066FB002008BDF010002026
:104DF000E0100020D00E0020E00E0020C00E0020A9
:104E00003800002038B5044672B6124B9B79A3B91E
:104E1000104B01229A71C5B20F4805700F4B1B68E9
:104E20001B69984790B10B4B19689A6898880240A3
:104E30008D549A6801329A6008E0064B19689A68A6
:104E4000988802408C549A6801329A6062B6204673
:104E500038BD00BFC00E0020F9100020F010002067
:104E600008B5164B1878082809D040B2FFF7CAFFDA
:104E7000134B1B686BB1114A1078984708BD40B2BC
:104E8000FFF7C0FF2020FFF7BDFF0820FFF7BAFFA4
:104E9000EEE70A4890F800C00A4B19689A68B3F820
:104EA00004E002EA0E0201F802C09A6801329A6038
:104EB000054B1B689B689847E0E700BFF81000208F
:104EC000F4100020D00E0020F010002008B5144B84
:104ED0001860C8B9134B9B793BB9124B01229A71E8
:104EE000114B1B689B68114898470E4B9A68DB680A
:104EF0009A4211D00B4B1968DA6898880240885C96
:104F0000DA680132DA6008BD074B1B689B68074806
:104F100098474FF0FF30F6E74FF0FF30F3E700BF60
:104F2000F4100020D00E0020F0100020F810002017
:104F3000FEE7FEE708B500F02DF8124A0AE0106817
:104F4000516850F8230041F82300013391688B42E7
:104F5000F5D30C320C4B9A4201D20023F6E70B4AF0
:104F600008E01168002041F82300013351688B42AA
:104F7000F7D30832064B9A4201D20023F6E7FBF73B
:104F800069FA00BF08800000208000002080000037
:104F90002080000072B60D4A0D4B9A600D4B4AF20C
:104FA0005A52C3F8F02000229A604FF080435722F3
:104FB000C3F8F0207522C3F8F020074B1522C3F880
:104FC000F02F5122C3F8F02F62B6704700000000A6
:104FD00000ED00E00002004000000141054B1B68AD
:104FE00003FB00F0002301E000BF01338342FBD349
:104FF000704700BF0400002053B94AB9002908BF18
:1050000000281CBF4FF0FF314FF0FF3000F06AB9AD
:10501000ADF1080C6DE904CE00F006F8DDF804E00F
:10502000DDE9022304B070472DE9F047089D0E46E4
:1050300004460F46002B4AD194468C45B2FA82F2C0
:1050400060D942B1C2F12003974020FA03F30CFA71
:1050500002FC1F4394404FEA1C4E1FFA8CF6B7FB2C
:10506000FEF1230C0EFB117743EA074301FB06F028
:1050700098420AD91CEB030301F1FF3780F0158138
:10508000984240F21281023963441B1AA4B2B3FB66
:10509000FEF00EFB103344EA034400FB06F6A64282
:1050A0000AD91CEB040400F1FF3380F00081A64212
:1050B00040F2FD806444023840EA0140A41B002114
:1050C0001DB1D4400023C5E90043BDE8F0878B4201
:1050D00005D90DB1C5E9000100210846F5E7B3FA8D
:1050E00083F1002946D1B34202D3824200F2F58017
:1050F000841A66EB030201201746002DE5D0C5E9AE
:105100000047E2E7002A40F09380A1EB0C034FEA4E
:105110001C471FFA8CFE0121B3FBF7F607FB163084
:10512000230C43EA00430EFB06F0984208D91CEB1F
:10513000030306F1FF3802D2984200F2D0804646BF
:105140001B1AA4B2B3FBF7F007FB103344EA034485
:105150000EFB00FEA64508D91CEB040400F1FF334A
:1051600002D2A64500F2B6801846A4EB0E0440EA2F
:105170000640A5E7C1F120078B4022FA07FC4CEA64
:10518000030C06FA01FE20FA07F426FA07F344EAB4
:105190000E0400FA01F84FEA1C404FEA1449B3FB31
:1051A000F0FE1FFA8CF600FB1E3349EA03430EFBA8
:1051B00006F9994502FA01F20BD91CEB03030EF133
:1051C000FF3A80F08580994540F28280AEF1020E70
:1051D0006344A3EB0909A4B2B9FBF0F300FB1399F4
:1051E00044EA094403FB06F6A64208D91CEB040472
:1051F00003F1FF3068D2A64266D9023B644443EA19
:105200000E40A41BA0FB02E6B4427346B14652D343
:105210004FD05DB1B8EB030264EB090404FA07F761
:1052200022FA01F31F43CC40C5E9007400214CE78A
:10523000C2F1200120FA01F30CFA02FC26FA01F176
:10524000964033434FEA1C471FFA8CFEB1FBF7F040
:1052500007FB1016190C41EA064100FB0EF68E42C0
:1052600004FA02F408D91CEB010100F1FF382DD239
:105270008E422BD902386144891B9BB2B1FBF7F6F1
:1052800007FB161143EA014306FB0EF1994208D9C8
:105290001CEB030306F1FF3814D2994212D9023EE7
:1052A00063445B1A46EA004136E73946EDE61846A4
:1052B00002E7F045ADD2BEEB020366EB0C06013807
:1052C000B146A6E74646ECE7034698E74046D3E7F3
:1052D000D6467EE76444023847E708460DE7023EBB
:1052E00063442DE7704700BF08B5064B044613B171
:1052F0000021AFF30080044B1B6803B198472046A0
:1053000001F032FA0000000034120020002310B532
:105310000446C0E90033C0E90433836081814366F9
:10532000C2818361194608225C3000F0F3F90D4B0D
:1053300063620D4BA3620D4BE3620D4B23630D4B78
:1053400024629C4206D003F16802944202D0D0331A
:105350009C4205D104F15800BDE8104000F04CBA61
:1053600010BD00BF1D5600003F56000077560000DC
:105370009B560000FC100020024A0349034800F03D
:1053800069B800BF2C000020656300003C000020CD
:1053900041680C4B994210B5044601D000F0E2FF81
:1053A000A168094B994202D0204600F0DBFFE1687A
:1053B000064B994204D02046BDE8104000F0D2BF11
:1053C00010BD00BFFC10002064110020CC11002093
:1053D00010B50B4B0B4C0C4A1A60204600220421DE
:1053E000FFF794FF04F1680001220921FFF78EFF07
:1053F00004F1D0000222BDE810401221FFF786BF61
:1054000034120020FC10002079530000014800F005
:10541000F4B900BF3D120020014800F0EFB900BF11
:105420003D12002010B50446FFF7F0FF236A1BB1C0
:10543000BDE81040FFF7F0BF044B2362044B1B682C
:10544000002BF5D1FFF7C4FFF2E700BF9153000036
:10545000341200202DE9F8430746884614460026FA
:10546000D4E90195B9F1010905D52468002CF7D1DB
:105470003046BDE8F883AB89012B07D9B5F90E306A
:10548000013303D029463846C04706436835E9E76B
:105490000FB407B5064904AB086853F8042B8168BC
:1054A000019300F03BFC03B05DF804EB04B07047DF
:1054B000380000202DE9F7431D46574B1F6804466E
:1054C0000E46904627B13B6A13B93846FFF7AAFF4C
:1054D000B8F1020F06D0B8F1010F00F29A80002D4A
:1054E000C0F29780636ED90705D4A3899A0502D4C8
:1054F000A06D00F082F92146384600F033FF616B61
:1055000041B104F14403994202D0384600F086F9D3
:10551000002363630023A3616360A3891B0603D593
:105520002169384600F07AF9A38923F44A6323F00D
:105530000303B8F1020FA38161D001AB6A46214693
:10554000384600F037FFA3891843A0812DBB009D8A
:10555000284600F0ADF90646002852D1DDF800904B
:10556000A94540D14FF0FF35B4F90C3043F00202A9
:10557000A2810022A26004F147022260226101227E
:105580006261626ED60704D4980502D4A06D00F063
:1055900035F9284603B0BDE8F083002ED8D03B6A29
:1055A00013B93846FFF73EFFB8F1010F08BFA389D2
:1055B000266004BF43F00103A381B4F90C3013F05B
:1055C0000802C4E904651ED0D90741BF00226D421C
:1055D000A260A56158BFA560626ED20701D49B0589
:1055E00013D50025D5E7484600F062F906460028A5
:1055F000B8D0A38943F08003A3814D46CFE70025AF
:10560000B2E7A946F5E7A260E6E7A06D00F0F6F87C
:10561000E7E74FF0FF35BCE73800002010B50C4637
:10562000B1F90E1000F0A0F80028ABBF636DA3899C
:105630001B1823F48053ACBF6365A38110BD2DE913
:10564000F0411F468B89DB0505460C46164605D5FD
:10565000B1F90E100223002200F074F8A389B4F906
:105660000E1023F48053A38132463B462846BDE802
:10567000F04100F08BB810B50C46B1F90E1000F0F7
:1056800061F8431CA38915BF606523F4805343F47C
:105690008053A38118BFA38110BDB1F90E1000F093
:1056A00041B830B51446002C9BB005461A4605DAC1
:1056B0008B2303604FF0FF301BB030BD4FF40273FB
:1056C000ADF80C3014BF04F1FF3323460293059369
:1056D0004FF6FF7300910491ADF80E3069461E9BA2
:1056E00000F0F8F9431CBCBF8B232B60002CE3D0E7
:1056F000009B00221A70DFE707B5009313460A46A5
:10570000014603480068FFF7CCFF03B05DF804FBD7
:105710003800002002440346934200D1704703F84A
:10572000011BF9E738B5064D0023044608462B60F7
:10573000FFF7CEFA431C02D12B6803B1236038BDBA
:105740003812002038B5074D04460846114600229D
:105750002A601A46FFF7C2FA431C02D12B6803B134
:10576000236038BD3812002038B5074D044608467E
:10577000114600222A601A46FFF79FFA431C02D105
:105780002B6803B1236038BD3812002038B5074DAF
:1057900004460846114600222A601A46FFF780FA9E
:1057A000431C02D12B6803B1236038BD381200209E
:1057B00070B50D4D0D4C641BA4100026A64209D1F6
:1057C0000B4D0C4C00F0D2FF641BA4100026A64227
:1057D00005D170BD55F8043B98470136EEE755F802
:1057E000043B98470136F2E788000020880000203B
:1057F000880000208C0000207047704770470A44E2
:10580000914200F1FF3300D1704710B511F8014B00
:1058100003F8014F9142F9D110BD000038B505469B
:10582000002941D051F8043C0C1F002BB8BFE418EC
:1058300000F0E8F81D4A136833B963601460284625
:10584000BDE8384000F0E4B8A34208D92068211828
:105850008B4201BF19685B6809182160EDE71A46A1
:105860005B680BB1A342FAD911685018A0420BD162
:1058700020680144501883421160E0D118685B68C9
:10588000536008441060DAE702D90C232B60D6E796
:10589000206821188B4204BF19685B68636004BFED
:1058A000091821605460CAE738BD00BF44120020C7
:1058B000024B0146186800F025B800BF38000020F0
:1058C00070B50F4E0C463168054611B900F0A4FEC4
:1058D00030602146284600F09FFE431C03D14FF064
:1058E000FF34204670BDC41C24F00304A042F8D04D
:1058F000211A284600F090FE0130F2D1EFE700BFF8
:10590000401200202DE9F843CD1C25F00305083591
:105910000C2D38BF0C25002D064601DBA94204D909
:105920000C2333600020BDE8F883DFF8D48000F05A
:1059300069F8D8F800301C4644BB29463046FFF7CA
:10594000BFFF431C044658D1D8F800402746002F1B
:1059500043D1002C4BD023683946304604EB030971
:1059600000F05AFE814542D121686D1A2946304621
:10597000FFF7A6FF01303AD023682B442360D8F804
:1059800000305A6862BBC8F800700FE02268521BF2
:1059900020D40B2A17D96119A342256018BF59607A
:1059A000636808BFC8F8001062514B60304600F0D1
:1059B0002FF804F10B00231D20F00700C21A1CBFB2
:1059C0001B1AA350AFE76268A3420CBFC8F80020BF
:1059D0005A60EBE723466468AEE73C467F68B6E76B
:1059E0001A465B68A342FBD100235360DEE70C2319
:1059F0003360304600F00CF894E70560D6E700BF4E
:105A0000441200200148FFF7F8BE00BF3C120020FE
:105A10000148FFF7F3BE00BF3C1200202DE9F0471C
:105A20008E681F46BE420B6882460C4690462DD8B3
:105A3000B1F90C2012F4906F26D06569096905EB65
:105A40004505A3EB010905EBD5757B1C4B446D1097
:105A50009D4238BF1D46530527D52946FFF752FF03
:105A6000064660B321694A46FFF7C9FEA38923F4BD
:105A7000906343F08003A381266165614E44A5EBEA
:105A800009052660A5603E46BE4200D93E46206814
:105A90003246414600F084FDA3689B1BA360236847
:105AA000334423600020BDE8F0872A4600F018FE4A
:105AB00006460028E0D121695046FFF7AFFE0C23CF
:105AC000CAF80030A38943F04003A3814FF0FF30B0
:105AD000E9E700002DE9F04F98468B891B069DB041
