:1000000000000420153900001131000011390000F2
:1000100013390000133900001339000000000000FC
:100020000000000000000000000000001339000084
:10003000133900000000000013390000E50B000038
:1000400013390000F5230000FF23000009240000FD
:100050001339000013390000133900001339000070
:100060001339000013390000133900001339000060
:10007000133900001339000013390000691E000015
:10008000731E00007D1E0000871E0000911E0000F0
:100090009B1E0000A51E0000AF1E0000B91E000040
:1000A000C31E00001339000013390000133900008B
:1000B0001339000013390000133900001339000010
:1000C0001339000013390000133900001339000000
:1000D000C5290000CD290000D5290000DD29000038
:1000E000E5290000ED290000F52900001339000082
:1000F00013390000133900001339000013390000D0
:1001000013390000133900001339000013390000BF
:1001100013390000133900001339000013390000AF
:10012000133900001339000013390000133900009F
:10013000213000002B300000353000004118000055
:100140004B180000551800005F18000069180000E7
:100150007318000013390000133900001339000030
:1001600013390000133900005735000061350000D5
:100170006B350000133900001339000013390000FB
:10018000133900001339000013390000133900003F
:10019000133900001339000013390000133900002F
:1001A000133900001339000013390000133900001F
:1001B000133900001339000013390000133900000F
:1001C00013390000133900001339000013390000FF
:1001D0003F300000133900001339000013390000CC
:1001E00013390000133900001339000013390000DF
:1001F0007D18000087180000911800009B1800006F
:10020000A5180000AF180000B9180000133900004D
:1002100013390000133900001339000013390000AE
:10022000133900001339000013390000133900009E
:100230001339000000000000000000000000000072
:1002400000000000000000000000000000000000AE
:10025000000000000000000000000000000000009E
:10026000000000000000000000000000000000008E
:10027000000000000000000000000000000000007E
:10028000000000000000000000000000000000006E
:10029000000000000000000000000000000000005E
:1002A000000000000000000000000000000000004E
:1002B000000000000000000000000000000000003E
:1002C000000000000000000000000000000000002E
:1002D000000000000000000000000000000000001E
:1002E000000000000000000000000000000000000E
:1002F00000000000000000000000000000000000FE
:1003000000000000000000000000000000000000ED
:1003100000000000000000000000000000000000DD
:1003200000000000000000000000000000000000CD
:1003300000000000000000000000000000000000BD
:1003400000000000000000000000000000000000AD
:10035000000000000000000000000000000000009D
:10036000000000000000000000000000000000008D
:10037000000000000000000000000000000000007D
:10038000000000000000000000000000000000006D
:10039000000000000000000000000000000000005D
:1003A000000000000000000000000000000000004D
:1003B000000000000000000000000000000000003D
:1003C0000348044B834202D0034B03B118477047E4
:1003D0009000002090000020000000000548064B1F
:1003E0001B1AD90F01EBA301491002D0034B03B133
:1003F0001847704790000020900000200000000087
:1004000010B5064C237843B9FFF7DAFF044B13B15C
:100410000448AFF300800123237010BD900000203A
:10042000000000009454000008B5054B1BB10549BD
:100430000548AFF30080BDE80840FFF7CFBF00BF1D
:10044000000000009400002094540000A3F5803ABE
:10045000704700BF174B002B08BF134B9D46FFF79B
:10046000F5FF00218B460F461348144A121A03F079
:1004700041FE0E4B002B00D098470D4B002B00D0B7
:1004800098470020002104000D000D48002802D0EC
:100490000C48AFF3008003F07BFE2000290000F041
:1004A00043FB03F011FC00BF000008000000000047
:1004B000000000000000042090000020BC09002083
:1004C000000000000000000000B583B001238DF89B
:1004D00007300DF107020921022002F06FF920B95F
:1004E0009DF807302BB9012000E0002003B05DF833
:1004F00004FB0020FAE7000038B50546002408E0B8
:100500000B4B03EB4402517813F8140000F0B1FBDD
:100510000134092C0AD8002DF2D0054B03EB44021C
:10052000517813F8140000F09FFBF1E738BD00BFCD
:100530006451000008B5FFF7C7FF044B1B788342E6
:1005400003D0024B1870FFF7D7FF08BD0000002052
:1005500038B5FFF7B9FF044600F0FCF80546FFF791
:10056000E9FF9CB90E4B1B787BB10E4B1B784BB946
:100570000D4B1868281A40F6B733984202D80B4B37
:1005800001221A70064B00221A7038BD044B01225A
:100590001A70044B00221A70034B1D60F5E700BF70
:1005A000B3000020B2000020AC000020B100002009
:1005B00010F4402F00D1704708B5FFF7C9FF08BD00
:1005C00008B50B4B1B7813B10A4B1B7803B108BD60
:1005D00000F0C0F8084B1B68C01A40F6B7339842C9
:1005E000F5D90123034A1370044A1370EFE700BFE3
:1005F000B3000020B2000020AC000020B0000020BA
:1006000030B589B002258DF808500A238DF80930DD
:1006100002A9284602F052F901220921284602F0D7
:100620001BF90024009403231A460921284602F0EE
:10063000FCF88DF80C5001238DF80D300D4B049310
:100640000594032306938DF81C4003A802F046F995
:10065000094BFF221A70094B1C70094B1C70094B87
:100660001C70094B1C70094B1C60FFF763FF09B03D
:1006700030BD00BF9106000000000020B300002044
:10068000B2000020B1000020B0000020AC0000202B
:1006900008B5FFF78DFF08BD08B5012202F0A5F8E7
:1006A00008BD08B5002202F0A0F808BD014B0122E8
:1006B0001A707047B400002030B587B001AC1C4DF3
:1006C0000FCD0FC42B6823601A4800F03BF91A487D
:1006D00000F038F9194800F035F900240CE006ABB9
:1006E00003EB440313F8131C13F8140CFFF7D4FFA7
:1006F000C82000F0AFFA0134092CF0D94FF4FA7099
:1007000000F0A8FA00240CE006AB03EB440313F856
:10071000131C13F8140CFFF7C4FF642000F09AFABE
:100720000134092CF0D9064800F00CF907B030BDAF
:100730002854000078510000A4510000C05100006E
:10074000EC510000024A136801331360704700BF88
:10075000B8000020014B1868704700BFB8000020A7
:1007600010B4A0F2A960154B9B6800FB03F3144A78
:1007700082FB0302DB17C3EB62130B60DB000B6031
:100780004A681A448868121AC2EB4212D200144610
:10079000002A0DDB24124C608B600A4B9A420ADB64
:1007A00047F6F870A042A8BF204600B210BC7047C0
:1007B00002F1FF04EEE70448F7E700BFBC000020A9
:1007C0001F85EB51010780FF0880FFFF10B50F4C1C
:1007D0002146FFF7C5FF54F8083CE268A0F5004049
:1007E00023F81200E3680133E36054F8041C8B42E1
:1007F00004D2074A536A0133536210BDA4F11403B3
:1008000000221A62D868FFF751FFF2E7D0000020FB
:10081000BC0000200E4B1B78022B00D0704710B597
:1008200082B0002002F040FE80B964242346013CDF
:1008300063B100208DF800006A46014602F068FEB0
:100840000028F3D1BDF80200FFF7C0FF02B010BDD1
:10085000BC00002008B500220C21104601F0C5FFA5
:1008600008BD000000B583B08DF80700064B1B786B
:1008700013B903B05DF804FB01231A460DF107011B
:10088000002000F0D9FEF4E7E800002010B586B0A3
:10089000214B1C7814B1204606B010BD03220F2155
:1008A000022001F03BFF0028F5D103220E21022097
:1008B00001F034FF0028EED100F0A8FD0028EAD1B5
:1008C00001238DF80C3003228DF80D208DF80E30A9
:1008D00003A900F0C7FD0028DDD14FF4E1330493F4
:1008E00003238DF8143004238DF815308DF816008D
:1008F0008DF8170004A900F0C1FD0028CBD10090AD
:1009000003460246014600F00DFE0028C3D1012433
:10091000014B1C70BFE700BFE800002070B110B5AC
:100920000446074B1B7823B907E0C0B2FFF79AFFD4
:10093000013494F900000028F7D110BD704700BFC2
:10094000E800002008B5FFF7E9FF0248FFF7E6FFDF
:1009500008BD00BF0852000030B44FF080439A6ACF
:1009600042F4FE429A621A6B42F4FE421A63394A1A
:100970001523C2F8F03F5123C2F8F03F0023136162
:10098000402111639163D363536147F27771116022
:100990003149516031499160D36031490B610B633A
:1009A0004FF630608863CB634B612E4808600720A8
:1009B00048602D488860CB6001F580714FF400706D
:1009C00008610B638B63CB634B612848086000F5BB
:1009D000DF2000F2D47048606FF4407088602448D3
:1009E000C86001F580710B610B638B63CB634B6156
:1009F0004FF07730086048604FF0FF348C60CB6078
:100A000001F580710B610B638B63CB634B610860F5
:100A100048608C60CB6001F580710B610B638025B1
:100A20008D63CB634B61134D0D6048606FF440459F
:100A30008D60CB6001F580710B610B638B63CB63C1
:100A40004B61086048608C60CB60C2F8F03F30BCFE
:100A5000704700BF0000014111117077FF0FFFFCCC
:100A60000001014177770011FFF003003333707705
:100A70008A02A8007777770738B51B4B5A681B4B5B
:100A80009A422DD0184B5A68194B9A4226D0194DCC
:100A9000154B5B6803F47F03B3F5501F22D0154C50
:100AA000154802F0D3FD2946144802F0CFFD214637
:100AB000134802F0CBFD4FF41643002211491248AF
:100AC00002F0C4FD114B1968114802F0BFFD114836
:100AD00002F0BCFD104802F0B9FD38BD0F4DD7E75C
:100AE0000F4DD5E70F4CDBE700F00040A044344742
:100AF000A144344754520000685200009C52000048
:100B0000AC520000C0520000C8520000100000208B
:100B1000EC5200000C530000305300003052000033
:100B20000C5200005C52000008B5FFF715FF00F002
:100B300011F802F083FDFFF79FFF00F0B9F900F014
:100B400091FA00F0E7F900F02BFA00F001F900202B
:100B500008BD000030B585B002258DF80C5000248A
:100B60008DF80D408DF80E401D4A6B4607CA03C331
:100B70001A700121284601F073FB0121084601F09B
:100B80006FFB0121204601F06BFB0121032001F0E6
:100B900067FB03A801F004FB6946012001F092FB0A
:100BA00004238DF80C308DF80D408DF80E4003A80D
:100BB00001F0F6FA204601F005FC22460F212846F6
:100BC00001F0F2FB2146284601F04AFB214620466F
:100BD00001F046FB2146032001F042FB05B030BD89
:100BE0003C54000008B5164B1B681BB1144A13682F
:100BF000013B1360FFF7A6FDFFF7E2FC114B1B78EA
:100C000083B1114A138801339BB21380B3F57A7F05
:100C100008D3134600221A800C4A13889BB2013372
:100C20009BB213800A4A1368013313600F2B00D85C
:100C300008BD134600221A60FFF7ECFDF8E700BF7D
:100C4000F4000020B5000020F0000020B6000020D5
:100C5000EC000020034B1860024B1B68002BFBD1FB
:100C6000704700BFF400002008B5012201F0BDFD6F
:100C700008BD08B5002201F0B8FD08BDF8B506466C
:100C80000D46174600240EE029463046FFF7ECFFDC
:100C90006420FFF7DFFF29463046FFF7EAFF6420B4
:100CA000FFF7D8FF0134BC42EED3F8BD08B50022EF
:100CB0000421012001F032FD00220921012001F070
:100CC0002DFD00220721052001F028FD002205212D
:100CD000012001F023FD00220A21012001F01EFD68
:100CE00000220B21012001F019FD00220C2101201E
:100CF00001F014FD00220D21012001F00FFD002262
:100D00000E21012001F00AFD00220F21012001F037
:100D100005FD00220921022001F000FD012206212B
:100D2000104601F0FBFC01220721104601F0F6FC01
:100D300001220821002001F0F1FC012209210020FC
:100D400001F0ECFC00220C21104601F0E7FC08BD8C
:100D500008B5204B1B68204AA2FB03239B09013BDB
:100D6000B3F1807F0AD24FF0E02253611B4BF02198
:100D700083F823100023936107231361FFF796FF85
:100D8000FFF73EFCFFF782FDF0B104210120FFF7E1
:100D90006BFF1348FFF7D6FD1248FFF7D3FD124C47
:100DA0002046FFF7CFFD1148FFF7CCFD1048FFF7B5
:100DB000C9FD2046FFF7C6FD0E48FFF7C3FDFFF74C
:100DC0007BFCFFF747FDFEE7052204210120FFF72A
:100DD00055FFDEE710000020D34D621000ED00E06B
:100DE000645300006C53000090530000B4530000A3
:100DF000D8530000FC53000000B589B000200690D5
:100E00008DF81C0002238DF81B30039004908DF8A0
:100E1000140001238DF8143002F040FA10B109B02B
:100E20005DF804FB06A902F055FA0028F7D103A9E2
:100E300002F068FA0028F2D1032300930023034A4A
:100E40001946184602F0A2FAE9E700BFBD0E0000FD
:100E500000B589B0002306938DF81C3002208DF870
:100E60001B00039304938DF8143001238DF80C308C
:100E70008DF8143002F012FA10B109B05DF804FBDD
:100E800006A9022002F026FA0028F6D103A90220C2
:100E900002F038FA0028F0D1032300930023034A1C
:100EA0001946022002F072FAE7E700BFBF0E000009
:100EB00008B5FFF7A1FFFFF7CBFF08BD70477047EC
:100EC00000B587B0002302930393049305930F4B5F
:100ED000049301238DF814303223ADF8163002202C
:100EE00001F0B0FF10B107B05DF804FB02A90220C9
:100EF00001F0C0FF0028F6D1032300930023044A29
:100F00001946022002F002F8EDE700BFA0860100BA
:100F10001D0F000008B5FFF7D3FF08BD70470000A4
:100F200000B589B01C4B93E803000690ADF81C1087
:100F3000002003900490ADF8140001238DF80F30C9
:100F40008DF81030ADF812304FF47A73ADF81430DC
:100F500000F028FE10B109B05DF804FB06A900F00E
:100F600041FE0028F7D103A900F06EFE0028F2D15F
:100F700000900346094A012100F0DCFE0028EAD176
:100F80000021084600F04EFF0028E4D10021084669
:100F900000F059FFDFE700BF48540000A90F000030
:100FA00008B5FFF7BDFF08BD7047000000B587B06A
:100FB000134B53F8042BADF81420120C8DF81620A7
:100FC00003AA93E8030082E80300022000F01EFA5F
:100FD00010B107B05DF804FB05A9022000F042FA49
:100FE0000028F6D103A9022000F048FA0028F0D129
:100FF00000230093034A0121022000F093FAE8E75E
:10100000505400007310000000B587B0134B53F824
:10101000042BADF81420120C8DF8162003AA93E8C7
:10102000030082E80300012000F0F0F910B107B0DE
:101030005DF804FB05A9012000F014FA0028F6D1A0
:1010400003A9012000F01AFA0028F0D10023009330
:10105000034A0121084600F065FAE8E75054000011
:101060007110000008B5FFF7A1FFFFF7CDFF08BD25
:1010700070477047002807DB00F01F02400901237A
:101080009340024A42F82030704700BF00E100E080
:1010900000280CDB00F01F024009012393402030A0
:1010A000034A42F82030BFF34F8FBFF36F8F704772
:1010B00000E100E0002808DB0901C9B200F160404E
:1010C00000F5614080F80013704700F00F0009013F
:1010D000C9B2014B1954704714ED00E00C284CD8EC
:1010E00000B5072828D94FF0804EDEF8282100F0FF
:1010F000070308334FF0010C0CFA03FC22EA0C0240
:1011000001FA03F31343CEF82831072826D94FF00C
:10111000804CDCF8303100F00700083001228240BA
:1011200023EA020301FA00F00343CCF8303139BB63
:101130000020154B186024E04FF0804EDEF82C3074
:1011400000F108024FF0010C0CFA02FC23EA0C0338
:1011500001FA02F21343CEF82C30D6E74FF0804C60
:10116000DCF8343008300122824023EA020301FA1D
:1011700000F00343CCF83430D9E76FF0010070473A
:1011800000205DF804FB00BF340300200C2808D8C1
:10119000DFE800F0220A0C0E10121416181A1C1E9A
:1011A00020006FF0100070474020704741207047CA
:1011B0004220704743207047442070476C2070479E
:1011C0006D2070476E2070476F2070477020704709
:1011D00071207047722070473F2070470C284FD80D
:1011E000052947D8DFE801F003202830373E264B99
:1011F00093FBF2F32548036000204FF08043D3F8BF
:10120000A83023F0E063002937D109060B434FF0E3
:101210008041C1F8A830D1F8A83023F47F0343EA15
:101220000242C1F8A82070474FF4004393FBF2F349
:10123000164803600020E0E7154B1B68B3FBF2F390
:10124000124803600020D8E7124B93FBF2F30F48DB
:1012500003600020D1E7104B93FBF2F30B480360CF
:101260000020CAE70A4B1B68B3FBF2F30748036090
:101270000020C2E76FF00500BFE702310906C5E7AD
:101280006FF00100704700BF20A107003403002069
:10129000100000200024F40000093D0000F580004B
:1012A00080300002704708B5FFF718FF08BD000046
:1012B00070B582B0002300930C2861D80446FFF774
:1012C000EDFF83680193019B03F00603062B21D0F9
:1012D000019B13F0040F55D1019B13F0020F03D1B2
:1012E000019B13F0100F3CD03C4B2C2202FB04332B
:1012F00099691A6A914262D0036823F0FF03374963
:101300002C2505FB04110D69561C0E62AA5C1343C3
:10131000036026E0009B43F004030093436913F04D
:10132000100F03D0009B43F008030093436913F0B0
:10133000080F03D0009B43F010030093436913F0A0
:10134000040F03D0009B43F020030093436913F084
:10135000020F03D0009B43F0400300930368002377
:1013600043601E4B2C2202FB04335B6843B1009A9E
:1013700032B10098194A2C2101FB04229168984748
:1013800002B070BD0568154B2C2202FB043359696D
:101390005A6A561C5E628D54DA695B6A9A42E0D1E1
:1013A000436823F0010343600C4B2C2202FB0433FF
:1013B00000225A73009B43F002030093D1E7074BCE
:1013C0002C2202FB043300221A73436823F0020329
:1013D0004360009B43F001030093C2E7F800002044
:1013E00010B5002400E001340C2C0BDC064B2C2241
:1013F00002FB043393F82830002BF4D0E0B2FFF75F
:1014000057FFF0E710BD00BFF800002038B50C28EA
:1014100022D804460121FFF746FF0546D0B92046F1
:10142000FFF73CFF03462C220D4802FB040000E0BE
:101430001A685A6912F0010FFAD15A6912F0200F96
:10144000FBD000215960D96019615A699B682C2230
:1014500002F050FE284638BD6FF00105FAE700BFE4
:10146000F80000200C2805D808B58A784978FFF7DD
:10147000B5FE08BD6FF00100704700000C2843D88E
:1014800010B50C46FFF70AFF2279032A3FD8C3683C
:1014900023F003031343C3606379042B3AD80AD0C3
:1014A000C36843F00803C360C36823F01003627984
:1014B00043EA0213C360A279012A2ED8C36823F03D
:1014C000040343EA8203C360E279436823F0040320
:1014D00043EA82034360124B1B6822681201B3FB8C
:1014E000F2F102FB11331B02B3FBF2F3026A6FF35A
:1014F0000F0289B20A430262426A22F0FF02DBB2A3
:1015000013434362002010BD6FF0010070476FF07D
:101510000500F8E76FF00500F5E76FF00500F2E76A
:10152000340300200C287ED82DE9F04104460E46F5
:1015300090461F46FFF72AFE0546012E1BD073B2C8
:10154000002B4DD0F31EDBB2012B49D801233A46C4
:10155000364901F0B1FD30B9354B2C2202FB043382
:10156000C3F804809F60324B2C2202FB043301221B
:1015700083F8282020E02E4B2C2202FB043393F822
:10158000283003BB2A4B2C2202FB0433C3F804800F
:101590009F60002D08DB05F01F016B0901228A40C6
:1015A0006033244941F8232006992846FFF782FD3D
:1015B0002846FFF75FFD00202C2303FB04F41C4B9F
:1015C0001E55BDE8F08100231A46194601F074FD4E
:1015D000174B2C2202FB0433002283F82820D1E78A
:1015E00000231A461946284601F066FD104B2C22AE
:1015F00002FB0433002283F82820954208DB05F023
:101600001F016B0901228A4060330A4941F82320F7
:101610002846FFF73DFD064B2C2202FB0433002039
:1016200058609860C8E76FF001007047E113000050
:10163000F800002000E100E00C2856D82DE9F8431E
:1016400004460F4690469946FFF728FE2A4B2C2267
:1016500002FB04331B7B012B4AD0274B154604FBAE
:1016600005F55E19012232733761C6F81880002231
:1016700032625B5D4BB3B9F1000F26D1436913F0C1
:10168000200F0BD0036823F0FF031B4A2C2101FB22
:101690000422012111623A7813430360436843F046
:1016A0000203436000201EE0036823F0FF03124A98
:1016B0002C2505FB042215694E1C16626A5C134337
:1016C0000360436913F0200FFBD00B4B2C2202FB6D
:1016D00004339A69196A8A42E6D8074B2C2202FB26
:1016E000043300201873BDE8F8836FF001007047E1
:1016F0006FF00200F7E700BFF80000202DE9F84383
:101700000C2879D80546884617469946FFF7C6FD46
:1017100004463C4B2C2202FB05335B7B022B6ED034
:10172000384B104605FB00F01E1802227273C6F8F3
:101730001480F761002272621F5C17B1B9F1000FCB
:1017400053D02846FFF722FD0646002F33D0FFF77F
:101750009FFC30E0013B626912F0010F15D1002BB4
:10176000F8D1284B2C2202FB053300225A736FF06C
:101770000304244B2C2202FB05F55A190021517356
:101780005B5D73BB2046BDE8F883002BE9D0606940
:1017900063699B08626943EAD00343EA520313F08A
:1017A000010F13D12068174B2C2202FB05335A6915
:1017B0004F1C5F625054134B2C2202FB0533DA6935
:1017C000596A8A420BD942F21073C4E70D4B2C229E
:1017D00002FB053300225A736FF00804C9E70024A6
:1017E000C7E73046FFF746FCCCE72368636843F061
:1017F000010363600024C5E76FF00104C2E76FF0E6
:101800000204BFE7F80000200C2813D810B50446E6
:10181000FFF744FDC36843F04003C360C36823F08F
:101820004003C360054B2C2202FB043300201873D5
:10183000587310BD6FF00100704700BFF800002022
:1018400008B50020FFF734FD08BD08B50120FFF7FB
:101850002FFD08BD08B50220FFF72AFD08BD08B519
:101860000320FFF725FD08BD08B50420FFF720FD84
:1018700008BD08B50520FFF71BFD08BD08B506200B
:10188000FFF716FD08BD08B50720FFF711FD08BDDD
:1018900008B50820FFF70CFD08BD08B50920FFF7C3
:1018A00007FD08BD08B50A20FFF702FD08BD08B511
:1018B0000B20FFF7FDFC08BD08B50C20FFF7F8FC76
:1018C00008BD0000002807DB00F01F0240090123CB
:1018D0009340024A42F82030704700BF00E100E028
:1018E00000280CDB00F01F02400901239340203048
:1018F000034A42F82030BFF34F8FBFF36F8F70471A
:1019000000E100E0002808DB0901C9B200F16040F5
:1019100000F5614080F80013704700F00F000901E6
:10192000C9B2014B1954704714ED00E0092813D8CF
:101930004FF08042936A10304FF0010C0CFA00FC1B
:1019400023EA0C0381400B439362136B23EA0C03DD
:1019500019431163002070476FF001007047092898
:1019600006D8DFE800F01A080A0C0E101214161838
:101970006FF0100070471020704711207047122040
:1019800070471320704714207047152070471620A9
:10199000704717207047182070470F2070470328A2
:1019A00009D8DFE800F00206040A00207047022090
:1019B000704703207047042070470120704702469B
:1019C000806910F0040000D00220936913F0020F28
:1019D00001D040F00400936913F0010F01D040F0F2
:1019E0000800704710B40C6824F0700444F0400400
:1019F0000C60052A3AD8DFE802F00A0A0705030955
:101A0000062204E0052202E0042200E007224FF053
:101A10008041D1F8981004281ED96FF0E06421406D
:101A200004281CD91824A2400A434FF08041C1F871
:101A30009820D1F89820042813D96FF47F010A4028
:101A4000042811D910218B4013434FF08042C2F873
:101A50009830002010BC70476FF4E064DFE7082482
:101A6000E1E76FF0FF01EAE70021ECE76FF0050026
:101A7000F0E7032A03D8DFE802F006060606002294
:101A80006FF0050000E000200B6823F0700343EACC
:101A900002130B60704700F18070C0308001704706
:101AA00008B5FFF743FF08BD38B50546FFF7F3FF5C
:101AB0000446FFF784FF034610F0030017D02E4AB8
:101AC00002EB0512127B032A03D8DFE802F00F0DA8
:101AD0000F0400200BE0284A02EB0512527B12F0A3
:101AE000020F11D1002002E0082000E0012013F0D5
:101AF000040F1BD0204A02EB0512127B032A15D8D3
:101B0000DFE802F0041104070220F0E740F00100D2
:101B10000DE0194A02EB0512527B12F0020F05D0BC
:101B200040F0040003E040F0100000E078B1A2694A
:101B300042F00402A261A26942F00202A261A2691B
:101B400042F00402A261A26942F00202A26113F013
:101B5000080F05D040F02000A36943F00103A36102
:101B6000054B03EB05135B682BB120B1024A02EB76
:101B700005129168984738BD3803002010B500243D
:101B800000E00134092C09DC054B03EB04139B7BBB
:101B9000002BF6D0E0B2FFF787FFF2E710BD00BFE1
:101BA0003803002038B5092816D804460121FFF76C
:101BB00077FF054608B1284638BD2046FFF76BFF82
:101BC0002101074A02EB0414002353506360A36011
:101BD000E36003604360EEE76FF00105EBE700BFF1
:101BE00038030020092829D870B505460C468B8893
:101BF000B3F5806F25D2FFF74EFF06462378012B01
:101C00000CD0022B10D0B3B9A378627801462846D5
:101C1000FFF7E8FE0020A388B36070BD036843F0BF
:101C2000700303600020F6E7627801462846FFF75C
:101C300020FF0020EFE76FF00500ECE76FF00100F8
:101C400070476FF00500E8E7092868D8F8B5064640
:101C50000D460F78032F65D8FFF71DFF0446384661
:101C6000FFF79DFE236823F00303C0B218432060F2
:101C70006A78236823F0800343EAC2132360EB7879
:101C800073B12B78032B50D8DFE803F0022F022228
:101C9000E36943F00403E361E36943F00203E361B2
:101CA0002A78234B03EB06131A732B791BB1E369D4
:101CB00043F00103E3612B78032B26D0EB88E3602C
:101CC0002B892361636843F0020363600020F8BD41
:101CD000E36943F00403E361E36943F00203E36172
:101CE000236843F400632360DAE7E36943F0040305
:101CF000E361E36943F00203E361236823F00C032B
:101D0000AA7843EA82032360CAE7EB88E3602B8961
:101D10002361074B03EB061306225A73D2E76FF0D9
:101D2000010070476FF00500D1E76FF00500CEE7C6
:101D30003803002009286BD82DE9F04104460E46EF
:101D400090461F46FFF70BFE0546012E20D0022EBF
:101D50004CD000231A46194601F0AEF92E4B03EB86
:101D6000041300229A73954208DB05F01F016B09EA
:101D700001228A406033294941F823202846FFF791
:101D8000AFFD254B03EB04130020986058601DE065
:101D9000214B03EB04139B7BEBB91F4B03EB0413A9
:101DA000C3F804809F60002D08DB05F01F016B095C
:101DB00001228A406033194941F8232006992846B8
:101DC000FFF7A0FD2846FFF77DFD00202401124B00
:101DD0001E55BDE8F08100231A46194601F06CF942
:101DE0000D4B03EB041300229A73D6E701233A4606
:101DF0000B4901F061F928B9074B03EB0413C3F851
:101E000004809F60044B03EB041301229A73DDE707
:101E10006FF00100704700BF3803002000E100E0D0
:101E20007D1B000009280BD810B50C46FFF733FEC8
:101E3000036823F4006343EAC4230360002010BD59
:101E40006FF00100704709280BD810B50C46FFF75A
:101E500022FE036823F4805343EA04330360002026
:101E600010BD6FF00100704708B50020FFF71CFEA1
:101E700008BD08B50120FFF717FE08BD08B5022010
:101E8000FFF712FE08BD08B50320FFF70DFE08BDE1
:101E900008B50420FFF708FE08BD08B50520FFF7C8
:101EA00003FE08BD08B50620FFF7FEFD08BD08B516
:101EB0000720FFF7F9FD08BD08B50820FFF7F4FD7E
:101EC00008BD08B50920FFF7EFFD08BD104B98428B
:101ED0000DD9104B984213D90F4B984212D90F4B82
:101EE000984211D90E4B984210D8042100E00021ED
:101EF0004FF08242136823F00F030B4313607047C7
:101F00000121F5E70221F3E70321F1E70521EFE7DE
:101F1000408AF7018014EF0300E1F505406BED07FF
:101F200080F5E40904285FD8DFE800F02533414F4D
:101F300003004FF0070C00204FF08043596C21F054
:101F4000706141EA02625A64596CC1F30241294A44
:101F50001268CA4028490A604FF082410A6822F09C
:101F60000F0242F005020A605A6C22F0070242EAB0
:101F70000C025A6470474FF080410B6C43F002032F
:101F80000B641E4B13411B490B604FF0060C0020E5
:101F9000D2E74FF080410B6C43F008030B64184B01
:101FA000134114490B604FF0020C0020C4E74FF0BE
:101FB00080410B6C43F020030B64124B13410D491D
:101FC0000B604FF0000C6046B6E74FF080410B6CA1
:101FD00043F080030B644FF40043134105490B6049
:101FE0004FF0010C0020A7E74FF0000C6FF0050048
:101FF000A2E700BF100000200C00002000093D00F7
:102000000024F40020A107000F292ED84FF08042B1
:10201000136D23F00F0301F00F010B431365072825
:102020001CD8DFE800F015121F07181B1B04042141
:10203000002001E0012100204FF08042136D23F0C9
:10204000E00343EA41131365704705210020F3E7DD
:1020500006210020F0E707210020EDE700216FF0C6
:102060000500E9E700210846E6E76FF00500704744
:102070004FF0804CDCF8443023F4407343EA0123F2
:10208000CCF84430032925D8DFE801F002141216F9
:10209000012398B1012820D14FF08040016C41F01C
:1020A000020101640E49B1FBF3F313600020704795
:1020B0000423EEE70223ECE70823EAE74FF0804031
:1020C000016C41F0080101640649B1FBF3F31360B0
:1020D000002070476FF0050070476FF005007047F3
:1020E00000093D000024F40082B00C4B1B680C4A30
:1020F000A2FB0312920C0B498B4200D8012200FB79
:1021000002F20023019303E000BF019B013301931E
:10211000019B9342F8D302B0704700BF100000202B
:1021200083DE1B433F420F0010B5034601280FD04A
:1021300002281AD030BB4FF08042906C10F0200083
:1021400021D01146926C42F020028A6401201AE0EC
:102150004FF08042906C10F0020014D01146926C47
:1021600042F002028A6402200DE04FF08042906C3F
:1021700010F4007007D01146926C42F400728A6429
:10218000042000E0002003EB4302044951F8224000
:102190001CB101EB82035968A04710BDD803002091
:1021A00038B50378042B43D0002B46D000214FF0E4
:1021B0008042536C23F4805343EA013353648278A2
:1021C00041780078FFF7AEFE054678BB1C4B1C68D3
:1021D000E30E6101091B63F100039B0043EA917365
:1021E0008900091943F100034FEAC30C154A002383
:1021F000C8004CEA517101F0EFFB134BA3FB003018
:102200008008124B1860124BA3FB0423DB0C114A0D
:102210001360114B9C4202D8134601221A60C82059
:1022200001F0CCFB064B1868FFF750FE284638BD7E
:102230000A4B1A68024B1A60C1E70121B7E700BFD9
:102240001000002040420F00ABAAAAAA08000020FC
:10225000819F5E16040000207F8D5B00FC03002040
:1022600003282BD8DFE800F0020C16204FF0804244
:10227000136C23F0020343EA410313640020704708
:102280004FF08042136C23F0080343EAC103136448
:10229000002070474FF08042136C23F0200343EA84
:1022A00041131364002070474FF08042136C23F0F9
:1022B000800343EAC1131364002070476FF00500E8
:1022C0007047000030B583B00023019348B94FF048
:1022D0008042136E23F4800313660025284603B062
:1022E00030BD0C4605464FF08042136E43F4800328
:1022F00013660220FFF7F8FE2378012B00D000259B
:102300004FF08042536C23F4805343EA0533536407
:1023100001AA61782078FFF7ABFE05460028DDD1E1
:10232000A37803F00F0343F48003E27843EA022327
:102330006279120402F47022134343F40013A27969
:10234000920602F040621343E279120602F04072F4
:1023500013434FF0804213664FF4FA70FFF7C4FE48
:102360000F4B1B684FF4FA7202FB03F34FF08042ED
:10237000126E002A04DB0BB1013BF7E76FF0030597
:10238000002DABD16279A378013302FB0332019BAC
:10239000B3FBF2F3E27802FB0333024A13609DE7DA
:1023A00004000020FC03002010B51446FFF72CFEAB
:1023B00038B94FF080410B6D23F0100343EA04134A
:1023C0000B6510BD04280ED84FF08042536C23F4E7
:1023D000E02343EA00435364044B1B68C340044AB0
:1023E0001360002070476FF0050070471000002058
:1023F0000C00002008B50020FFF796FE08BD08B5C8
:102400000120FFF791FE08BD08B50220FFF78CFE02
:1024100008BD0000002807DB00F01F02400901236F
:102420009340024A42F82030704700BF00E100E0CC
:1024300000280CDB00F01F024009012393402030EC
:10244000034A42F82030BFF34F8FBFF36F8F7047BE
:1024500000E100E0002808DB0901C9B200F160409A
:1024600000F5614080F80013704700F00F0009018B
:10247000C9B2014B1954704714ED00E0062805D885
:10248000DFE800F01307090B0D0F11006FF01000CB
:102490007047252070472620704727207047282046
:1024A0007047292070472A2070472420704703284E
:1024B0001CD8022839D2012853D84FF08043D3F8D2
:1024C0009C3023F0E06301292DD9023109060B432A
:1024D0004FF08041C1F89C30D1F89C3023F47F0349
:1024E00043EA0243C1F89C30002070470438C0B270
:1024F000022839D84FF08043D3F8A03023F0E063AE
:1025000001292CD9023109060B434FF08041C1F853
:10251000A030D1F8A03023F47F0343EA0243C1F88E
:10252000A030002070470906D1E74FF08043D3F870
:10253000A03023F4E06301290FD9023109020B43D3
:102540004FF08041C1F8A030D1F8A03023F0FF0354
:102550001343C1F8A030002070470902EFE70906D5
:10256000D2E76FF0050070476FF00500704700007C
:1025700030B400F5820000F580700002154CD4F8EC
:10258000F05F25F0FF0545F01505C4F8F05FD4F8BD
:10259000F05F25F0FF0545F05105C4F8F05F856A4E
:1025A00049004FF0030C0CFA01FC25EA0C058B40A6
:1025B0001D438562036A23EA0C038A4013430362C6
:1025C000D4F8F03F23F0FF03C4F8F03F002030BC04
:1025D000704700BF00000141062801D80020704765
:1025E0006FF005007047000010B584461046114B8F
:1025F000D3F8F04F24F0FF0444F01504C3F8F04F73
:10260000D3F8F04F24F0FF0444F05104C3F8F04F26
:102610004A62D3F8F02F22F0FF02C3F8F02F064BE6
:1026200003EB0C135A6822B1034B03EB0C139968AC
:10263000904710BD000001410004002010B50024A7
:1026400000E00134062C12DC094B03EB04131B7B66
:10265000002BF6D0E1B2090201F1824101F580318F
:102660004A6A002AEDD0E0B2FFF7BEFFE9E710BDED
:102670000004002008B5044B5A6A02B908BD194687
:102680000020FFF7B1FFF9E70000014108B5044B56
:102690005A6A02B908BD19460120FFF7A5FFF9E7FC
:1026A0000001014108B5044B5A6A02B908BD194638
:1026B0000220FFF799FFF9E70002014108B5044B3A
:1026C0005A6A02B908BD19460320FFF78DFFF9E7E2
:1026D0000003014108B5044B5A6A02B908BD194606
:1026E0000420FFF781FFF9E70004014108B5044B1E
:1026F0005A6A02B908BD19460520FFF775FFF9E7C8
:102700000005014108B5044B5A6A02B908BD1946D3
:102710000620FFF769FFF9E70006014170B504469E
:102720000D461646FFF758FF002841D1014604F533
:10273000820303F580731B021F48D0F8F02F22F0AC
:10274000FF0242F01502C0F8F02FD0F8F02F22F06F
:10275000FF0242F05102C0F8F02F072D17D81A6877
:10276000AD000F20A84022EA0002042E0DD846F04A
:102770000806AE4032431A600F4AD2F8F03F23F009
:10278000FF03C2F8F03F084670BD0F26F1E75A6814
:10279000083DAD000F20A84022EA0002042E05D813
:1027A00046F00806AE4032435A60E5E70F26F9E7E7
:1027B0006FF00101E7E700BF0000014170B504467A
:1027C0000D461646FFF708FF60B904F5820303F5CE
:1027D00080731B025B6B0122AA40134023FA05F1B0
:1027E000317070BD6FF00100FBE770B504460E4616
:1027F0001546FFF7F1FEA8B904F5820303F58073CF
:102800001B023DB99A6B0121B14022EA01020A4341
:102810009A6370BDDA6B0121B14022EA01020A43DA
:10282000DA63F6E76FF00100F3E7F0B583B007462F
:102830000C4615461E46FFF7CFFE50B99DF82030D6
:10284000009333462A4621463846FFF791FE03B0EF
:10285000F0BD6FF00100FAE770B504460E4615466C
:10286000FFF7BAFE20BB04F5820303F580731B0259
:10287000114CD4F8F02F22F0FF0242F01502C4F8F8
:10288000F02FD4F8F02F22F0FF0242F05102C4F8EA
:10289000F02F1A690121B14022EA0102B5402A4312
:1028A0001A61D4F8F03F23F0FF03C4F8F03F70BD85
:1028B0006FF00100FBE700BF0000014138B505469D
:1028C0000C46FFF789FE28B9627821782846FFF781
:1028D000EEFD38BD6FF00100FBE7000070B5044667
:1028E00006783046FFF7CAFD05466378012B20D0F5
:1028F000022B4DD000231A46194600F0DDFB2E4B6B
:1029000003EB061300221A73954208DB05F01F0142
:102910006B0901228A406033284941F82320284668
:10292000FFF786FD244B03EB0613002098605860E8
:102930001EE0214B03EB06131B7BF3B962681E4BB1
:1029400003EB06135A60A2689A60002D08DB05F0BD
:102950001F016B0901228A406033184941F8232086
:10296000E1682846FFF776FD2846FFF753FD002073
:1029700061783301104AD15470BD00231A461946BC
:1029800000F09AFB0C4B03EB061300221A73D5E7F9
:102990000123A2680A4900F08FFB30B96268064B38
:1029A00003EB06135A60A2689A60034B03EB06130D
:1029B00001221A73DCE700BF0004002000E100E000
:1029C0003D26000008B5FFF755FE08BD08B5FFF726
:1029D0005DFE08BD08B5FFF765FE08BD08B5FFF749
:1029E0006DFE08BD08B5FFF775FE08BD08B5FFF719
:1029F0007DFE08BD08B5FFF785FE08BD002807DB92
:102A000000F01F02400901239340024A42F820309F
:102A1000704700BF00E100E000280CDB00F01F025F
:102A20004009012393402030034A42F82030BFF38D
:102A30004F8FBFF36F8F704700E100E0002808DB85
:102A40000901C9B200F1604000F5614080F800134F
:102A5000704700F00F000901C9B2014B19547047CB
:102A600014ED00E0032813D84FF08042D36A0430FD
:102A70004FF0010C0CFA00FC23EA0C0381400B43DD
:102A8000D362536B23EA0C03194351630020704750
:102A90006FF001007047032803D8DFE800F00B0552
:102AA00007096FF0100070473D2070473E207047C7
:102AB000642070473C20704700F58000A030000281
:102AC000704708B5FFF7CEFF08BD000070B582B0B3
:102AD00000230093032800F28F810446FFF7ECFFE8
:102AE000054683680193019B472B3CD8152B38D3AF
:102AF000153B322B00F25D81DFE813F0DC005B0157
:102B000073005B015B015B015B015B015B015B01CE
:102B10005B01FE005B0155005B015B015B015B013A
:102B20005B015B015B015B015B015B015B015B01C5
:102B30005B015B015B015B015B015B015B015B01B5
:102B40005B015B015B015B015B015B015B015B01A5
:102B50005B015B015B015B015B011C011C01A700C8
:102B6000A700002326E1972B00F24881852B18D37C
:102B7000853B122B00F21B81DFE813F08100FC0083
:102B80004D00190119011901190119011901190142
:102B9000190119011901190119011901AD001901D2
:102BA0006700002306E19B4B2C2202FB04331A6AC8
:102BB0009B699A42C0F02481964B2C2202FB04337D
:102BC0005B7B002B00F0F680009B43F00103009339
:102BD000904A2C2303FB0422002313629361537356
:102BE000E8E08C4B2C2202FB04331B7B002B40F0D3
:102BF000CE80884B02FB04331A6A9B699A42C0F06C
:102C0000C680436943F002034361436923F008032C
:102C100043610023CEE07F4B2C2202FB04331B7B5D
:102C2000002B40F0B4807B4B02FB04331A6A9B6993
:102C30009A42C0F0AC806B6943F002036B616B6930
:102C400023F008036B610023B4E0724B2C2202FBDB
:102C500004331B7B002B40F09A806E4B02FB043345
:102C60001A6A9B699A42C0F092806B6943F0020332
:102C70006B616B6923F008036B6100239AE0654B7D
:102C80002C2202FB04331B7B002B40F0BB80614BEA
:102C900002FB0433012283F828205A6A0132DB69DF
:102CA0009A4201D0002385E06B6923F008036B6131
:102CB00000237FE0574B2C2202FB04331B7B012BAC
:102CC00001D0002376E0534B02FB0433012283F84A
:102CD000282000236EE04F4B2C2202FB04331B7B89
:102CE000012B01D0002365E04A4A2C2303FB042278
:102CF000012382F828305DE0464B2C2202FB04338E
:102D00005A6ADB699A427FD3424B2C2202FB04337E
:102D100093F82830002B4DD0009B43F00203009322
:102D20003C4A2C2303FB042200235362937382F852
:102D300028303FE0374B2C2202FB04331B7B002B57
:102D400064D1344B02FB04335A6A511CDB69013BEA
:102D5000994203D09A4207D001232BE0436923F024
:102D600008034361012325E0436943F00203436103
:102D700001231FE0274B2C2202FB04331B7B002B7B
:102D800046D16B6943F001036B61002312E02B68AD
:102D900023F0FF031F4A2C2101FB04221069116A52
:102DA0004E1C1662425C13432B60002302E000239A
:102DB00000E000237BB1174B2C2202FB043393F875
:102DC000283043B12868134B02FB043359695A6A0F
:102DD000561C5E6288540F4B2C2202FB04335B6846
:102DE00043B1009A32B100980A4A2C2101FB042217
:102DF000916898477923AB6002B070BD0023D9E792
:102E00000023D7E70023D5E70023D3E70123D1E749
:102E10000023CFE77004002010B5002400E0013447
:102E2000032C0BDC064B2C2202FB043393F82930D5
:102E3000002BF4D0E0B2FFF749FEF0E710BD00BF71
:102E40007004002038B503280FD804460121FFF78D
:102E500038FE054608B1284638BD2C22002104481A
:102E600002FB040001F046F9F5E76FF00105F2E717
:102E700070040020032841D838B505460C46FFF7FA
:102E80001BFE034621781F4A2C2000FB05221173EC
:102E9000DA6822F0FE02617842EA4102DA60DA681A
:102EA00022F00102A1780A43DA60A168E9B1164A6A
:102EB0001268B2FBF1F2C2F34F02901E80B2033AE5
:102EC00092B299696FF30F0101439961D9696FF368
:102ED0000F010A43DA61227B52B11A6A6FF30E02C4
:102EE000E1890A431A62002038BD20896289E8E737
:102EF0001A6A6FF30E021A620020F5E76FF0010004
:102F0000704700BF700400200C00002003287ED80A
:102F10002DE9F04104460E4690461F46FFF7BBFDE3
:102F20000546012E1BD073B2002B4DD0F31EDBB231
:102F3000012B49D801233A46364900F0BDF830B993
:102F4000354B2C2202FB0433C3F804809F60324BC4
:102F50002C2202FB0433012283F8292020E02E4B8F
:102F60002C2202FB043393F8293003BB2A4B2C227A
:102F700002FB0433C3F804809F60002D08DB05F0DA
:102F80001F016B0901228A406033244941F8232044
:102F900006992846FFF752FD2846FFF72FFD00202F
:102FA0002C2303FB04F41C4B1E55BDE8F0810023C9
:102FB0001A46194600F080F8174B2C2202FB043306
:102FC000002283F82920D1E700231A461946284613
:102FD00000F072F8104B2C2202FB0433002283F81D
:102FE0002920954208DB05F01F016B0901228A4068
:102FF00060330A4941F823202846FFF70DFD064BB0
:103000002C2202FB0433002098605860C8E76FF060
:1030100001007047192E00007004002000E100E05C
:1030200008B50020FFF752FD08BD08B50120FFF7E5
:103030004DFD08BD08B50220FFF748FD08BD08B5E5
:103040000320FFF743FD08BD38B54FF080439D6D69
:1030500045F00C429A65002400E00134072C1CDC8A
:1030600004EB44029300134AD35C002BF5D025FAFD
:1030700004F313F0010FF0D004EB44039A000D4B5E
:1030800013445A68002AE8D004EB44039900094B22
:103090000B44996801209047DFE7064B93F85430C2
:1030A0003BB115F4004F04D0024B9A6DD96D01204D
:1030B000904738BD2005002010B44FF0804CDCF85C
:1030C000544024F4004444EAC334CCF854400F4C38
:1030D00084F8543073B1DCF8543023F47F03C0B269
:1030E00043EA0040CCF85400084B9965DA650020AB
:1030F00010BC70474FF08042536D23F47F0353653B
:10310000024B00229A65DA65F1E700BF2005002036
:1031100008B5FFF799FF08BD002807DB00F01F0284
:10312000400901239340024A42F82030704700BF13
:1031300000E100E000280CDB00F01F024009012341
:1031400093402030034A42F82030BFF34F8FBFF343
:103150006F8F704700E100E0002808DB0901C9B269
:1031600000F1604000F5614080F80013704700F006
:103170000F000901C9B2014B1954704714ED00E06A
:10318000022813D84FF08042D36A14304FF0010C5C
:103190000CFA00FC23EA0C0381400B43D362536B0F
:1031A00023EA0C0319435163002070476FF00100BC
:1031B000704700F5820000F590700002704708B576
:1031C000FFF7DEFF08BD000008B5FFF7F2FF01467C
:1031D000036843F080030360836823F4FE4343F4F1
:1031E00000738360036823F0300343F0100303602F
:1031F000036843F4E0630360036A43F0010303627E
:10320000064B4A6A12F0040F04D1013BF9D16FF06A
:10321000030000E000204B6A4B6208BDA08601005D
:1032200010B50446FFF7C5FF436A436213F001007F
:1032300000D0012013F0040F01D040F0020013F081
:10324000080F01D040F0040004F10802D34013F04D
:10325000010F01D040F00800054B03EB04135B683D
:103260002BB120B1024A02EB04129168984710BDBD
:103270008005002010B5002400E00134022C09DC98
:10328000054B03EB0413DB7B002BF6D0E0B2FFF71A
:10329000C7FFF2E710BD00BF80050020022813D849
:1032A00010B504460121FFF78AFF034600B110BDA7
:1032B0002001074901EB04120B5053609360D36067
:1032C0002046FFF781FFF2E76FF00100704700BF73
:1032D0008005002002280FD810B50C46FFF769FFC3
:1032E0002378012B0BD0836823F4FE43E27843EA72
:1032F00002238360002010BD6FF0010070476FF063
:103300000400F8E7022839D838B505460C46FFF71F
:1033100050FF0346A278012A33D0026822F030021F
:103320002178012913D9013909010A431A601A6861
:1033300022F4E062E17842EA01221A601A6822F07F
:103340000702617829B1012904D00B2102E0002194
:10335000EBE700210A431A601A6822F04002617903
:1033600042EA81121A601A6A42F002021A62227854
:10337000054B03EB05131A73002038BD6FF00100F5
:1033800070476FF00400F8E78005002002287ED81F
:103390002DE9F04104460D4690461F46022979D09A
:1033A000012804D0022804D0E8B94A2602E04B26BE
:1033B00000E04C26022D19D9EB1EDBB2012B46D8BA
:1033C00001233A4635493046FFF776FE28B9344B9B
:1033D00003EB0413C3F804809F60314B03EB041329
:1033E0000122DA7322E06FF01006E3E76BB273B3E9
:1033F0002B4B03EB0413DB7BEBB9294B03EB0413DF
:10340000C3F804809F60002E08DB06F00F017309EB
:1034100001228A406033234941F82320069930462F
:10342000FFF79AFE3046FFF777FE002024011C4B81
:103430001D55BDE8F08100231A4619463046FFF7B6
:103440003BFE174B03EB04130022DA73D5E700238E
:103450001A4619463046FFF72FFE114B03EB0413B3
:103460000022DA73964208DB06F00F01730901228D
:103470008A4060330B4941F823203046FFF75AFE5B
:10348000074B03EB0413002098605860CEE76FF001
:10349000010070476FF00400CBE700BF75320000F9
:1034A0008005002000E100E002282BD810B504467A
:1034B000FFF77FFE0346002242624262426224011D
:1034C000124A125D8AB9826A22F001028262826A1D
:1034D00022F004028262826A22F0080282621A6A80
:1034E00042F001021A62002010BD826A42F001021D
:1034F0008262826A42F004028262826A42F00802B8
:103500008262ECE76FF00100704700BF8005002089
:1035100002281AD838B50D461446072918D8FFF7DF
:1035200048FE23786BB12C300368C3F30B13638020
:103530000368C3F30443237103681B0E6371002007
:1035400038BD303000EB8500EEE76FF001007047CA
:103550006FF00100F4E708B50020FFF761FE08BD39
:1035600008B50120FFF75CFE08BD08B50220FFF793
:1035700057FE08BD08B5014601231A460020FEF794
:103580005BF808BD08B50146002301221846FEF786
:1035900053F808BD08B5014601231A460020FEF77E
:1035A000ADF808BD08B50146002301221846FEF714
:1035B000A5F808BD08B50020FEF726F908BD0000F3
:1035C00010B586B00024049405944FF41643049378
:1035D00003238DF8143004238DF815300D4B1B6830
:1035E000ADF80C301B0C8DF80E302046FDF70EFFA9
:1035F00003A92046FDF736FF04A92046FDF73EFF4C
:103600000F2300932346044A01212046FDF78AFF39
:1036100006B010BD5C5400001D36000010B5044615
:1036200010F0020F03D114F0010F03D110BD00F010
:1036300007F9F8E700F07CF8F8E7000008B5024861
:1036400000F0AAF808BD00BF140000200FB410B5A8
:1036500082B004AB53F8042B0193074C8021204621
:1036600000F03AFD2146054800F002FC002002B0BF
:10367000BDE8104004B07047B0050020245400009D
:1036800070B50E461546002403E0305700F0AAF846
:103690000134AC42F9DB284670BD10B50C46002061
:1036A00000F004F9B0F1FF3FF9D02070012010BD07
:1036B00001207047012070470120704700207047AB
:1036C000016000238371013A82808360C360704788
:1036D00038B572B6134A938895681D40D268134076
:1036E0009D4205D2C3F500732B449DB2002412E025
:1036F000ED1AADB2FAE70B4B1968DA689888024008
:103700008A5C09480270DA680132DA60074B1B688C
:103710005B6998470134A542EDDC024B00229A71A7
:1037200062B638BD3006002069080020600800201D
:1037300008B5164B9A68DB689A421CD0134A9188E8
:1037400093680B40D2680A40934218D2C2F50072C7
:103750001A4493B2FF2B15D80C4B1A68D868014055
:10376000525C0B480270DA680132DA60094B1B6860
:103770001B69984708BD054B00229A71FAE79B1A0E
:103780009BB2E7E7FFF7A4FFF4E700BF3006002095
:10379000690800206008002008B50C4B1860036819
:1037A000984710220A490B48FFF78AFF4FF400722E
:1037B00009490A48FFF784FF094B186800230222D1
:1037C0001946806800F066FB002008BD60080020F4
:1037D000500800204006002050060020300600203F
:1037E0003800002038B5044672B6124B9B79A3B955
:1037F000104B01229A71C5B20F4805700F4B1B6820
:103800001B69984790B10B4B19689A6898880240D9
:103810008D549A6801329A6008E0064B19689A68DC
:10382000988802408C549A6801329A6062B62046A9
:1038300038BD00BF30060020690800206008002065
:1038400008B5164B1878082809D040B2FFF7CAFF10
:10385000134B1B686BB1114A1078984708BD40B2F2
:10386000FFF7C0FF2020FFF7BDFF0820FFF7BAFFDA
:10387000EEE70A4890F800C00A4B19689A68B3F856
:1038800004E002EA0E0201F802C09A6801329A606E
:10389000054B1B689B689847E0E700BF680800205D
:1038A00064080020400600206008002008B5144B82
:1038B0001860C8B9134B9B793BB9124B01229A711E
:1038C000114B1B689B68114898470E4B9A68DB6840
:1038D0009A4211D00B4B1968DA6898880240885CCC
:1038E000DA680132DA6008BD074B1B689B6807483D
:1038F00098474FF0FF30F6E74FF0FF30F3E700BF97
:1039000064080020400600206008002068080020AD
:10391000FEE7FEE708B500F02DF8124A0AE010684D
:10392000516850F8230041F82300013391688B421D
:10393000F5D30C320C4B9A4201D20023F6E70B4A26
:1039400008E01168002041F82300013351688B42E0
:10395000F7D30832064B9A4201D20023F6E7FCF770
:1039600079FD00BF086600002066000020660000A8
:103970002066000072B60D4A0D4B9A600D4B4AF25C
:103980005A52C3F8F02000229A604FF08043572229
:10399000C3F8F0207522C3F8F020074B1522C3F8B6
:1039A000F02F5122C3F8F02F62B6704700000000DC
:1039B00000ED00E00002004000000141054B1B68E3
:1039C00003FB00F0002301E000BF01338342FBD37F
:1039D000704700BF0400002053B94AB9002908BF4E
:1039E00000281CBF4FF0FF314FF0FF3000F06AB9E4
:1039F000ADF1080C6DE904CE00F006F8DDF804E046
:103A0000DDE9022304B070472DE9F047089D0E461A
:103A100004460F46002B4AD194468C45B2FA82F2F6
:103A200060D942B1C2F12003974020FA03F30CFAA7
:103A300002FC1F4394404FEA1C4E1FFA8CF6B7FB62
:103A4000FEF1230C0EFB117743EA074301FB06F05E
:103A500098420AD91CEB030301F1FF3780F015816E
:103A6000984240F21281023963441B1AA4B2B3FB9C
:103A7000FEF00EFB103344EA034400FB06F6A642B8
:103A80000AD91CEB040400F1FF3380F00081A64248
:103A900040F2FD806444023840EA0140A41B00214A
:103AA0001DB1D4400023C5E90043BDE8F0878B4237
:103AB00005D90DB1C5E9000100210846F5E7B3FAC3
:103AC00083F1002946D1B34202D3824200F2F5804D
:103AD000841A66EB030201201746002DE5D0C5E9E4
:103AE0000047E2E7002A40F09380A1EB0C034FEA85
:103AF0001C471FFA8CFE0121B3FBF7F607FB1630BB
:103B0000230C43EA00430EFB06F0984208D91CEB55
:103B1000030306F1FF3802D2984200F2D0804646F5
:103B20001B1AA4B2B3FBF7F007FB103344EA0344BB
:103B30000EFB00FEA64508D91CEB040400F1FF3380
:103B400002D2A64500F2B6801846A4EB0E0440EA65
:103B50000640A5E7C1F120078B4022FA07FC4CEA9A
:103B6000030C06FA01FE20FA07F426FA07F344EAEA
:103B70000E0400FA01F84FEA1C404FEA1449B3FB67
:103B8000F0FE1FFA8CF600FB1E3349EA03430EFBDE
:103B900006F9994502FA01F20BD91CEB03030EF169
:103BA000FF3A80F08580994540F28280AEF1020EA6
:103BB0006344A3EB0909A4B2B9FBF0F300FB13992A
:103BC00044EA094403FB06F6A64208D91CEB0404A8
:103BD00003F1FF3068D2A64266D9023B644443EA4F
:103BE0000E40A41BA0FB02E6B4427346B14652D37A
:103BF0004FD05DB1B8EB030264EB090404FA07F798
:103C000022FA01F31F43CC40C5E9007400214CE7C0
:103C1000C2F1200120FA01F30CFA02FC26FA01F1AC
:103C2000964033434FEA1C471FFA8CFEB1FBF7F076
:103C300007FB1016190C41EA064100FB0EF68E42F6
:103C400004FA02F408D91CEB010100F1FF382DD26F
:103C50008E422BD902386144891B9BB2B1FBF7F627
:103C600007FB161143EA014306FB0EF1994208D9FE
:103C70001CEB030306F1FF3814D2994212D9023E1D
:103C800063445B1A46EA004136E73946EDE61846DA
:103C900002E7F045ADD2BEEB020366EB0C0601383D
:103CA000B146A6E74646ECE7034698E74046D3E729
:103CB000D6467EE76444023847E708460DE7023EF1
:103CC00063442DE7704700BF08B5064B044613B1A7
:103CD0000021AFF30080044B1B6803B198472046D6
:103CE00001F032FA00000000A4090020002310B502
:103CF0000446C0E90033C0E9043383608181436630
:103D0000C2818361194608225C3000F0F3F90D4B43
:103D100063620D4BA3620D4BE3620D4B23630D4BAE
:103D200024629C4206D003F16802944202D0D03350
:103D30009C4205D104F15800BDE8104000F04CBA97
:103D400010BD00BFFD3F00001F40000057400000B5
:103D50007B4000006C080020024A0349034800F041
:103D600069B800BF2C000020454D00003C00002039
:103D700041680C4B994210B5044601D000F0E2FFB7
:103D8000A168094B994202D0204600F0DBFFE168B0
:103D9000064B994204D02046BDE8104000F0D2BF47
:103DA00010BD00BF6C080020D40800203C09002092
:103DB00010B50B4B0B4C0C4A1A6020460022042114
:103DC000FFF794FF04F1680001220921FFF78EFF3D
:103DD00004F1D0000222BDE810401221FFF786BF97
:103DE000A40900206C080020593D0000014800F0A3
:103DF000F4B900BFAD090020014800F0EFB900BFE1
:103E0000AD09002010B50446FFF7F0FF236A1BB18F
:103E1000BDE81040FFF7F0BF044B2362044B1B6862
:103E2000002BF5D1FFF7C4FFF2E700BF713D0000A2
:103E3000A40900202DE9F8430746884614460026C9
:103E4000D4E90195B9F1010905D52468002CF7D111
:103E50003046BDE8F883AB89012B07D9B5F90E30A0
:103E6000013303D029463846C04706436835E9E7A1
:103E70000FB407B5064904AB086853F8042B8168F2
:103E8000019300F03BFC03B05DF804EB04B0704715
:103E9000380000202DE9F7431D46574B1F680446A4
:103EA0000E46904627B13B6A13B93846FFF7AAFF82
:103EB000B8F1020F06D0B8F1010F00F29A80002D80
:103EC000C0F29780636ED90705D4A3899A0502D4FE
:103ED000A06D00F082F92146384600F033FF616B97
:103EE00041B104F14403994202D0384600F086F90A
:103EF000002363630023A3616360A3891B0603D5CA
:103F00002169384600F07AF9A38923F44A6323F043
:103F10000303B8F1020FA38161D001AB6A462146C9
:103F2000384600F037FFA3891843A0812DBB009DC0
:103F3000284600F0ADF90646002852D1DDF8009081
:103F4000A94540D14FF0FF35B4F90C3043F00202DF
:103F5000A2810022A26004F14702226022610122B4
:103F60006261626ED60704D4980502D4A06D00F099
:103F700035F9284603B0BDE8F083002ED8D03B6A5F
:103F800013B93846FFF73EFFB8F1010F08BFA38908
:103F9000266004BF43F00103A381B4F90C3013F091
:103FA0000802C4E904651ED0D90741BF00226D4252
:103FB000A260A56158BFA560626ED20701D49B05BF
:103FC00013D50025D5E7484600F062F906460028DB
:103FD000B8D0A38943F08003A3814D46CFE70025E5
:103FE000B2E7A946F5E7A260E6E7A06D00F0F6F8B3
:103FF000E7E74FF0FF35BCE73800002010B50C466E
:10400000B1F90E1000F0A0F80028ABBF636DA389D2
:104010001B1823F48053ACBF6365A38110BD2DE949
:10402000F0411F468B89DB0505460C46164605D533
:10403000B1F90E100223002200F074F8A389B4F93C
:104040000E1023F48053A38132463B462846BDE838
:10405000F04100F08BB810B50C46B1F90E1000F02D
:1040600061F8431CA38915BF606523F4805343F4B2
:104070008053A38118BFA38110BDB1F90E1000F0C9
:1040800041B830B51446002C9BB005461A4605DAF7
:104090008B2303604FF0FF301BB030BD4FF4027331
:1040A000ADF80C3014BF04F1FF332346029305939F
:1040B0004FF6FF7300910491ADF80E3069461E9BD8
:1040C00000F0F8F9431CBCBF8B232B60002CE3D01D
:1040D000009B00221A70DFE707B5009313460A46DB
:1040E000014603480068FFF7CCFF03B05DF804FB0E
:1040F0003800002002440346934200D1704703F881
:10410000011BF9E738B5064D0023044608462B602D
:10411000FFF7CEFA431C02D12B6803B1236038BDF0
:10412000A809002038B5074D04460846114600226C
:104130002A601A46FFF7C2FA431C02D12B6803B16A
:10414000236038BDA809002038B5074D044608464D
:10415000114600222A601A46FFF79FFA431C02D13B
:104160002B6803B1236038BDA809002038B5074D7E
:1041700004460846114600222A601A46FFF780FAD4
:10418000431C02D12B6803B1236038BDA80900206D
:1041900070B50D4D0D4C641BA4100026A64209D12C
:1041A0000B4D0C4C00F0D2FF641BA4100026A6425D
:1041B00005D170BD55F8043B98470136EEE755F838
:1041C000043B98470136F2E7880000208800002071
:1041D000880000208C0000207047704770470A4418
:1041E000914200F1FF3300D1704710B511F8014B37
:1041F00003F8014F9142F9D110BD000038B50546D2
:10420000002941D051F8043C0C1F002BB8BFE41822
:1042100000F0E8F81D4A136833B96360146028465B
:10422000BDE8384000F0E4B8A34208D9206821185E
:104230008B4201BF19685B6809182160EDE71A46D7
:104240005B680BB1A342FAD911685018A0420BD198
:1042500020680144501883421160E0D118685B68FF
:10426000536008441060DAE702D90C232B60D6E7CC
:10427000206821188B4204BF19685B68636004BF23
:10428000091821605460CAE738BD00BFB409002096
:10429000024B0146186800F025B800BF3800002026
:1042A00070B50F4E0C463168054611B900F0A4FEFA
:1042B00030602146284600F09FFE431C03D14FF09A
:1042C000FF34204670BDC41C24F00304A042F8D083
:1042D000211A284600F090FE0130F2D1EFE700BF2E
:1042E000B00900202DE9F843CD1C25F00305083561
:1042F0000C2D38BF0C25002D064601DBA94204D940
:104300000C2333600020BDE8F883DFF8D48000F090
:1043100069F8D8F800301C4644BB29463046FFF700
:10432000BFFF431C044658D1D8F800402746002F51
:1043300043D1002C4BD023683946304604EB0309A7
:1043400000F05AFE814542D121686D1A2946304657
:10435000FFF7A6FF01303AD023682B442360D8F83A
:1043600000305A6862BBC8F800700FE02268521B28
:1043700020D40B2A17D96119A342256018BF5960B0
:10438000636808BFC8F8001062514B60304600F007
:104390002FF804F10B00231D20F00700C21A1CBFE8
:1043A0001B1AA350AFE76268A3420CBFC8F80020F5
:1043B0005A60EBE723466468AEE73C467F68B6E7A1
:1043C0001A465B68A342FBD100235360DEE70C234F
:1043D0003360304600F00CF894E70560D6E700BF84
:1043E000B40900200148FFF7F8BE00BFAC09002067
:1043F0000148FFF7F3BE00BFAC0900202DE9F047EC
:104400008E681F46BE420B6882460C4690462DD8E9
:10441000B1F90C2012F4906F26D06569096905EB9B
:104420004505A3EB010905EBD5757B1C4B446D10CD
:104430009D4238BF1D46530527D52946FFF752FF39
:10444000064660B321694A46FFF7C9FEA38923F4F3
:10445000906343F08003A381266165614E44A5EB20
:1044600009052660A5603E46BE4200D93E4620684A
:104470003246414600F084FDA3689B1BA36023687D
:10448000334423600020BDE8F0872A4600F018FE80
:1044900006460028E0D121695046FFF7AFFE0C2305
:1044A000CAF80030A38943F04003A3814FF0FF30E6
:1044B000E9E700002DE9F04F98468B891B069DB077
:1044C00007460D46144610D50B6973B94021FFF716
:1044D00009FF2860286130B90C233B604FF0FF30A2
:1044E0001DB0BDE8F08F40236B61002309932023AA
:1044F0008DF82930CDF80C803023DFF89C818DF8C1
:104500002A304FF0010923469A4613F8012B0AB1CD
:10451000252AF9D1BAEB040B0BD05B46224629467B
:104520003846FFF76BFF013000F0A780099A5A4424
:1045300009929AF80030002B00F09F8000234FF082
:10454000FF32CDE905230AF1010A049307938DF8A0
:1045500053301A935446052214F8011B4E4800F0BC
:104560005FFD049AD8B9D00644BF20238DF853309C
:10457000110744BF2B238DF853309AF800302A2BB3
:1045800015D0079A544600204FF00A0C214611F826
:10459000013B303B092B4BD9B0B1079214E0A0EBA3
:1045A000080309FA03F313430493A246D2E7039BDB
:1045B000191D1B680391002BBBBF5B4242F0020236
:1045C00007930793B8BF049223782E2B0AD1637800
:1045D0002A2B32D1039B1A1D1B68039243EAE37313
:1045E00002340593DFF8B4A021780322504600F08E
:1045F00017FD38B1049BA0EB0A0040228240134310
:104600000134049314F8011B25488DF82810062264
:1046100000F006FD002836D0224B1BBB039B07335E
:1046200023F0070308330393099B334409936AE794
:104630000CFB02320C460120A8E70023013405934D
:1046400019464FF00A0C204610F8012B303A092A7F
:1046500003D9002BC6D00591C4E70CFB0121044609
:104660000123F0E703AB00932A460F4B04A9384619
:10467000AFF30080421C0646D6D1AB895B063FF5FE
:104680002DAF09982CE703AB00932A46064B04A9EB
:10469000384600F0B9F9EDE75F54000065540000BA
:1046A0006954000000000000FD4300009368013BD6
:1046B000002B10B4936007DA9469A34201DB0A2946
:1046C00002D110BC00F0C8BB1368581C10601970F0
:1046D000084610BC7047F8B506460F461446D51874
:1046E000AC4201D1002007E014F8011B3A463046E5
:1046F000FFF7DCFF431CF3D1F8BD00002DE9F04FBC
:104700000D469DB014469846064618B1036A0BB98B
:10471000FFF778FB6B6ED90705D4AB899A0502D4F5
:10472000A86DFFF75AFDAB891B0701D52B699BB913
:104730002946304600F0CEFB70B16B6EDC0704D525
:104740004FF0FF301DB0BDE8F08FAB899805F7D46E
:10475000A86DFFF743FDF3E70023099320238DF8AD
:104760002930CDF80C803023DFF8AC818DF82A3069
:104770004FF0010923469A4613F8012B0AB1252A66
:10478000F9D1BAEB040B0BD05B46224629463046E2
:10479000FFF7A1FF013000F0A780099A5A4409925F
:1047A0009AF80030002B00F09F8000234FF0FF327A
:1047B000CDE905230AF1010A049307938DF85330DC
:1047C0001A935446052214F8011B534800F028FCA4
:1047D000049AD8B9D10644BF20238DF8533013076B
:1047E00044BF2B238DF853309AF800302A2B15D074
:1047F000079A544600204FF00A0C214611F8013B5D
:10480000303B092B4BD9B0B1079214E0A0EB080361
:1048100009FA03F313430493A246D2E7039B191D3D
:104820001B680391002BBBBF5B4242F0020207935F
:104830000793B8BF049223782E2B0AD163782A2BD2
:1048400032D1039B1A1D1B68039243EAE3730234BF
:104850000593DFF8C8A021780322504600F0E0FB62
:1048600038B1049BA0EB0A0040228240134301347C
:10487000049314F8011B2A488DF82810062200F032
:10488000CFFB00283FD0274B1BBB039B073323F0F4
:10489000070308330393099B3B4409936AE70CFB26
:1048A00002320C460120A8E7002301340593194683
:1048B0004FF00A0C204610F8012B303A092A03D990
:1048C000002BC6D00591C4E70CFB0121044601234F
:1048D000F0E703AB00932A46134B04A93046AFF32D
:1048E00000800746781CD6D16B6ED90705D4AB89FA
:1048F0009A0502D4A86DFFF771FCAB895B063FF502
:104900001FAF09981EE703AB00932A46064B04A984
:10491000304600F079F8E4E75F5400006554000089
:104920006954000000000000D74600002DE9F04760
:10493000164698468A680B69DDF820909342B8BF06
:104940001346336091F8432007460C460AB1013301
:1049500033602368990642BF3368023333602568A9
:1049600015F0060506D104F1190AE36832689B1AAE
:10497000AB4226DC94F843302268003B18BF012389
:1049800092062BD404F1430241463846C847013011
:104990001ED02368226903F00603042B02BFE568DA
:1049A0003368ED1AA3680CBF25EAE575002593422C
:1049B000C4BF9B1AED1800261A34B5421AD1002044
:1049C00008E00123524641463846C847013003D12A
:1049D0004FF0FF30BDE8F0870135C6E7E1185A1CFB
:1049E000302081F84300224494F8451082F84310A7
:1049F0000233C7E70123224641463846C847013003
:104A0000E6D00136D9E700002DE9FF470F7E0C9E66
:104A1000782F914680460C469A4601F1430207D80A
:104A2000622F0AD8002F00F0D180582F00F0B880F4
:104A300004F1420684F842703AE0A7F16303152BB3
:104A4000F6D801A151F823F0A14A0000B54A0000B0
:104A5000314A0000314A0000314A0000314A00006A
:104A6000B54A0000314A0000314A0000314A0000D6
:104A7000314A0000B34B0000DF4A00006D4B0000DC
:104A8000314A0000314A0000D54B0000314A000095
:104A9000DF4A0000314A0000314A0000754B000037
:104AA00033681A1D1B68326004F1420684F84230F4
:104AB00001239CE033682068191D3160060601D58A
:104AC0001D6803E04506FBD5B3F90050002D03DA5D
:104AD0002D236D4284F8433058480A2311E02168A1
:104AE0003368080653F8045B02D4490648BFADB2E8
:104AF0006F2F5248336014BF0A230823002184F823
:104B000043106668A660002E05DB21682E4321F065
:104B1000040121604BD01646B5FBF3F103FB11579E
:104B2000C75D06F8017D2F46BB420D46F4D9082B20
:104B30000BD12368DF0708D5236961689942DEBF7E
:104B4000302306F8013C06F1FF36921B2261CDF8B6
:104B500000A04B4603AA21464046FFF7E7FE01307E
:104B60004AD14FF0FF3004B0BDE8F087236843F02E
:104B7000200323603248782784F845702368316821
:104B80001F0651F8045B02D45F0648BFADB2316026
:104B9000D90744BF43F0200323601DB11023ADE7C4
:104BA0002648E9E7236823F020032360F6E716464A
:104BB000BDE7336825686169181D30602E061B68E3
:104BC00001D5196002E06806FBD519800023236136
:104BD0001646BCE733681A1D32601E686268002101
:104BE000304600F01DFA08B1801B606063682361E5
:104BF000002384F84330AAE72369324649464046F9
:104C0000D0470130ADD023689B0713D4E068039BE5
:104C10009842B8BF1846A6E70123324649464046A7
:104C2000D04701309DD00135E36803995B1AAB4250
:104C3000F2DCEBE7002504F11906F5E770540000FB
:104C400081540000B1F90C20F8B5160705460C4652
:104C500054D44B68002B02DC0B6C002B48DDE66A59
:104C6000002E45D0002312F480522F68216A2B6059
:104C700030D0626DA389590705D56368D21A636B7A
:104C80000BB1236CD21A0023E66A216A2846B0478A
:104C9000431CA38906D129681D292BD8284ACA405C
:104CA000D60727D500226260D9042269226004D584
:104CB000421C01D12B6803B96065616B2F60B9B1EB
:104CC00004F14403994202D02846FFF797FA0023E3
:104CD00063630DE001232846B0470246501CC9D14A
:104CE0002B68002BC6D01D2B01D0162B1DD12F6099
:104CF000002021E043F040031BB21AE00F69002FAF
:104D0000F6D093070E6808BF4B690F6018BF0023E9
:104D1000F61B8B60002EEBDD216AD4F828C03346E9
:104D20003A462846E047002807DCB4F90C3043F047
:104D30004003A3814FF0FF30F8BD0744361AE9E77E
:104D40000100402038B50B6905460C4613B9002513
:104D5000284638BD18B1036A0BB9FFF753F8B4F908
:104D60000C30002BF3D0626ED00704D4990502D426
:104D7000A06DFFF732FA28462146FFF763FF636E06
:104D8000DA070546E4D4A3899B05E1D4A06DFFF7BB
:104D900025FADDE770B50C46B1F90E10002996B082
:104DA00015461E460DDAA38913F0800F4FF000015F
:104DB00014BF40234FF48063002031602B6016B095
:104DC00070BD6A4600F0F6F80028ECDB019901F4AA
:104DD0007041A1F50053594259414FF48063EBE70C
:104DE0008B89F7B59D0706460C4607D504F14703A6
:104DF000236023610123636103B0F0BD01AB6A4608
:104E0000FFF7C8FF009F054639463046FFF76AFAAC
:104E100048B9B4F90C309A05EED423F0030343F0FB
:104E20000203A381E2E7A389206043F08003A3810A
:104E3000019BC4E904075BB1B4F90E10304600F0E1
:104E4000CBF828B1A38923F0030343F00103A38126
:104E5000A3891D43A581CFE7F8B50E461446054644
:104E600018B1036A0BB9FEF7CDFFA369A360A3894C
:104E70001A0701D5236943B92146284600F02AF8CC
:104E800018B14FF0FF373846F8BD23682269981AE9
:104E90006369F6B28342374605DC21462846FFF7B0
:104EA00051FF0028EDD1A368013BA36023685A1C81
:104EB00022601E706269431C9A4204D0A389DB07FA
:104EC000E1D50A2EDFD121462846FFF73BFF002817
:104ED000D9D0D6E738B5294B054618680C4618B125
:104EE000036A0BB9FEF78EFFB4F90C30190722D410
:104EF000DA0607D409222A6043F04003A3814FF069
:104F0000FF3033E0580712D5616B41B104F144031F
:104F1000994202D02846FFF771F900236363A38901
:104F200023F02403A3810023636023692360A38902
:104F300043F00803A38123694BB9A38903F42073C9
:104F4000B3F5007F03D021462846FFF749FFB4F9A7
:104F50000C3013F001020AD00022A26062695242B2
:104F6000A261226942B913F08000C5D138BD99070A
:104F700058BF6269A260F4E70020F7E7380000201C
:104F8000884210B501EB020402D98442234607D8B7
:104F9000431EA14208D011F8012B03F8012FF8E7B6
:104FA000024401468A4200D110BD13F8014D02F8B7
:104FB000014DF7E738B5074D002304460846114672
:104FC0002B60FEF777FB431C02D12B6803B12360F3
:104FD00038BD00BFA809002038B5064D002304469F
:104FE00008462B60FEF768FB431C02D12B6803B117
:104FF000236038BDA809002038B5064D00230446BB
:1050000008462B6000F092F8431C02D12B6803B1D4
:10501000236038BDA8090020000000000000000047
:1050200001F0FF01102A2BDB10F0070F08D010F859
:10503000013B013A8B422DD010F0070F42B3F6D15D
:10504000F0B441EA012141EA014122F007047FF076
:1050500000070023F0E80256083C85EA010586EACD
:10506000010685FA47F5A3FA87F586FA47F6A5FA09
:1050700087F68EB9EED1F0BC01F0FF0102F0070215
:1050800032B110F8013B013A83EA010313B1F8D1C0
:105090000020704701387047002D06BF35460338A1
:1050A000073815F0010F07D1013015F4807F02BFDA
:1050B000013015F4C03F0130F0BC0138704700BF2B
:1050C0002DE9F041074614460D4621B9BDE8F041EF
:1050D0001146FFF707B92AB9FFF790F82546284689
:1050E000BDE8F08100F01AF88442064602D8B4EB1D
:1050F000500FF4D821463846FFF7F4F8804608B937
:105100004546ECE7B4422246294628BF3246FFF71F
:1051100066F829463846FFF771F8F1E751F8043C84
:10512000181F002BBCBF0B58C0187047044A054914
:105130001368002B08BF0B461844106018467047D0
:10514000B8090020C0090020FEE700BFF8B500BF85
:10515000F8BC08BC9E467047F8B500BFF8BC08BC58
:105160009E4670470104010905070105010A010B6C
:10517000010C010D010E010F0A0D3D3D3D3D3D3D70
:105180003D3D3D3D3D3D3D3D3D3D3D3D3D3D3D3D4F
:105190003D3D3D3D3D3D3D3D3D3D3D3D3D3D3D3D3F
:1051A0003D3D00002020202020202020204C454490
:1051B0002048415244574152452054455354000021
:1051C0003D3D3D3D3D3D3D3D3D3D3D3D3D3D3D3D0F
:1051D0003D3D3D3D3D3D3D3D3D3D3D3D3D3D3D3DFF
:1051E0003D3D3D3D3D3D3D3D0A0D00005B4F4B5D6E
:1051F000204C4544205465737420436F6D706C657A
:1052000074650A0D000000000D0A000041333447A8
:10521000343341203A20466C617368203230343890
:105220004B42202F205352414D203235364B420005
:1052300041333447343330203A20466C6173682060
:10524000313032344B42202F205352414D203235E1
:10525000364B4200556E6B6E6F776E00436F727403
:1052600065782D4D340000000A2A2A2A2A2A2A2A83
:105270002A2A2A2A2A2A2A2A2A2A2A2A2A2A2A2A8E
:105280002A2A2A2A2A2A2A2A2A2A2A2A2A2A2A2A7E
:105290002A2A2A2A2A2A2A2A2A0A0D002D204D43A0
:1052A00055202D202573200A000000002D20436F7B
:1052B00072653A2041524D20257320200A000000DB
:1052C00055415254000000002D20436F6D6D756EE6
:1052D0006963617465207669613A202573256420CD
:1052E0002D2025646270730A000000002D204152B9
:1052F0004D2053797374656D20436F726520436C44
:105300006F636B203D2025640A0000002D20434C74
:1053100049203A20276C73272073686F7720636FCA
:105320006D6D616E64206C697374200A000000006A
:105330002A2A2A2A2A2A2A2A2A2A2A2A2A2A2A2ACD
:105340002A2A2A2A2A2A2A2A2A2A2A2A2A2A2A2ABD
:105350002A2A2A2A2A2A2A2A2A2A2A2A2A2A2A2AAD
:105360000A0D00000A0D0A0D00000000232323236C
:1053700023232323232323232323232323232323FD
:105380002323232323232323232323232323000033
:10539000232020202020202020202020202020200A
:1053A00020202020202020202020202020202020FD
:1053B00020230000232020202020202020205469AA
:1053C00072656D6F20436F727465782020202020F5
:1053D0002020202020230000232020202020202007
:1053E0002020202020202076322E30202020202037
:1053F00020202020202020202023000023232323DE
:10540000232323232323232323232323232323236C
:1054100023232323232323232323232323230A0D8B
:1054200000000000257300000104010905070105C3
:10543000010A010B010C010D010E010F0000099F73
:10544000000701020000000000022000E803000045
:105450000103010000C20100030400010102022354
:105460002D302B2000686C4C006566674546470070
:10547000303132333435363738394142434445468A
:105480000030313233343536373839616263646520
:10549000660000001000000000000000017A5200C9
:1054A000027C0E011B0C0D00100000001800000013
:1054B00000000000100000000000000010000000CC
:1054C00000000000017A5200027C0E011B0C0D004E
:1054D000380000001800000048FBFFFF9E0000009D
:1054E00000510E1084048503860287015BC7C6C580
:1054F000C40E004C0A420B0A420B0E1084048503B2
:105500008602870151C7C6C5C40E00000000000016
:105600002D2D2D2D2D424547494E205253412050DE
:10561000524956415445204B45592D2D2D2D2D0ACB
:105620004D4949456F77494241414B4341514541BD
:10563000766734614A4E5134444C3957435A79376E
:1056400075314C2F6D7A65754E4F4F6671386E63AC
:10565000467567796F6A71625171726A457A34630F
:105660000A3938544565477750734C67533575711F
:1056700034314366446D55774B3467725550356409
:10568000323669483649394C43525177635455781C
:10569000357043724A67554A4B4271746C744B2B98
:1056A0004E0A754B59703168637554646E426F4190
:1056B0004D3933506F44464C2F5443533752754F36
:1056C0007572554F5856782B576F6C344E4D335872
:1056D00065594A4343555356384F514C494A345300
:1056E00073390A3141415672364E434A466845493C
:1056F0006E7A7A4C64546752446C4C734475506CA7
:105700006D694B54554E713969526E33506E794CF8
:10571000625844715A5A4573724D2B55305A73462C
:10572000646E590A52786B6F564C36396C782B6C14
:10573000446D494B3141634C326D586C2F6E432B95
:10574000797676736F3567784D4978644A3667762F
:1057500068734C6D332B35364852736E5838795414
:10576000336C646C0A6C6C725452373751596F3712
:105770004C7654387A6742426D704138394A5068E5
:1057800045646E6D505367574538774944415141E0
:1057900042416F4942414453317449714355516B01
:1057A00034423653690A303234676C734E31726456
:1057B0007239526B7465734B7570756D464433382E
:1057C00075646D5679383355766152714D6656540D
:1057D0007174307041346951704E2F5047484A58A7
:1057E000324C673149660A7239732F6B53426555E3
:1057F000344C53325161584C79565975496F673260
:10580000476342496A503666464F35776543656A55
:10581000546B4B4B366B3150504D4D593835645AA3
:10582000536F6D30674E330A57517757736A4F2B5A
:1058300066674F485A736F465953796A33487838C8
:105840003448635162305969333943617058737415
:105850006574763654433964446A582B4D524E6C05
:105860002F396C32796454730A3239376468596F4E
:105870006F4F64787670436A663973754B7A623617
:10588000627748326D325139746C4931676F5A71A1
:1058900049484D31373244323875446846363559B7
:1058A00032784E6330327666660A6431415139711E
:1058B00076515162315336325A4774782B52797887
:1058C00058523873457165614C326B4B6642535187
:1058D000453248724B7377512B7734794F6C4E4574
:1058E00055336145496C325066520A312B31613271
:1058F00041454367594541347754654E4E6A4C5390
:105900006C437A58772B53506258364D4D4368326A
:105910006B4A634F6C61336D7330637550346D64E3
:10592000746A33512F7941556565510A64362B7677
:10593000724C4E4D67744C414C715A59586E305AE6
:1059400054776C736B667A646176426150354C654E
:105950004F41586449666464525545774F593847FA
:105960005678686A4B68746C6352345A0A634858B4
:105970004D66474B31666949425868413058355049
:10598000706D724F5A4F4D6761546D334D7A6E6D25
:105990007957777179726948467941634D736765C4
:1059A000713563304367594541316C45360A654F5F
:1059B00036714866343449396C75374A6B414675DF
:1059C00051437374523331735144645958535633AD
:1059D0005170396B4A6B456368304E5A4141793199
:1059E000304966626C6F6A455667396C78370A6A67
:1059F000333575396A555A674F366B3263484B6F8A
:105A0000373969417A566E43465A39496C2B4342BD
:105A100056636F53744461497147616768773834DE
:105A200053535A527858756A65344F34355A340A8C
:105A3000314F674D656C69716A527A2F65716637AF
:105A40006D423276764A51395254415270306A3240
:105A50006A746B545662384367594541777477428C
:105A60003030436D7467497842493538433059784E
:105A70000A477A6D74633464305849726B6A4259CC
:105A800030366B455553503051754B563669314D54
:105A9000464F515A7539774472306E734E684C30A8
:105AA0003571746B634B5442417063707A54344265
:105AB000420A4A734A7378592B61384C572F7446FF
:105AC0007378427162535856334D6547384E6B7048
:105AD0007577594578736D664F734C7A6B484458A7
:105AE0004E4255537A4833676238704C5631687766
:105AF000354F0A4E6F685535447035686D6673755D
:105B00005458373272416B4B353043675941444AE0
:105B1000566F59594668363744706976465257670A
:105B20004D42786C5A4D386B4D585A6A7A4D467AC8
:105B30004A73540A30593630494C46625758667297
:105B40004F5676706F456E356E6E6B635A67425175
:105B50005858637132673543367643653565486812
:105B60006D47696A457249626E664D504F6B584881
:105B700039574C780A4E534251534E534B345A685E
:105B80006C42496B5950504E4C436456676D2F66BA
:105B9000332B304E327A4A6B79536F376D5632431E
:105BA00067716B71564A77706E574432324145695E
:105BB00069446634670A6871737A2F514B426745AE
:105BC000305641493435624F682F58343164514E54
