:1000000000000420B9110000FD0F0000B511000030
:10001000B7110000B7110000B71100000000000088
:10002000000000000000000000000000B711000008
:10003000B711000000000000B7110000B507000074
:10004000B71100004D0D0000570D0000610D0000BC
:10005000B7110000B7110000B7110000B711000080
:10006000B7110000B7110000B7110000B711000070
:10007000B7110000B7110000B7110000B711000060
:10008000B7110000B7110000B7110000B711000050
:10009000B7110000B7110000B7110000B711000040
:1000A000B7110000B7110000B7110000B711000030
:1000B000B7110000B7110000B7110000B711000020
:1000C000B7110000B7110000B7110000B711000010
:1000D000550F00005D0F0000650F00006D0F000060
:1000E000750F00007D0F0000850F0000B7110000A4
:1000F000B7110000B7110000B7110000B7110000E0
:10010000B7110000B7110000B7110000B7110000CF
:10011000B7110000B7110000B7110000B7110000BF
:10012000B7110000B7110000B7110000B7110000AF
:10013000B7110000B7110000B7110000B71100009F
:10014000B7110000B7110000B7110000B71100008F
:10015000B7110000B7110000B7110000B71100007F
:10016000B7110000B7110000B7110000B71100006F
:10017000B7110000B7110000B7110000B71100005F
:10018000B7110000B7110000B7110000B71100004F
:10019000B7110000B7110000B7110000B71100003F
:1001A000B7110000B7110000B7110000B71100002F
:1001B000B7110000B7110000B7110000B71100001F
:1001C000B7110000B7110000B7110000B71100000F
:1001D000B7110000B7110000B7110000B7110000FF
:1001E000B7110000B7110000B7110000B7110000EF
:1001F000B7110000B7110000B7110000B7110000DF
:10020000B7110000B7110000B7110000B7110000CE
:10021000B7110000B7110000B7110000B7110000BE
:10022000B7110000B7110000B7110000B7110000AE
:10023000B7110000000000000000000000000000F6
:1002400000000000000000000000000000000000AE
:10025000000000000000000000000000000000009E
:10026000000000000000000000000000000000008E
:10027000000000000000000000000000000000007E
:10028000000000000000000000000000000000006E
:10029000000000000000000000000000000000005E
:1002A000000000000000000000000000000000004E
:1002B000000000000000000000000000000000003E
:1002C000000000000000000000000000000000002E
:1002D000000000000000000000000000000000001E
:1002E000000000000000000000000000000000000E
:1002F00000000000000000000000000000000000FE
:1003000000000000000000000000000000000000ED
:1003100000000000000000000000000000000000DD
:1003200000000000000000000000000000000000CD
:1003300000000000000000000000000000000000BD
:1003400000000000000000000000000000000000AD
:10035000000000000000000000000000000000009D
:10036000000000000000000000000000000000008D
:10037000000000000000000000000000000000007D
:10038000000000000000000000000000000000006D
:10039000000000000000000000000000000000005D
:1003A000000000000000000000000000000000004D
:1003B000000000000000000000000000000000003D
:1003C0000348044B834202D0034B03B118477047E4
:1003D0008C0000208C000020000000000548064B27
:1003E0001B1AD90F01EBA301491002D0034B03B133
:1003F000184770478C0000208C000020000000008F
:1004000010B5064C237843B9FFF7DAFF044B13B15C
:100410000448AFF300800123237010BD8C0000203E
:1004200000000000B02B000008B5054B1BB10549CA
:100430000548AFF30080BDE80840FFF7CFBF00BF1D
:100440000000000090000020B02B0000A3F5803ACF
:10045000704700BF174B002B08BF134B9D46FFF79B
:10046000F5FF00218B460F461348144A121A01F07B
:1004700093FA0E4B002B00D098470D4B002B00D069
:1004800098470020002104000D000D48002802D0EC
:100490000C48AFF3008001F0CDFA2000290000F0F5
:1004A000E7F801F063F800BF00000800000000005A
:1004B00000000000000004208C000020B005002097
:1004C000000000000000000030B44FF080439A6A42
:1004D00042F4FE429A621A6B42F4FE421A63314AB7
:1004E0001523C2F8F03F5123C2F8F03F00231361F7
:1004F00013639363D36353614FF07731116051609D
:100500004FF0FF349460D360274803610363836333
:10051000C3634361016007254560244D8560C36066
:1005200000F58070036103638363C3634361204DFF
:100530000560204D456084601F4DC56000F58070EA
:10054000036103638363C36343610160416084604B
:10055000C36000F58070036103638363C363436119
:10056000016041608460C36000F5807003610363D3
:100570008363C3634361114D056041606FF440457F
:100580008560C36000F58070036103638363C363A8
:100590004361016041608460C360C2F8F03F30BCD9
:1005A000704700BF0000014100010141FFFF03004F
:1005B00033337377773377778A02A00077777707BB
:1005C00038B51B4B5A681B4B9A422DD0184B5A68B2
:1005D000194B9A4226D0194D154B5B6803F47F03E3
:1005E000B3F5501F22D0154C154800F01BFD2946CD
:1005F000144800F017FD2146134800F013FD4FF496
:10060000164300221149124800F00CFD114B1968E5
:10061000114800F007FD114800F004FD104800F0FB
:1006200001FD38BD0F4DD7E70F4DD5E70F4CDBE788
:1006300000F00040A0443447A1443447482A000059
:100640005C2A0000902A0000A02A0000B42A0000C2
:10065000BC2A00000C000020E02A0000002B000053
:10066000242B0000242A0000002A0000502A000049
:1006700008B5FFF729FF00F009F800F0CBFCFFF701
:100680009FFF00F0A1F8002008BD000030B585B044
:1006900002258DF80C5000248DF80D408DF80E4089
:1006A0001D4A6B4607CA03C31A700121284600F091
:1006B00083FA0121084600F07FFA0121204600F06C
:1006C0007BFA0121032000F077FA03A800F014FA66
:1006D0006946012000F0A2FA04238DF80C308DF851
:1006E0000D408DF80E4003A800F006FA204600F0F9
:1006F00015FB22460F21284600F002FB2146284622
:1007000000F05AFA2146204600F056FA214603200E
:1007100000F052FA05B030BD5C2B0000034B1860AE
:10072000024B1B68002BFBD1704700BFA8000020C4
:1007300008B5002200F0EEFB08BD000070B50024F3
:100740000FE0094B13F8145003EB44035E780022CA
:100750003146284600F08EFB31462846FFF7E8FF79
:100760000134092CEDD970BD682B000008B50122B9
:1007700000F0D0FB08BD000038B50546002408E0B5
:100780000B4B03EB4402517813F81400FFF7D0FF32
:100790000134092C0AD8002DF2D0054B03EB44029A
:1007A000517813F81400FFF7E1FFF1E738BD00BFFF
:1007B000682B0000034B1B681BB1024A1368013B06
:1007C00013607047A800002008B5134B1B68134A3C
:1007D000A2FB03239B09013BB3F1807F0AD24FF0B8
:1007E000E02253610E4BF02183F823100023936124
:1007F00007231361FFF7A2FF0120FFF7BDFF4FF4AE
:100800007A70FFF78BFF0020FFF7B6FF4FF47A7086
:10081000FFF784FFF0E700BF0C000020D34D62100B
:1008200000ED00E0104B98420DD9104B984213D9BF
:100830000F4B984212D90F4B984211D90E4B984248
:1008400010D8042100E000214FF08242136823F009
:100850000F030B43136070470121F5E70221F3E713
:100860000321F1E70521EFE7408AF7018014EF0348
:1008700000E1F505406BED0780F5E40904285FD839
:10088000DFE800F02533414F03004FF0070C002054
:100890004FF08043596C21F0706141EA02625A6462
:1008A000596CC1F30241294A1268CA4028490A60BA
:1008B0004FF082410A6822F00F0242F005020A60FE
:1008C0005A6C22F0070242EA0C025A6470474FF059
:1008D00080410B6C43F002030B641E4B13411B4918
:1008E0000B604FF0060C0020D2E74FF080410B6CFC
:1008F00043F008030B64184B134114490B604FF08D
:10090000020C0020C4E74FF080410B6C43F0200341
:100910000B64124B13410D490B604FF0000C604605
:10092000B6E74FF080410B6C43F080030B644FF44B
:100930000043134105490B604FF0010C0020A7E76D
:100940004FF0000C6FF00500A2E700BF0C00002084
:100950000800002000093D000024F40020A1070049
:100960000F292ED84FF08042136D23F00F0301F0B2
:100970000F010B43136507281CD8DFE800F01512A0
:100980001F07181B1B040421002001E00121002087
:100990004FF08042136D23F0E00343EA41131365E7
:1009A000704705210020F3E706210020F0E707212A
:1009B0000020EDE700216FF00500E9E7002108467F
:1009C000E6E76FF0050070474FF0804CDCF84430EC
:1009D00023F4407343EA0123CCF84430032925D89B
:1009E000DFE801F002141216012398B1012820D18A
:1009F0004FF08040016C41F0020101640E49B1FBEF
:100A0000F3F31360002070470423EEE70223ECE7C2
:100A10000823EAE74FF08040016C41F008010164CF
:100A20000649B1FBF3F31360002070476FF0050037
:100A300070476FF00500704700093D000024F40086
:100A400082B00C4B1B680C4AA2FB0312920C0B49A0
:100A50008B4200D8012200FB02F20023019303E045
:100A600000BF019B01330193019B9342F8D302B075
:100A7000704700BF0C00002083DE1B433F420F0085
:100A800010B5034601280FD002281AD030BB4FF012
:100A90008042906C10F0200021D01146926C42F000
:100AA00020028A6401201AE04FF08042906C10F01E
:100AB000020014D01146926C42F002028A640220B5
:100AC0000DE04FF08042906C10F4007007D011469A
:100AD000926C42F400728A64042000E0002003EB70
:100AE0004302044951F822401CB101EB82035968CA
:100AF000A04710BDAC00002038B50378042B43D0CC
:100B0000002B46D000214FF08042536C23F48053D9
:100B100043EA01335364827841780078FFF7AEFEF0
:100B2000054678BB1C4B1C68E30E6101091B63F191
:100B300000039B0043EA91738900091943F1000304
:100B40004FEAC30C154A0023C8004CEA517100F06B
:100B500095FB134BA3FB00308008124B1860124B1F
:100B6000A3FB0423DB0C114A1360114B9C4202D8F7
:100B7000134601221A60C82000F072FB064B186869
:100B8000FFF750FE284638BD0A4B1A68024B1A6020
:100B9000C1E70121B7E700BF0C00002040420F0071
:100BA000ABAAAAAA04000020819F5E1600000020C4
:100BB0007F8D5B00D000002003282BD8DFE800F0F9
:100BC000020C16204FF08042136C23F0020343EA1C
:100BD00041031364002070474FF08042136C23F0F0
:100BE000080343EAC1031364002070474FF08042BA
:100BF000136C23F0200343EA411313640020704771
:100C00004FF08042136C23F0800343EAC113136456
:100C1000002070476FF005007047000030B583B0CA
:100C20000023019348B94FF08042136E23F48003F0
:100C300013660025284603B030BD0C4605464FF02C
:100C40008042136E43F4800313660220FFF7F8FE20
:100C50002378012B00D000254FF08042536C23F401
:100C6000805343EA0533536401AA61782078FFF783
:100C7000ABFE05460028DDD1A37803F00F0343F453
:100C80008003E27843EA02236279120402F47022BC
:100C9000134343F40013A279920602F04062134317
:100CA000E279120602F0407213434FF0804213665D
:100CB0004FF4FA70FFF7C4FE0F4B1B684FF4FA7243
:100CC00002FB03F34FF08042126E002A04DB0BB1EB
:100CD000013BF7E76FF00305002DABD16279A378F4
:100CE000013302FB0332019BB3FBF2F3E27802FB18
:100CF0000333024A13609DE700000020D00000206B
:100D000010B51446FFF72CFE38B94FF080410B6D3B
:100D100023F0100343EA04130B6510BD04280ED81A
:100D20004FF08042536C23F4E02343EA00435364C2
:100D3000044B1B68C340044A1360002070476FF0E7
:100D4000050070470C0000200800002008B50020B6
:100D5000FFF796FE08BD08B50120FFF791FE08BD1C
:100D600008B50220FFF78CFE08BD062801D8002038
:100D700070476FF00500704710B584461046114B60
:100D8000D3F8F04F24F0FF0444F01504C3F8F04FFB
:100D9000D3F8F04F24F0FF0444F05104C3F8F04FAF
:100DA0004A62D3F8F02F22F0FF02C3F8F02F064B6F
:100DB00003EB0C135A6822B1034B03EB0C13996835
:100DC000904710BD00000141D400002008B5044B3D
:100DD0005A6A02B908BD19460020FFF7CDFFF9E7AE
:100DE0000000014108B5044B5A6A02B908BD194612
:100DF0000120FFF7C1FFF9E70001014108B5044BED
:100E00005A6A02B908BD19460220FFF7B5FFF9E793
:100E10000002014108B5044B5A6A02B908BD1946DF
:100E20000320FFF7A9FFF9E70003014108B5044BD0
:100E30005A6A02B908BD19460420FFF79DFFF9E779
:100E40000004014108B5044B5A6A02B908BD1946AD
:100E50000520FFF791FFF9E70005014108B5044BB4
:100E60005A6A02B908BD19460620FFF785FFF9E75F
:100E70000006014170B504460D461646FFF775FFA2
:100E8000002841D1014604F5820303F580731B025B
:100E90001F48D0F8F02F22F0FF0242F01502C0F8F0
:100EA000F02FD0F8F02F22F0FF0242F05102C0F8EC
:100EB000F02F072D17D81A68AD000F20A84022EA9E
:100EC0000002042E0DD846F00806AE4032431A60E8
:100ED0000F4AD2F8F03F23F0FF03C2F8F03F084674
:100EE00070BD0F26F1E75A68083DAD000F20A840FD
:100EF00022EA0002042E05D846F00806AE4032432E
:100F00005A60E5E70F26F9E76FF00101E7E700BF58
:100F10000000014170B504460E461546FFF725FF57
:100F2000A8B904F5820303F580731B023DB99A6BDF
:100F30000121B14022EA01020A439A6370BDDA6BD3
:100F40000121B14022EA01020A43DA63F6E76FF0B9
:100F50000100F3E708B5FFF739FF08BD08B5FFF753
:100F600041FF08BD08B5FFF749FF08BD08B5FFF709
:100F700051FF08BD08B5FFF759FF08BD08B5FFF7D9
:100F800061FF08BD08B5FFF769FF08BD38B54FF030
:100F900080439D6D45F00C429A65002400E00134C9
:100FA000072C1CDC04EB44029300134AD35C002B97
:100FB000F5D025FA04F313F0010FF0D004EB44034D
:100FC0009A000D4B13445A68002AE8D004EB4403FE
:100FD0009900094B0B44996801209047DFE7064BC5
:100FE00093F854303BB115F4004F04D0024B9A6D86
:100FF000D96D0120904738BD4401002008B5FFF7A6
:10100000C5FF08BD704770477047704700207047A4
:101010007047000008B5024800F046F808BD00BF60
:10102000100000200FB410B582B004AB53F8042BAD
:101030000193074C8021204600F0A0FC2146054882
:1010400000F068FB002002B0BDE8104004B070471B
:10105000A4010020582B000070B50E461546002450
:1010600003E0305700F046F80134AC42F9DB284683
:1010700070BD10B50C46002000F06AF8B0F1FF3FDB
:10108000F9D02070012010BD012070470120704769
:101090000120704700207047016000238371013AEE
:1010A00082808360C360704708B50C4B186003688A
:1010B000984710220A490B48FFF7EEFF4FF40072E1
:1010C00009490A48FFF7E8FF094B18680023022284
:1010D0001946806800F030FB002008BD5404002051
:1010E0004404002034020020440200202402002096
:1010F0003400002038B5044672B6124B9B79A3B970
:10110000104B01229A71C5B20F4805700F4B1B6836
:101110001B69984790B10B4B19689A6898880240F0
:101120008D549A6801329A6008E0064B19689A68F3
:10113000988802408C549A6801329A6062B62046C0
:1011400038BD00BF240200205D04002054040020AC
:1011500008B5144B1860C8B9134B9B793BB9124BB7
:1011600001229A71114B1B689B68114898470E4BDE
:101170009A68DB689A4211D00B4B1968DA68988834
:101180000240885CDA680132DA6008BD074B1B68F0
:101190009B68074898474FF0FF30F6E74FF0FF3065
:1011A000F3E700BF5804002034020020540400205C
:1011B0005C040020FEE7FEE708B500F02DF8124AB7
:1011C0000AE01068516850F8230041F82300013309
:1011D00091688B42F5D30C320C4B9A4201D200231A
:1011E000F6E70B4A08E01168002041F823000133BC
:1011F00051688B42F7D30832064B9A4201D2002342
:10120000F6E7FFF727F900BF0C2C0000242C0000A4
:10121000242C0000242C000072B60D4A0D4B9A605D
:101220000D4B4AF25A52C3F8F02000229A604FF058
:1012300080435722C3F8F0207522C3F8F020074BF3
:101240001522C3F8F02F5122C3F8F02F62B6704771
:101250000000000000ED00E000020040000001413D
:10126000054B1B6803FB00F0002301E000BF0133C6
:101270008342FBD3704700BF0000002053B94AB936
:10128000002908BF00281CBF4FF0FF314FF0FF308E
:1012900000F06AB9ADF1080C6DE904CE00F006F873
:1012A000DDF804E0DDE9022304B070472DE9F047E2
:1012B000089D0E4604460F46002B4AD194468C45A5
:1012C000B2FA82F260D942B1C2F12003974020FA0B
:1012D00003F30CFA02FC1F4394404FEA1C4E1FFA22
:1012E0008CF6B7FBFEF1230C0EFB117743EA0743A4
:1012F00001FB06F098420AD91CEB030301F1FF370A
:1013000080F01581984240F21281023963441B1A21
:10131000A4B2B3FBFEF00EFB103344EA034400FB1F
:1013200006F6A6420AD91CEB040400F1FF3380F054
:101330000081A64240F2FD806444023840EA014048
:10134000A41B00211DB1D4400023C5E90043BDE822
:10135000F0878B4205D90DB1C5E90001002108468F
:10136000F5E7B3FA83F1002946D1B34202D38242B2
:1013700000F2F580841A66EB030201201746002D67
:10138000E5D0C5E90047E2E7002A40F09380A1EBF1
:101390000C034FEA1C471FFA8CFE0121B3FBF7F642
:1013A00007FB1630230C43EA00430EFB06F098427D
:1013B00008D91CEB030306F1FF3802D2984200F271
:1013C000D08046461B1AA4B2B3FBF7F007FB1033DC
:1013D00044EA03440EFB00FEA64508D91CEB0404B6
:1013E00000F1FF3302D2A64500F2B6801846A4EB06
:1013F0000E0440EA0640A5E7C1F120078B4022FA1F
:1014000007FC4CEA030C06FA01FE20FA07F426FA60
:1014100007F344EA0E0400FA01F84FEA1C404FEAD1
:101420001449B3FBF0FE1FFA8CF600FB1E3349EAA9
:1014300003430EFB06F9994502FA01F20BD91CEBA6
:1014400003030EF1FF3A80F08580994540F28280D7
:10145000AEF1020E6344A3EB0909A4B2B9FBF0F3A9
:1014600000FB139944EA094403FB06F6A64208D997
:101470001CEB040403F1FF3068D2A64266D9023B9C
:10148000644443EA0E40A41BA0FB02E6B442734648
:10149000B14652D34FD05DB1B8EB030264EB0904FF
:1014A00004FA07F722FA01F31F43CC40C5E90074A0
:1014B00000214CE7C2F1200120FA01F30CFA02FCF2
:1014C00026FA01F1964033434FEA1C471FFA8CFE7F
:1014D000B1FBF7F007FB1016190C41EA064100FBBF
:1014E0000EF68E4204FA02F408D91CEB010100F159
:1014F000FF382DD28E422BD902386144891B9BB212
:10150000B1FBF7F607FB161143EA014306FB0EF1A8
:10151000994208D91CEB030306F1FF3814D2994213
:1015200012D9023E63445B1A46EA004136E7394667
:10153000EDE6184602E7F045ADD2BEEB020366EBDE
:101540000C060138B146A6E74646ECE7034698E7A5
:101550004046D3E7D6467EE76444023847E708466C
:101560000DE7023E63442DE7704700BF08B5064B08
:10157000044613B10021AFF30080044B1B6803B194
:101580009847204601F02EFA000000009805002040
:10159000002310B50446C0E90033C0E9043383607A
:1015A00081814366C2818361194608225C3000F064
:1015B000F3F90D4B63620D4BA3620D4BE3620D4BD0
:1015C00023630D4B24629C4206D003F168029442CF
:1015D00002D0D0339C4205D104F15800BDE8104040
:1015E00000F04CBA10BD00BFA1180000C3180000E5
:1015F000FB1800001F19000060040020024A034984
:10160000034800F069B800BF28000020CD25000085
:101610003800002041680C4B994210B5044601D0B7
:1016200000F0D4FFA168094B994202D0204600F097
:10163000CDFFE168064B994204D02046BDE810403A
:1016400000F0C4BF10BD00BF60040020C80400202B
:101650003005002010B50B4B0B4C0C4A1A6020468D
:1016600000220421FFF794FF04F168000122092100
:10167000FFF78EFF04F1D0000222BDE810401221D6
:10168000FFF786BF9805002060040020FD150000CC
:10169000014800F0F4B900BFA1050020014800F0A6
:1016A000EFB900BFA105002010B50446FFF7F0FF19
:1016B000236A1BB1BDE81040FFF7F0BF044B236263
:1016C000044B1B68002BF5D1FFF7C4FFF2E700BF06
:1016D00015160000980500202DE9F84307468846B6
:1016E00014460026D4E90195B9F1010905D524680D
:1016F000002CF7D13046BDE8F883AB89012B07D920
:10170000B5F90E30013303D029463846C0470643A9
:101710006835E9E70FB407B5064904AB086853F824
:10172000042B8168019300F02DFC03B05DF804EBFD
:1017300004B07047340000202DE9F7431D46574B95
:101740001F6804460E46904627B13B6A13B93846D7
:10175000FFF7AAFFB8F1020F06D0B8F1010F00F2AF
:101760009A80002DC0F29780636ED90705D4A389B3
:101770009A0502D4A06D00F082F92146384600F0A7
:1017800025FF616B41B104F14403994202D0384610
:1017900000F078F9002363630023A3616360A389E9
:1017A0001B0603D52169384600F06CF9A38923F4A0
:1017B0004A6323F00303B8F1020FA38161D001ABA8
:1017C0006A462146384600F029FFA3891843A081C4
:1017D0002DBB009D284600F09FF90646002852D1F7
:1017E000DDF80090A94540D14FF0FF35B4F90C3039
:1017F00043F00202A2810022A26004F147022260AB
:10180000226101226261626ED60704D4980502D477
:10181000A06D00F035F9284603B0BDE8F083002E36
:10182000D8D03B6A13B93846FFF73EFFB8F1010F35
:1018300008BFA389266004BF43F00103A381B4F964
:101840000C3013F00802C4E904651ED0D90741BF6B
:1018500000226D42A260A56158BFA560626ED207EA
:1018600001D49B0513D50025D5E7484600F054F96F
:1018700006460028B8D0A38943F08003A3814D46D3
:10188000CFE70025B2E7A946F5E7A260E6E7A06D3D
:1018900000F0F6F8E7E74FF0FF35BCE73400002032
:1018A00010B50C46B1F90E1000F0A0F80028ABBF3F
:1018B000636DA3891B1823F48053ACBF6365A381B8
:1018C00010BD2DE9F0411F468B89DB0505460C460E
:1018D000164605D5B1F90E100223002200F074F867
:1018E000A389B4F90E1023F48053A38132463B46FA
:1018F0002846BDE8F04100F08BB810B50C46B1F9B0
:101900000E1000F061F8431CA38915BF606523F435
:10191000805343F48053A38118BFA38110BDB1F954
:101920000E1000F041B830B51446002C9BB00546AF
:101930001A4605DA8B2303604FF0FF301BB030BD31
:101940004FF40273ADF80C3014BF04F1FF3323469B
:10195000029305934FF6FF7300910491ADF80E309A
:1019600069461E9B00F0EAF9431CBCBF8B232B6029
:10197000002CE3D0009B00221A70DFE707B500932C
:1019800013460A46014603480068FFF7CCFF03B040
:101990005DF804FB3400002002440346934200D16A
:1019A000704703F8011BF9E738B5064D00230446DC
:1019B00008462B60FFF768FB431C02D12B6803B17C
:1019C000236038BD9C05002038B5074D0446084605
:1019D000114600222A601A46FFF75CFB431C02D125
:1019E0002B6803B1236038BD9C05002038B5074D36
:1019F00004460846114600222A601A46FFF739FBC2
:101A0000431C02D12B6803B1236038BD9C05002024
:101A100038B5074D04460846114600222A601A468A
:101A2000FFF71AFB431C02D12B6803B1236038BDBA
:101A30009C05002070B50D4D0D4C641BA4100026B4
:101A4000A64209D10B4D0C4C00F0CEFF641BA41034
:101A50000026A64205D170BD55F8043B98470136D3
:101A6000EEE755F8043B98470136F2E78400002082
:101A70008400002084000020880000207047704708
:101A80007047000038B50546002941D051F8043CA4
:101A90000C1F002BB8BFE41800F0E8F81D4A1368CB
:101AA00033B9636014602846BDE8384000F0E4B8FC
:101AB000A34208D9206821188B4201BF19685B68CE
:101AC00009182160EDE71A465B680BB1A342FAD909
:101AD00011685018A0420BD120680144501883426D
:101AE0001160E0D118685B68536008441060DAE761
:101AF00002D90C232B60D6E7206821188B4204BF43
:101B000019685B68636004BF091821605460CAE704
:101B100038BD00BFA8050020024B0146186800F040
:101B200025B800BF3400002070B50F4E0C46316858
:101B3000054611B900F0A4FE30602146284600F0A9
:101B40009FFE431C03D14FF0FF34204670BDC41CE0
:101B500024F00304A042F8D0211A284600F090FE99
:101B60000130F2D1EFE700BFA40500202DE9F843D2
:101B7000CD1C25F0030508350C2D38BF0C25002D94
:101B8000064601DBA94204D90C2333600020BDE8DE
:101B9000F883DFF8D48000F069F8D8F800301C46EC
:101BA00044BB29463046FFF7BFFF431C044658D1CB
:101BB000D8F800402746002F43D1002C4BD0236893
:101BC0003946304604EB030900F05AFE814542D104
:101BD00021686D1A29463046FFF7A6FF01303AD03A
:101BE00023682B442360D8F800305A6862BBC8F8D9
:101BF00000700FE02268521B20D40B2A17D96119FC
:101C0000A342256018BF5960636808BFC8F8001078
:101C100062514B60304600F02FF804F10B00231D99
:101C200020F00700C21A1CBF1B1AA350AFE762685E
:101C3000A3420CBFC8F800205A60EBE72346646853
:101C4000AEE73C467F68B6E71A465B68A342FBD125
:101C500000235360DEE70C233360304600F00CF8BD
:101C600094E70560D6E700BFA80500200148FFF70C
:101C700006BF00BFA00500200148FFF701BF00BF5D
:101C8000A00500202DE9F0478E681F46BE420B6874
:101C900082460C4690462DD8B1F90C2012F4906F74
:101CA00026D06569096905EB4505A3EB010905EB3C
:101CB000D5757B1C4B446D109D4238BF1D465305A6
:101CC00027D52946FFF752FF064660B321694A46E9
:101CD00000F036FEA38923F4906343F08003A381D0
:101CE000266165614E44A5EB09052660A5603E4668
:101CF000BE4200D93E4620683246414600F084FD8F
:101D0000A3689B1BA3602368334423600020BDE8C5
:101D1000F0872A4600F022FE06460028E0D121691D
:101D20005046FFF7AFFE0C23CAF80030A38943F0FA
:101D30004003A3814FF0FF30E9E700002DE9F04FA9
:101D400098468B891B069DB007460D46144610D554
:101D50000B6973B94021FFF709FF2860286130B98A
:101D60000C233B604FF0FF301DB0BDE8F08F4023E7
:101D70006B610023099320238DF82930CDF80C8066
:101D80003023DFF89C818DF82A304FF0010923467B
:101D90009A4613F8012B0AB1252AF9D1BAEB040BA4
:101DA0000BD05B46224629463846FFF76BFF0130D1
:101DB00000F0A780099A5A4409929AF80030002B43
:101DC00000F09F8000234FF0FF32CDE905230AF198
:101DD000010A049307938DF853301A935446052251
:101DE00014F8011B4E4800F05BFD049AD8B9D006E8
:101DF00044BF20238DF85330110744BF2B238DF8A7
:101E000053309AF800302A2B15D0079A54460020F8
:101E10004FF00A0C214611F8013B303B092B4BD9FE
:101E2000B0B1079214E0A0EB080309FA03F31343DF
:101E30000493A246D2E7039B191D1B680391002B54
:101E4000BBBF5B4242F0020207930793B8BF049204
:101E500023782E2B0AD163782A2B32D1039B1A1DAB
:101E60001B68039243EAE37302340593DFF8B4A0DE
:101E700021780322504600F013FD38B1049BA0EBFB
:101E80000A004022824013430134049314F8011BDA
:101E900025488DF82810062200F002FD002836D0D3
:101EA000224B1BBB039B073323F007030833039329
:101EB000099B334409936AE70CFB02320C4601206C
:101EC000A8E700230134059319464FF00A0C204679
:101ED00010F8012B303A092A03D9002BC6D00591FE
:101EE000C4E70CFB012104460123F0E703AB009398
:101EF0002A460F4B04A93846AFF30080421C064621
:101F0000D6D1AB895B063FF52DAF09982CE703AB23
:101F100000932A46064B04A9384600F0B9F9EDE7CC
:101F20007C2B0000822B0000862B000000000000AC
:101F3000851C00009368013B002B10B4936007DA06
:101F40009469A34201DB0A2902D110BC00F0C8BB8E
:101F50001368581C10601970084610BC7047F8B51B
:101F600006460F461446D518AC4201D1002007E0C2
:101F700014F8011B3A463046FFF7DCFF431CF3D14F
:101F8000F8BD00002DE9F04F0D469DB0144698466F
:101F9000064618B1036A0BB9FFF786FB6B6ED907CB
:101FA00005D4AB899A0502D4A86DFFF768FDAB890B
:101FB0001B0701D52B699BB92946304600F0CEFBA3
:101FC00070B16B6EDC0704D54FF0FF301DB0BDE87B
:101FD000F08FAB899805F7D4A86DFFF751FDF3E7B3
:101FE0000023099320238DF82930CDF80C8030236D
:101FF000DFF8AC818DF82A304FF0010923469A466C
:1020000013F8012B0AB1252AF9D1BAEB040B0BD036
:102010005B46224629463046FFF7A1FF013000F01B
:10202000A780099A5A4409929AF80030002B00F0D0
:102030009F8000234FF0FF32CDE905230AF1010A0A
:10204000049307938DF853301A935446052214F8DD
:10205000011B534800F024FC049AD8B9D10644BFB0
:1020600020238DF85330130744BF2B238DF85330B2
:102070009AF800302A2B15D0079A544600204FF0CA
:102080000A0C214611F8013B303B092B4BD9B0B16A
:10209000079214E0A0EB080309FA03F31343049337
:1020A000A246D2E7039B191D1B680391002BBBBFFF
:1020B0005B4242F0020207930793B8BF0492237871
:1020C0002E2B0AD163782A2B32D1039B1A1D1B6851
:1020D000039243EAE37302340593DFF8C8A0217842
:1020E0000322504600F0DCFB38B1049BA0EB0A0051
:1020F0004022824013430134049314F8011B2A4800
:102100008DF82810062200F0CBFB00283FD0274B8B
:102110001BBB039B073323F0070308330393099B7F
:102120003B4409936AE70CFB02320C460120A8E706
:1021300000230134059319464FF00A0C204610F88D
:10214000012B303A092A03D9002BC6D00591C4E7E8
:102150000CFB012104460123F0E703AB00932A4660
:10216000134B04A93046AFF300800746781CD6D144
:102170006B6ED90705D4AB899A0502D4A86DFFF719
:102180007FFCAB895B063FF51FAF09981EE703ABE9
:1021900000932A46064B04A9304600F079F8E4E79C
:1021A0007C2B0000822B0000862B0000000000002A
:1021B0005F1F00002DE9F047164698468A680B69B4
:1021C000DDF820909342B8BF1346336091F8432066
:1021D00007460C460AB1013333602368990642BFB3
:1021E000336802333360256815F0060506D104F123
:1021F000190AE36832689B1AAB4226DC94F8433034
:102200002268003B18BF012392062BD404F143023D
:1022100041463846C84701301ED02368226903F082
:102220000603042B02BFE5683368ED1AA3680CBFF0
:1022300025EAE57500259342C4BF9B1AED180026D8
:102240001A34B5421AD1002008E001235246414613
:102250003846C847013003D14FF0FF30BDE8F08762
:102260000135C6E7E1185A1C302081F843002244AA
:1022700094F8451082F843100233C7E70123224641
:1022800041463846C8470130E6D00136D9E700005C
:102290002DE9FF470F7E0C9E782F914680460C4615
:1022A0009A4601F1430207D8622F0AD8002F00F0A6
:1022B000D180582F00F0B88004F1420684F84270B3
:1022C0003AE0A7F16303152BF6D801A151F823F0EA
:1022D000292300003D230000B9220000B92200009C
:1022E000B9220000B92200003D230000B9220000FD
:1022F000B9220000B9220000B92200003B240000EE
:1023000067230000F5230000B9220000B922000075
:102310005D240000B922000067230000B9220000FC
:10232000B9220000FD23000033681A1D1B683260CB
:1023300004F1420684F8423001239CE033682068AF
:10234000191D3160060601D51D6803E04506FBD561
:10235000B3F90050002D03DA2D236D4284F8433089
:1023600058480A2311E021683368080653F8045BD3
:1023700002D4490648BFADB26F2F5248336014BF34
:102380000A230823002184F843106668A660002E03
:1023900005DB21682E4321F0040121604BD0164655
:1023A000B5FBF3F103FB1157C75D06F8017D2F461E
:1023B000BB420D46F4D9082B0BD12368DF0708D5A3
:1023C000236961689942DEBF302306F8013C06F1BB
:1023D000FF36921B2261CDF800A04B4603AA21468E
:1023E0004046FFF7E7FE01304AD14FF0FF3004B01E
:1023F000BDE8F087236843F0200323603248782744
:1024000084F84570236831681F0651F8045B02D4D4
:102410005F0648BFADB23160D90744BF43F0200327
:1024200023601DB11023ADE72648E9E7236823F0B8
:1024300020032360F6E71646BDE733682568616927
:10244000181D30602E061B6801D5196002E0680671
:10245000FBD51980002323611646BCE733681A1D9B
:1024600032601E6862680021304600F019FA08B137
:10247000801B606063682361002384F84330AAE70F
:102480002369324649464046D0470130ADD02368E3
:102490009B0713D4E068039B9842B8BF1846A6E791
:1024A0000123324649464046D04701309DD0013590
:1024B000E36803995B1AAB42F2DCEBE7002504F119
:1024C0001906F5E78D2B00009E2B0000B1F90C20BA
:1024D000F8B5160705460C4654D44B68002B02DCB1
:1024E0000B6C002B48DDE66A002E45D0002312F469
:1024F00080522F68216A2B6030D0626DA389590702
:1025000005D56368D21A636B0BB1236CD21A002312
:10251000E66A216A2846B047431CA38906D1296888
:102520001D292BD8284ACA40D60727D50022626029
:10253000D9042269226004D5421C01D12B6803B959
:102540006065616B2F60B9B104F14403994202D018
:102550002846FFF797FA002363630DE0012328461E
:10256000B0470246501CC9D12B68002BC6D01D2B8A
:1025700001D0162B1DD12F60002021E043F0400335
:102580001BB21AE00F69002FF6D093070E6808BF40
:102590004B690F6018BF0023F61B8B60002EEBDD2C
:1025A000216AD4F828C033463A462846E047002836
:1025B00007DCB4F90C3043F04003A3814FF0FF3047
:1025C000F8BD0744361AE9E70100402038B50B6929
:1025D00005460C4613B90025284638BD18B1036AD4
:1025E0000BB9FFF761F8B4F90C30002BF3D0626E31
:1025F000D00704D4990502D4A06DFFF740FA28460D
:102600002146FFF763FF636EDA070546E4D4A3892A
:102610009B05E1D4A06DFFF733FADDE770B50C46FA
:10262000B1F90E10002996B015461E460DDAA389A1
:1026300013F0800F4FF0000114BF40234FF480636C
:10264000002031602B6016B070BD6A4600F0F6F8CD
:102650000028ECDB019901F47041A1F500535942C7
:1026600059414FF48063EBE78B89F7B59D07064628
:102670000C4607D504F147032360236101236361FE
:1026800003B0F0BD01AB6A46FFF7C8FF009F0546E7
:1026900039463046FFF76AFA48B9B4F90C309A0562
:1026A000EED423F0030343F00203A381E2E7A389FE
:1026B000206043F08003A381019BC4E904075BB160
:1026C000B4F90E10304600F0CBF828B1A38923F0FE
:1026D000030343F00103A381A3891D43A581CFE731
:1026E000F8B50E461446054618B1036A0BB9FEF755
:1026F000DBFFA369A360A3891A0701D5236943B946
:102700002146284600F02AF818B14FF0FF37384626
:10271000F8BD23682269981A6369F6B28342374686
:1027200005DC21462846FFF751FF0028EDD1A368BC
:10273000013BA36023685A1C22601E706269431C1F
:102740009A4204D0A389DB07E1D50A2EDFD12146C6
:102750002846FFF73BFF0028D9D0D6E738B5294BEC
:10276000054618680C4618B1036A0BB9FEF79CFFC2
:10277000B4F90C30190722D4DA0607D409222A60EA
:1027800043F04003A3814FF0FF3033E0580712D5E8
:10279000616B41B104F14403994202D02846FFF72E
:1027A00071F900236363A38923F02403A381002329
:1027B000636023692360A38943F00803A38123692D
:1027C0004BB9A38903F42073B3F5007F03D02146EE
:1027D0002846FFF749FFB4F90C3013F001020AD084
:1027E0000022A26062695242A261226942B913F0DA
:1027F0008000C5D138BD990758BF6269A260F4E76F
:102800000020F7E734000020884210B501EB0204F5
:1028100002D98442234607D8431EA14208D011F8AA
:10282000012B03F8012FF8E7024401468A4200D148
:1028300010BD13F8014D02F8014DF7E738B5074D0B
:1028400000230446084611462B60FEF71FFC431C7C
:1028500002D12B6803B1236038BD00BF9C05002066
:1028600038B5064D0023044608462B60FEF710FCE1
:10287000431C02D12B6803B1236038BD9C050020A6
:1028800038B5064D0023044608462B6000F09CF83E
:10289000431C02D12B6803B1236038BD9C05002086
:1028A00001F0FF01102A2BDB10F0070F08D010F801
:1028B000013B013A8B422DD010F0070F42B3F6D105
:1028C000F0B441EA012141EA014122F007047FF01E
:1028D00000070023F0E80256083C85EA010586EA75
:1028E000010685FA47F5A3FA87F586FA47F6A5FAB1
:1028F00087F68EB9EED1F0BC01F0FF0102F00702BD
:1029000032B110F8013B013A83EA010313B1F8D167
:102910000020704701387047002D06BF3546033848
:10292000073815F0010F07D1013015F4807F02BF81
:10293000013015F4C03F0130F0BC0138704700BFD2
:102940000A44914200F1FF3300D1704710B511F8ED
:10295000014B03F8014F9142F9D110BD2DE9F0412F
:10296000074614460D4621B9BDE8F0411146FFF770
:10297000FDB82AB9FFF786F825462846BDE8F0815C
:1029800000F01AF88442064602D8B4EB500FF4D88F
:1029900021463846FFF7EAF8804608B94546ECE795
:1029A000B4422246294628BF3246FFF7C9FF2946CE
:1029B0003846FFF767F8F1E751F8043C181F002B81
:1029C000BCBF0B58C0187047044A05491368002B58
:1029D00008BF0B461844106018467047AC0500202D
:1029E000B0050020FEE700BFF8B500BFF8BC08BC8A
:1029F0009E467047F8B500BFF8BC08BC9E467047BD
:102A000041333447343341203A20466C61736820A7
:102A1000323034384B42202F205352414D20323532
:102A2000364B420041333447343330203A20466C31
:102A300061736820313032344B42202F2053524191
:102A40004D203235364B4200556E6B6E6F776E00FF
:102A5000436F727465782D4D340000000A2A2A2ACB
:102A60002A2A2A2A2A2A2A2A2A2A2A2A2A2A2A2AC6
:102A70002A2A2A2A2A2A2A2A2A2A2A2A2A2A2A2AB6
:102A80002A2A2A2A2A2A2A2A2A2A2A2A2A0A0D000D
:102A90002D204D4355202D202573200A00000000D5
:102AA0002D20436F72653A2041524D20257320201E
:102AB0000A00000055415254000000002D20436FD1
:102AC0006D6D756E6963617465207669613A202564
:102AD000732564202D2025646270730A00000000B5
:102AE0002D2041524D2053797374656D20436F72D0
:102AF0006520436C6F636B203D2025640A00000055
:102B00002D20434C49203A20276C73272073686F8F
:102B10007720636F6D6D616E64206C697374200A39
:102B2000000000002A2A2A2A2A2A2A2A2A2A2A2AAD
:102B30002A2A2A2A2A2A2A2A2A2A2A2A2A2A2A2AF5
:102B40002A2A2A2A2A2A2A2A2A2A2A2A2A2A2A2AE5
:102B50002A2A2A2A0A0D0000257300000000099F76
:102B6000000701020000000001040109050701053A
:102B7000010A010B010C010D010E010F232D302B59
:102B80002000686C4C00656667454647003031326E
:102B900033343536373839414243444546003031C5
:102BA0003233343536373839616263646566000024
:102BB0001000000000000000017A5200027C0E01AB
:102BC0001B0C0D003800000018000000D4FCFFFFB3
:102BD0009E00000000510E108404850386028701C8
:102BE0005BC7C6C5C40E004C0A420B0A420B0E104E
:102BF000840485038602870151C7C6C5C40E000040
:042C000000000000D0
:082C040048D8FF7F0100000029
:102C0C00242C000000000020230000000C2C0000ED
:082C1C00000000200000000090
:102C2400010000000100000020A1070020A107000E
:102C34000510000007100000091000000B10000030
:102C44000D1000001110000000000000030000003F
:102C54006004002038000020000000006004002010
:102C6400C80400203005002000000000000000001F
:102C74000000000000000000000000000000000050
:102C84000000000000000000000000000000000040
:102C94000000000000000000000000000000000030
:0C2CA400000000002904000001040000F2
:04000003000011B92F
:00000001FF
