:100000000000042011490000C53F00000D49000018
:100010000F4900000F4900000F49000000000000D8
:100020000000000000000000000000000F49000078
:100030000F490000000000000F490000DD1600001D
:100040000F490000292F0000332F00003D2F000032
:100050000F4900000F4900000F4900000F49000040
:100060000F4900000F4900000F4900000F49000030
:100070000F4900000F4900000F4900009D290000B2
:10008000A7290000B1290000BB290000C5290000F4
:10009000CF290000D9290000E3290000ED29000044
:1000A000F72900000F4900000F4900000F49000028
:1000B0000F4900000F4900000F4900000F490000E0
:1000C0000F4900000F4900000F4900000F490000D0
:1000D000D1310000D9310000E1310000E9310000E8
:1000E000F1310000F9310000013200000F49000039
:1000F0000F4900000F4900000F4900000F490000A0
:100100000F4900000F4900000F4900000F4900008F
:100110000F4900000F4900000F4900000F4900007F
:100120000F4900000F4900000F4900000F4900006F
:10013000D53E0000DF3E0000E93E000075230000D0
:100140007F23000089230000932300009D230000EB
:10015000A72300000F4900000F4900000F490000CD
:100160000F4900000F490000554500005F450000A1
:10017000694500000F4900000F4900000F490000C9
:100180000F4900000F4900000F4900000F4900000F
:100190000F4900000F4900000F4900000F490000FF
:1001A0000F4900000F4900000F4900000F490000EF
:1001B0000F4900000F4900000F4900000F490000DF
:1001C0000F4900000F4900000F4900000F490000CF
:1001D000F33E00000F4900000F4900000F490000E6
:1001E0000F4900000F4900000F4900000F490000AF
:1001F000B1230000BB230000C5230000CF23000073
:10020000D9230000E3230000ED2300000F49000084
:100210000F4900000F4900000F4900000F4900007E
:100220000F4900000F4900000F4900000F4900006E
:100230000F49000000000000000000000000000066
:1002400000000000000000000000000000000000AE
:10025000000000000000000000000000000000009E
:10026000000000000000000000000000000000008E
:10027000000000000000000000000000000000007E
:10028000000000000000000000000000000000006E
:10029000000000000000000000000000000000005E
:1002A000000000000000000000000000000000004E
:1002B000000000000000000000000000000000003E
:1002C000000000000000000000000000000000002E
:1002D000000000000000000000000000000000001E
:1002E000000000000000000000000000000000000E
:1002F00000000000000000000000000000000000FE
:1003000000000000000000000000000000000000ED
:1003100000000000000000000000000000000000DD
:1003200000000000000000000000000000000000CD
:1003300000000000000000000000000000000000BD
:1003400000000000000000000000000000000000AD
:10035000000000000000000000000000000000009D
:10036000000000000000000000000000000000008D
:10037000000000000000000000000000000000007D
:10038000000000000000000000000000000000006D
:10039000000000000000000000000000000000005D
:1003A000000000000000000000000000000000004D
:1003B000000000000000000000000000000000003D
:1003C0000348044B834202D0034B03B118477047E4
:1003D0009000002090000020000000000548064B1F
:1003E0001B1AD90F01EBA301491002D0034B03B133
:1003F0001847704790000020900000200000000087
:1004000010B5064C237843B9FFF7DAFF044B13B15C
:100410000448AFF300800123237010BD900000203A
:1004200000000000EC68000008B5054B1BB1054951
:100430000548AFF30080BDE80840FFF7CFBF00BF1D
:100440000000000094000020EC680000A3F5803A52
:10045000704700BF174B002B08BF134B9D46FFF79B
:10046000F5FF00218B460F461348144A121A04F078
:100470003FFE0E4B002B00D098470D4B002B00D0B9
:1004800098470020002104000D000D48002802D0EC
:100490000C48AFF3008004F079FE2000290001F041
:1004A000BFF804F00FFC00BF0000080000000000CF
:1004B00000000000000004209000002044120020F2
:1004C00000000000000000002DE9F0410C4600296A
:1004D00040D000229046154610E030F81230A3F5C7
:1004E0000043DE1703FB06F6A3FB033101EB4601D5
:1004F00013EB0803984641EB05050132A242ECD309
:10050000224600234046294604F064FA0A4606467D
:100510000F46A04575F100051FD3451C41F10008A9
:100520006D0845EAC8754FEA5808854278EB020223
:1005300011D22A4643463046394604F04BFA281871
:1005400048EB010143082846424643EAC1754FEA99
:100550005108EAE70846BDE8F0810020FBE708B54E
:10056000012202F015FE08BD08B5002202F010FEBF
:1005700008BD0000014B01221A707047AC0000203A
:1005800030B587B001AC1C4D0FCD0FC42B68236074
:100590001A4800F097FE1A4800F094FE194800F03F
:1005A00091FE00240CE006AB03EB440313F8131C8C
:1005B00013F8140CFFF7D3FFC82001F0C5F801347D
:1005C000092CF0D94FF4FA7001F0BEF800240CE0C9
:1005D00006AB03EB440313F8131C13F8140CFFF7DA
:1005E000C3FF642001F0B0F80134092CF0D90648AB
:1005F00000F068FE07B030BD806800006061000058
:100600008C610000A8610000D461000030B585B0A5
:10061000394800F057FE394800F054FE384800F0E1
:1006200051FE384800F04EFE00F05CF9002845D13C
:100630000446354800F046FE0125344800F042FEED
:1006400000F072FE00283FD1314800F03BFE01353A
:10065000EDB2304800F036FE00F096FB002839D1AC
:100660002D4800F02FFE0135EDB22C4800F02AFE97
:100670004FF47A53009350230193294B02934FF484
:1006800080630393684600F06FFA48BB254800F08A
:1006900019FE0135EDB2244800F014FE2B19224654
:1006A0002946224800F018FE04BB214800F00AFE4B
:1006B000134800F007FE204605B030BD1D4800F08D
:1006C00001FE01240025B8E71B4800F0FBFD0134C2
:1006D000E4B2BEE7194800F0F5FD0134E4B2C4E726
:1006E000174800F0EFFD0134E4B2D4E72146154885
:1006F00000F0F2FDDCE700BF60610000F061000087
:10070000A8610000146200003C6200006862000002
:1007100084620000B4620000D86200000863000038
:10072000B0000020286300005863000084630000CC
:10073000A86300004C62000098620000EC620000B8
:100740003C630000C4630000F0B585B024220021A2
:10075000524804F0CDFC524800F0B4FD00F0D6F849
:10076000002842D14D4B01221A724E4A12681A607B
:100770004D4A12685A600023ADF80A30039303A96A
:100780000DF10A0000F032FE002832D1434B012265
:100790001A74039ADA6000F0A1FB70BB3F4B012290
:1007A0001A76424A12885A82414A12889A82414AEB
:1007B0001288DA8200F026FA38BB4FF47A7000F023
:1007C000C3FF00F03BFA00F04DFA0146C8B1334CCC
:1007D000012384F82030B0F5806F28BF4FF480618A
:1007E0003548FFF771FEE06112E0344800F06AFD21
:1007F000C1E7334800F066FDCDE7324800F062FD06
:10080000D8E7314800F05EFD02E0304800F05AFDC4
:10081000224B1A682E4B83FB0213D117C1EBA31195
:10082000002A2EDB4FF47A7000FB11221B4C676804
:10083000274D85FB073CFB17C3EBAC104FF47A76D2
:1008400006FB10700090C3EBAC13224800F044FD8F
:10085000E268A5FB0231890906FB11221E4800F05F
:100860003BFDB4F91630B4F91420B4F912101B484A
:1008700000F032FDE1691A4800F02EFD204605B077
:10088000F0BD5242124880FB0230D317C3EBA013D5
:100890004FF47A7000FB1322C8E700BFB0080020B5
:1008A000E4630000DC080020D808002022090020B2
:1008B000200900201E090020B0000020FC63000079
:1008C00010640000246400003864000054640000D8
:1008D000D34D62106C6400009C640000BC64000096
:1008E000DC64000008B5074800F000F943B223B902
:1008F000054B01221A70C0B208BD034B00221A70CA
:10090000F9E700BFE0080020D408002008B5054B37
:100910001B780BB9012008BD0349044800F0CEF84C
:10092000C0B2F8E7D4080020D8080020DC08002076
:100930000278407840EA02207047027843781B042E
:1009400043EA0263827843EA0223C078184370477F
:1009500000B58646FF204FF0000C10E04000C0B20A
:10096000013BDBB23BB142B2002AF7DA520082F01F
:100970003102D0B2F4E70CF1010C1FFA8CFC8C456B
:1009800004D21EF80C3058400823EBE75DF804FB56
:1009900010B51446FFF7DCFFA04201D1002010BDC6
:1009A0000120FCE708B500F03DF808BD2DE9F04155
:1009B000570807EB470712F001041CD10D46BFB2E0
:1009C0003A4600F01FF88046B8B92646BC4214D219
:1009D000A31CEA5C02212819FFF7DAFF80B9731C17
:1009E0009BB22A5DAA550236B6B22A195278EA5449
:1009F0000334A4B2EAE74FF004084046BDE8F081B2
:100A00008046FAE700B583B01346012200920A46F9
:100A10000146022003F01AF8003818BF012003B085
:100A20005DF804FB00B583B01346012200920A462C
:100A30000146022002F036FF003818BF012003B043
:100A40005DF804FB08B500F07FFE08BD45F2735366
:100A500003FB00F04013A0F52F40C838704743F661
:100A6000095303FB00F04013A0F5BB50103870474A
:100A700070B582B005460C46FD238DF8003001228A
:100A800069464420FFF78EFF064610B1304602B09B
:100A900070BD6420FFF7D6FF042269464420FFF7AB
:100AA00085FF06460028F1D16846FFF741FF288000
:100AB0000DF10200FFF73CFF2080E7E770B582B040
:100AC00005460C4601A90DF10600FFF7D1FF0646C9
:100AD00048B9BDF80600FFF7B9FF2860BDF804006B
:100AE000FFF7BDFF2060304602B070BD30B583B067
:100AF000044689238DF80030012269464420FFF71F
:100B000051FF054610B1284603B030BD4FF47A704E
:100B1000FFF798FF042269464420FFF747FF054688
:100B20000028F0D16846FFF708FF2060EBE70000DF
:100B3000024A136801331360704700BFE8080020C1
:100B400008B501220021084602F0D2FA30B9072286
:100B50000021084602F07CFA18B908BD4FF0FF30BA
:100B6000FBE74FF0FF30F8E7002833D038B50446F4
:100B70000368002B31D04268642A31D88268002A89
:100B800031D0C268002A31D01D4A12788ABB013B9D
:100B90004BF67F3293422FD8194D2C220021284644
:100BA00004F0A6FA23686B606368AB60A368EB602F
:100BB000E3682B61FFF7C4FF38B9114B00225A617B
:100BC0009A61DA6101221A7038BD04222A704FF04E
:100BD000FF30F9E76FF0010070476FF00100F3E7B5
:100BE0006FF00100F0E76FF00100EDE76FF001003A
:100BF000EAE76FF00300E7E76FF00100E4E700BF0A
:100C0000F00800200B4B1B78012B01D0032B0ED1D9
:100C1000012B04D0074B02221A7000207047054BAD
:100C200000221A625A62044B01221A70F2E74FF056
:100C3000FF307047F0080020EC08002008B5084B92
:100C40001B78023BDBB2012B07D8002003F006FC27
:100C5000034B01221A70002008BD4FF0FF30FBE764
:100C6000F0080020014B586A704700BFF0080020D0
:100C700010B4A0F2A960154B9B6800FB03F3144A63
:100C800082FB0302DB17C3EB62130B60DB000B601C
:100C90004A681A448868121AC2EB4212D2001446FB
:100CA000002A0DDB24124C608B600A4B9A420ADB4F
:100CB00047F6F870A042A8BF204600B210BC7047AB
:100CC00002F1FF04EEE70448F7E700BFF008002058
:100CD0001F85EB51010780FF0880FFFF10B50F4C07
:100CE0002146FFF7C5FF54F8083CE268A0F5004034
:100CF00023F81200E3680133E36054F8041C8B42CC
:100D000004D2074A536A0133536210BDA4F114039D
:100D100000221A62D868FFF72DFCF2E704090020D0
:100D2000F00800200E4B1B78022B00D0704710B546
:100D300082B0002003F05EFB80B964242346013CAE
:100D400063B100208DF800006A46014603F0B6FB4F
:100D50000028F3D1BDF80200FFF7C0FF02B010BDBC
:100D6000F008002078B182B008E0019B01330193C4
:100D7000019BB3F5FA5FF8D3013810B1002301935A
:100D8000F6E702B07047704730B585B000258DF8A2
:100D90000F50012000F00FFA3220FFF7E3FF2C463E
:100DA00004E00A20FFF7DEFF0134E4B2042C0AD885
:100DB0000DF10F0000F052F905460028F1D19DF821
:100DC0000F30332BEDD115BB9DF80F103C4B197034
:100DD000332921D1002000F0A0F9002867D1052097
:100DE000FFF7C0FF002000F0CFF9002861D100F02C
:100DF000B4F900285FD1032000F078F900285CD115
:100E00005F238DF8073000248DF808401FE02D483F
:100E100000F058FA012003E02B4800F05DFA0220B0
:100E200005B030BD2146294800F056FA0A20FFF7E8
:100E300099FF0AE023469DF808209DF807102448F2
:100E400000F04AFA0A20FFF78DFF0134E4B2042CC7
:100E500019D801220DF10701202000F037F90028F0
:100E6000E0D10220FFF77EFF012202A9202000F03E
:100E7000E5F80028DED19DF808209DF807309A4259
:100E8000D8D1012300E0002363B11420FFF76AFFEB
:100E9000062202A9292000F0D1F80E4B01221A7077
:100EA0000020BDE70C4800F00DFA0720B8E703204A
:100EB000B6E70420B4E70520B2E70620B0E700BF9C
:100EC00024090020F06400001C6500004865000053
:100ED000746500001C090020B86500002DE9F04190
:100EE00084B000230293ADF80C308DF80730414BED
:100EF0001B78002B76D000252E462F46A846032DC2
:100F000040D8C82401220DF10701272000F096F8EF
:100F1000002869D19DF8073013F0080F06D1012091
:100F2000FFF720FF013CA4B2002CEBD19DF8071085
:100F300011F0080F21D0062202A9292000F07EF826
:100F4000002855D19DF808209DF8093043EA022376
:100F500008FA83F89DF80A209DF80B3043EA022333
:100F600007FA83F79DF80C209DF80D3043EA022321
:100F700006FA83F60135EDB2C1E71F4800F0ACF97F
:100F8000062032E0C8EB481308EB83084346B8F16B
:100F9000000F1BDB43F34F33184A1380C7EB471393
:100FA00007EB83073B46002F14DB43F34F33144A10
:100FB0001380C6EB461306EB83063346002E0DDB8B
:100FC00043F34F330F4A138000200EE008F5FF5320
:100FD0001F33DFE707F5FF531F33E6E706F5FF533F
:100FE0001F33EDE7012000E0052004B0BDE8F081EB
:100FF0000220FAE71C090020D86500002209002021
:10100000200900201E09002000B585B08DF80F20B2
:10101000BDF818200192009301230DF10F02D94071
:101020000548007802F038FE10B905B05DF804FB01
:101030004FF0FF30F9E700BF0000002000B583B09B
:101040000B46012A01D940F080000092024633216C
:101050000120FFF7D9FF03B05DF804FB08B5014696
:1010600001220F20FFF7EAFF08BD000010B594B081
:101070009E46BDF8584000238DF80F30631C402B6E
:101080001BD849088DF81020002207E0501C1EF8DC
:1010900002C051326A4402F840CC82B2A242F5D377
:1010A000012201920DF10F02009204AA0648007875
:1010B00002F0F2FD20B914B010BD4FF0FF30FAE796
:1010C0004FF0FF30F7E700BF0000002000B583B00D
:1010D0000B46012A01D940F08000009202463321DC
:1010E0000120FFF7C3FF03B05DF804FB10B582B029
:1010F0000446012201A91F20FFF7A0FF08B102B09A
:1011000010BD9DF8043064F387138DF8043001227C
:1011100001A91F20FFF7DAFFF1E710B582B00446FE
:10112000012201A92020FFF789FF0090009B13B145
:10113000009802B010BD9DF8043043F008038DF80C
:101140000430DBB264F307138DF80430012201A9E7
:101150002020FFF7BBFF0090EAE710B582B00446FD
:10116000012201A92320FFF769FF08B102B010BDD9
:101170009DF8043064F305138DF80430012201A9B1
:101180002320FFF7A3FFF1E710B582B00446012248
:1011900001A92320FFF752FF08B102B010BD9DF84E
:1011A000043064F3C7138DF80430012201A9232011
:1011B000FFF78CFFF1E710B582B00446012201A9C8
:1011C0002420FFF73BFF08B102B010BD9DF80430AA
:1011D00064F3C7138DF80430012201A92420FFF71E
:1011E00075FFF1E700B583B08DF80700064B1B785B
:1011F00013B903B05DF804FB01231A460DF1070192
:10120000002000F0B3FFF4E72509002010B586B0F8
:10121000214B1C7814B1204606B010BD03220F21CB
:10122000022001F015FF0028F5D103220E21022033
:1012300001F00EFF0028EED100F082FE0028EAD176
:1012400001238DF80C3003228DF80D208DF80E301F
:1012500003A900F0A1FE0028DDD14FF4E13304938F
:1012600003238DF8143004238DF815308DF8160003
:101270008DF8170004A900F09BFE0028CBD1009048
:1012800003460246014600F0E7FE0028C3D10124D0
:10129000014B1C70BFE700BF2509002070B110B5DD
:1012A0000446074B1B7823B907E0C0B2FFF79AFF4B
:1012B000013494F900000028F7D110BD704700BF39
:1012C0002509002008B5FFF7E9FF0248FFF7E6FF10
:1012D00008BD00BF006600000FB430B5ABB02E9A59
:1012E00012B1104B1B7823B92BB0BDE8304004B0CD
:1012F00070472FAB0193A02102A803F0EBFE051E5F
:10130000F2DD9F2D00DD9F25002408E004F1A803F5
:101310006B4413F9A00CC0B2FFF764FF0134A5427F
:10132000F4DCE1E72509002082B00023019302E00C
:10133000019B01330193019A044B9A42F8D9044B63
:1013400001221A70002002B0704700BF1FA10700E1
:101350002E090020244B1B78002B3CD010B586B002
:101360000C46002939D002228DF8042000238DF884
:1013700005308DF806308DF809308DF808000A2305
:101380008DF80A3001A9104603F0BCF840BB0220DA
:1013900003F030F830BB0023009302E0009B0133E0
:1013A0000093009A42F20F739A42F7D900218DF808
:1013B000101004AA022003F081F838B9BDF81230E9
:1013C0002380022003F04AF8002007E0022003F007
:1013D00045F8042002E001207047012006B010BD4E
:1013E0000220FBE70320F9E72E09002030B583B087
:1013F0000023ADF80630134B1B78DBB105460C46D5
:10140000D8B1E1B10DF106011720FFF7A3FF90B9A4
:10141000BDF806302B804BB14FF47A12B2FBF3F2D9
:10142000226009490B80094B1A6004E00023236005
:10143000052000E0012003B030BD0120FBE70120C2
:10144000F9E700BF2E0900202C0900202809002000
:1014500030B44FF080439A6A42F4FE429A621A6BAB
:1014600042F4FE421A63394A1523C2F8F03F512371
:10147000C2F8F03F00231361402111639163D363ED
:10148000536147F277711160314951603149916080
:10149000D36031490B610B634FF630608863CB63D7
:1014A0004B612E480860072048602D488860CB605B
:1014B00001F580714FF4007008610B638B63CB639F
:1014C0004B612848086000F5DF2000F2D4704860C6
:1014D0006FF4407088602448C86001F580710B612A
:1014E0000B638B63CB634B614FF0773008604860D0
:1014F0004FF0FF348C60CB6001F580710B610B63A2
:101500008B63CB634B61086048608C60CB6001F5F6
:1015100080710B610B6380258D63CB634B61134D31
:101520000D6048606FF440458D60CB6001F58071BF
:101530000B610B638B63CB634B61086048608C600D
:10154000CB60C2F8F03F30BC704700BF00000141E3
:1015500011117077FF0FFFFC000101417777001137
:10156000FFF00300333370778A02A800777777079C
:1015700038B51B4B5A681B4B9A422DD0184B5A68F2
:10158000194B9A4226D0194D154B5B6803F47F0323
:10159000B3F5501F22D0154C154803F055F82946D5
:1015A000144803F051F82146134803F04DF84FF466
:1015B000164300221149124803F046F8114B1968EE
:1015C000114803F041F8114803F03EF8104803F0C9
:1015D0003BF838BD0F4DD7E70F4DD5E70F4CDBE794
:1015E00000F00040A0443447A14434474C6600005A
:1015F0006066000094660000A4660000B866000003
:10160000C066000010000020E466000004670000CF
:101610002867000028660000046600005466000089
:1016200008B5FFF715FF00F011F803F005F8FFF714
:101630009FFF00F0D7F900F0AFFA00F04BFA00F08E
:1016400003FA00F0FBF8002008BD000030B585B0BB
:1016500002258DF80C5000248DF80D408DF80E40B9
:101660001D4A6B4607CA03C31A700121284601F0C0
:1016700091FB0121084601F08DFB0121204601F07C
:1016800089FB0121032001F085FB03A801F022FB67
:101690006946012001F0B0FB04238DF80C308DF871
:1016A0000D408DF80E4003A801F014FB204601F018
:1016B00023FC22460F21284601F010FC2146284633
:1016C00001F068FB2146204601F064FB214603201F
:1016D00001F060FB05B030BD9468000008B5154B03
:1016E0001B681BB1134A1368013B1360FFF720FA14
:1016F000114B1B7883B1114A138801339BB21380BD
:10170000B3F57A7F08D3134600221A800C4A138857
:101710009BB201339BB213800A4A136801331360F2
:101720000F2B00D808BD134600221A60FFF7FAFA03
:10173000F8E700BF38090020E40800203409002041
:10174000E608002030090020034B1860024B1B689C
:10175000002BFBD1704700BF3809002008B50122DB
:1017600001F016FD08BD08B5002201F011FD08BD0D
:10177000F8B506460D46174600240EE029463046C9
:10178000FFF7ECFF6420FFF7DFFF29463046FFF745
:10179000EAFF6420FFF7D8FF0134BC42EED3F8BD66
:1017A00008B500220421012001F052FC0022092189
:1017B000012001F04DFC00220721052001F048FC2A
:1017C00000220521012001F043FC00220A21012012
:1017D00001F03EFC00220B21012001F039FC002227
:1017E0000C21012001F034FC00220D21012001F028
:1017F0002FFC00220E21012001F02AFC00220F21E3
:10180000012001F025FC01220621104601F020FCF8
:1018100001220721104601F01BFC012208210020B3
:1018200001F016FC01220921002001F011FC002228
:101830000C21104601F00CFC08BD000038B52E4B01
:101840001B682E4AA2FB03239B09013BB3F1807F57
:101850000AD24FF0E0225361294BF02183F8231084
:101860000023936107231361FFF79AFFFFF7CEFC74
:10187000002837D004210120FFF770FF2148FFF72F
:1018800021FD2148FFF71EFD204C2046FFF71AFDE1
:101890001F48FFF717FD1F48FFF714FD2046FFF70D
:1018A00011FD1D48FFF70EFDFEF76AFEFEF7AEFEC6
:1018B0000146E8B94FF47A70FFF746FF0024174855
:1018C000FFF700FD651C21461548FFF705FD15488B
:1018D000FFF7F8FCFEF738FF4FF4FA60FFF734FF2C
:1018E0002C46ECE7052204210120FFF741FFC5E764
:1018F0000D48FFF7F1FCDDE710000020D34D62102A
:1019000000ED00E05C67000064670000886700008D
:10191000AC670000D0670000F46700006061000061
:1019200040680000506800001C68000000B589B0E5
:10193000002006908DF81C0002238DF81B300390C8
:1019400004908DF8140001238DF8143002F04CFC43
:1019500010B109B05DF804FB06A902F061FC002893
:10196000F7D103A902F074FC0028F2D103230093FD
:101970000023034A1946184602F0AEFCE9E700BF0F
:10198000F119000000B589B0002306938DF81C30D2
:1019900002208DF81B00039304938DF8143001236B
:1019A0008DF80C308DF8143002F01EFC10B109B027
:1019B0005DF804FB06A9022002F032FC0028F6D1F3
:1019C00003A9022002F044FC0028F0D10323009375
:1019D0000023034A1946022002F07EFCE7E700BF1D
:1019E000F319000008B5FFF7A1FFFFF7CBFF08BD13
:1019F0007047704700B587B00023029303930493A8
:101A000005930F4B049301238DF814303223ADF866
:101A10001630022001F058FE10B107B05DF804FB4B
:101A200002A9022001F068FE0028F6D103230093EA
:101A30000023044A1946022001F0AAFEEDE700BF88
:101A4000A0860100511A000008B5FFF7D3FF08BDBA
:101A50007047000000B589B01C4B93E80300069066
:101A6000ADF81C10002003900490ADF81400012381
:101A70008DF80F308DF81030ADF812304FF47A73C6
:101A8000ADF8143000F028FE10B109B05DF804FB89
:101A900006A900F041FE0028F7D103A900F06EFE70
:101AA0000028F2D100900346094A012100F0DCFE33
:101AB0000028EAD10021084600F04EFF0028E4D1BA
:101AC0000021084600F059FFDFE700BFA0680000D2
:101AD000DD1A000008B5FFF7BDFF08BD7047000024
:101AE00000B587B0134B53F8042BADF81420120C3B
:101AF0008DF8162003AA93E8030082E80300022071
:101B000000F01EFA10B107B05DF804FB05A9022031
:101B100000F042FA0028F6D103A9022000F048FAAA
:101B20000028F0D100230093034A0121022000F095
:101B300093FAE8E7A8680000A71B000000B587B08B
:101B4000134B53F8042BADF81420120C8DF816200B
:101B500003AA93E8030082E80300012000F0F0F9F3
:101B600010B107B05DF804FB05A9012000F014FADC
:101B70000028F6D103A9012000F01AFA0028F0D1BC
:101B800000230093034A0121084600F065FAE8E7C4
:101B9000A8680000A51B000008B5FFF7A1FFFFF72C
:101BA000CDFF08BD70477047002807DB00F01F021B
:101BB000400901239340024A42F82030704700BF99
:101BC00000E100E000280CDB00F01F0240090123C7
:101BD00093402030034A42F82030BFF34F8FBFF3C9
:101BE0006F8F704700E100E0002808DB0901C9B2EF
:101BF00000F1604000F5614080F80013704700F08C
:101C00000F000901C9B2014B1954704714ED00E0EF
:101C10000C284CD800B5072828D94FF0804EDEF8A4
:101C2000282100F0070308334FF0010C0CFA03FCE5
:101C300022EA0C0201FA03F31343CEF828310728F5
:101C400026D94FF0804CDCF8303100F00700083026
:101C50000122824023EA020301FA00F00343CCF898
:101C6000303139BB0020154B186024E04FF0804E16
:101C7000DEF82C3000F108024FF0010C0CFA02FCE7
:101C800023EA0C0301FA02F21343CEF82C30D6E714
:101C90004FF0804CDCF8343008300122824023EAD7
:101CA000020301FA00F00343CCF83430D9E76FF0B7
:101CB0000100704700205DF804FB00BF780B002096
:101CC0000C2808D8DFE800F0220A0C0E10121416B7
:101CD000181A1C1E20006FF010007047402070473B
:101CE000412070474220704743207047442070478E
:101CF0006C2070476D2070476E2070476F207047D2
:101D00007020704771207047722070473F207047E5
:101D10000C284FD8052947D8DFE801F003202830E8
:101D2000373E264B93FBF2F32548036000204FF02B
:101D30008043D3F8A83023F0E063002937D10906A7
:101D40000B434FF08041C1F8A830D1F8A83023F4FC
:101D50007F0343EA0242C1F8A82070474FF40043D2
:101D600093FBF2F3164803600020E0E7154B1B6875
:101D7000B3FBF2F3124803600020D8E7124B93FB49
:101D8000F2F30F4803600020D1E7104B93FBF2F30E
:101D90000B4803600020CAE70A4B1B68B3FBF2F351
:101DA000074803600020C2E76FF00500BFE702317B
:101DB0000906C5E76FF00100704700BF20A10700CA
:101DC000780B0020100000200024F40000093D00E2
:101DD00000F5800080300002704708B5FFF718FF5B
:101DE00008BD000070B582B0002300930C2861D8B4
:101DF0000446FFF7EDFF83680193019B03F00603A0
:101E0000062B21D0019B13F0040F55D1019B13F039
:101E1000020F03D1019B13F0100F3CD03C4B2C223E
:101E200002FB043399691A6A914262D0036823F075
:101E3000FF0337492C2505FB04110D69561C0E6262
:101E4000AA5C1343036026E0009B43F00403009365
:101E5000436913F0100F03D0009B43F00803009375
:101E6000436913F0080F03D0009B43F01003009365
:101E7000436913F0040F03D0009B43F02003009349
:101E8000436913F0020F03D0009B43F0400300931B
:101E90000368002343601E4B2C2202FB04335B6863
:101EA00043B1009A32B10098194A2C2101FB042257
:101EB0009168984702B070BD0568154B2C2202FB53
:101EC000043359695A6A561C5E628D54DA695B6A3A
:101ED0009A42E0D1436823F0010343600C4B2C226B
:101EE00002FB043300225A73009B43F00203009369
:101EF000D1E7074B2C2202FB043300221A734368FC
:101F000023F002034360009B43F001030093C2E708
:101F10003C09002010B5002400E001340C2C0BDC3F
:101F2000064B2C2202FB043393F82830002BF4D00C
:101F3000E0B2FFF757FFF0E710BD00BF3C090020FB
:101F400038B50C2822D804460121FFF746FF054684
:101F5000D0B92046FFF73CFF03462C220D4802FB78
:101F6000040000E01A685A6912F0010FFAD15A69A8
:101F700012F0200FFBD000215960D96019615A6915
:101F80009B682C2203F0B4F8284638BD6FF0010599
:101F9000FAE700BF3C0900200C2805D808B58A786C
:101FA0004978FFF7B5FE08BD6FF0010070470000EB
:101FB0000C2843D810B50C46FFF70AFF2279032AF4
:101FC0003FD8C36823F003031343C3606379042B32
:101FD0003AD80AD0C36843F00803C360C36823F04B
:101FE0001003627943EA0213C360A279012A2ED852
:101FF000C36823F0040343EA8203C360E2794368C1
:1020000023F0040343EA82034360124B1B682268F7
:102010001201B3FBF2F102FB11331B02B3FBF2F32B
:10202000026A6FF30F0289B20A430262426A22F027
:10203000FF02DBB213434362002010BD6FF00100CA
:1020400070476FF00500F8E76FF00500F5E76FF0F7
:102050000500F2E7780B00200C287ED82DE9F0412E
:1020600004460E4690461F46FFF72AFE0546012EFF
:102070001BD073B2002B4DD0F31EDBB2012B49D81D
:1020800001233A46364901F071FF30B9354B2C2215
:1020900002FB0433C3F804809F60324B2C2202FB06
:1020A0000433012283F8282020E02E4B2C2202FB4F
:1020B000043393F8283003BB2A4B2C2202FB043351
:1020C000C3F804809F60002D08DB05F01F016B0939
:1020D00001228A406033244941F82320069928468A
:1020E000FFF782FD2846FFF75FFD00202C2303FB4E
:1020F00004F41C4B1E55BDE8F08100231A46194616
:1021000001F034FF174B2C2202FB0433002283F82A
:102110002820D1E700231A461946284601F026FF59
:10212000104B2C2202FB0433002283F82820954216
:1021300008DB05F01F016B0901228A4060330A4960
:1021400041F823202846FFF73DFD064B2C2202FBD9
:102150000433002058609860C8E76FF001007047B2
:10216000151F00003C09002000E100E00C2856D8B3
:102170002DE9F84304460F4690469946FFF728FE9E
:102180002A4B2C2202FB04331B7B012B4AD0274B0A
:10219000154604FB05F55E19012232733761C6F856
:1021A0001880002232625B5D4BB3B9F1000F26D17B
:1021B000436913F0200F0BD0036823F0FF031B4A81
:1021C0002C2101FB0422012111623A7813430360A0
:1021D000436843F00203436000201EE0036823F0DD
:1021E000FF03124A2C2505FB042215694E1C1662BA
:1021F0006A5C13430360436913F0200FFBD00B4B61
:102200002C2202FB04339A69196A8A42E6D8074BEA
:102210002C2202FB043300201873BDE8F8836FF012
:10222000010070476FF00200F7E700BF3C09002093
:102230002DE9F8430C2879D8054688461746994673
:10224000FFF7C6FD04463C4B2C2202FB05335B7BAB
:10225000022B6ED0384B104605FB00F01E180222F0
:102260007273C6F81480F761002272621F5C17B1A6
:10227000B9F1000F53D02846FFF722FD0646002F84
:1022800033D0FFF79FFC30E0013B626912F0010F91
:1022900015D1002BF8D1284B2C2202FB053300224C
:1022A0005A736FF00304244B2C2202FB05F55A19D4
:1022B000002151735B5D73BB2046BDE8F883002BA2
:1022C000E9D0606963699B08626943EAD00343EA25
:1022D000520313F0010F13D12068174B2C2202FB7D
:1022E00005335A694F1C5F625054134B2C2202FB7A
:1022F0000533DA69596A8A420BD942F21073C4E78E
:102300000D4B2C2202FB053300225A736FF0080498
:10231000C9E70024C7E73046FFF746FCCCE723684F
:10232000636843F0010363600024C5E76FF00104B4
:10233000C2E76FF00204BFE73C0900200C2813D865
:1023400010B50446FFF744FDC36843F04003C36083
:10235000C36823F04003C360054B2C2202FB043307
:1023600000201873587310BD6FF00100704700BF54
:102370003C09002008B50020FFF734FD08BD08B572
:102380000120FFF72FFD08BD08B50220FFF72AFD49
:1023900008BD08B50320FFF725FD08BD08B50420DA
:1023A000FFF720FD08BD08B50520FFF71BFD08BDA0
:1023B00008B50620FFF716FD08BD08B50720FFF792
:1023C00011FD08BD08B50820FFF70CFD08BD08B5D4
:1023D0000920FFF707FD08BD08B50A20FFF702FD39
:1023E00008BD08B50B20FFF7FDFC08BD08B50C20A3
:1023F000FFF7F8FC08BD0000002807DB00F01F0213
:10240000400901239340024A42F82030704700BF40
:1024100000E100E000280CDB00F01F02400901236E
:1024200093402030034A42F82030BFF34F8FBFF370
:102430006F8F704700E100E0002808DB0901C9B296
:1024400000F1604000F5614080F80013704700F033
:102450000F000901C9B2014B1954704714ED00E097
:10246000092813D84FF08042936A10304FF0010CC6
:102470000CFA00FC23EA0C0381400B439362136BBC
:1024800023EA0C0319431163002070476FF0010029
:102490007047092806D8DFE800F01A080A0C0E1069
:1024A000121416186FF0100070471020704711209A
:1024B0007047122070471320704714207047152072
:1024C00070471620704717207047182070470F205C
:1024D0007047032809D8DFE800F00206040A00204C
:1024E0007047022070470320704704207047012086
:1024F00070470246806910F0040000D00220936902
:1025000013F0020F01D040F00400936913F0010FA3
:1025100001D040F00800704710B40C6824F070043B
:1025200044F040040C60052A3AD8DFE802F00A0AB9
:1025300007050309062204E0052202E0042200E068
:1025400007224FF08041D1F8981004281ED96FF06F
:10255000E064214004281CD91824A2400A434FF00B
:102560008041C1F89820D1F89820042813D96FF43D
:102570007F010A40042811D910218B4013434FF0EA
:102580008042C2F89830002010BC70476FF4E064BD
:10259000DFE70824E1E76FF0FF01EAE70021ECE75D
:1025A0006FF00500F0E7032A03D8DFE802F0060623
:1025B000060600226FF0050000E000200B6823F003
:1025C000700343EA02130B60704700F18070C03063
:1025D0008001704708B5FFF743FF08BD38B50546D1
:1025E000FFF7F3FF0446FFF784FF034610F00300F4
:1025F00017D02E4A02EB0512127B032A03D8DFE81C
:1026000002F00F0D0F0400200BE0284A02EB051228
:10261000527B12F0020F11D1002002E0082000E0EE
:10262000012013F0040F1BD0204A02EB0512127B8D
:10263000032A15D8DFE802F0041104070220F0E7AE
:1026400040F001000DE0194A02EB0512527B12F036
:10265000020F05D040F0040003E040F0100000E05D
:1026600078B1A26942F00402A261A26942F00202BA
:10267000A261A26942F00402A261A26942F00202D0
:10268000A26113F0080F05D040F02000A36943F0C9
:102690000103A361054B03EB05135B682BB120B16C
:1026A000024A02EB05129168984738BD7C0B002066
:1026B00010B5002400E00134092C09DC054B03EBC4
:1026C00004139B7B002BF6D0E0B2FFF787FFF2E705
:1026D00010BD00BF7C0B002038B5092816D8044671
:1026E0000121FFF777FF054608B1284638BD20468F
:1026F000FFF76BFF2101074A02EB0414002353503C
:102700006360A360E36003604360EEE76FF0010580
:10271000EBE700BF7C0B0020092829D870B50546DF
:102720000C468B88B3F5806F25D2FFF74EFF064627
:102730002378012B0CD0022B10D0B3B9A378627888
:1027400001462846FFF7E8FE0020A388B36070BD6D
:10275000036843F0700303600020F6E762780146E7
:102760002846FFF720FF0020EFE76FF00500ECE7B9
:102770006FF0010070476FF00500E8E7092868D89E
:10278000F8B506460D460F78032F65D8FFF71DFFF5
:1027900004463846FFF79DFE236823F00303C0B2CA
:1027A000184320606A78236823F0800343EAC21349
:1027B0002360EB7873B12B78032B50D8DFE803F05C
:1027C000022F0222E36943F00403E361E36943F06B
:1027D0000203E3612A78234B03EB06131A732B7968
:1027E0001BB1E36943F00103E3612B78032B26D08F
:1027F000EB88E3602B892361636843F00203636025
:102800000020F8BDE36943F00403E361E36943F0AA
:102810000203E361236843F400632360DAE7E369BA
:1028200043F00403E361E36943F00203E3612368D7
:1028300023F00C03AA7843EA82032360CAE7EB88FB
:10284000E3602B892361074B03EB061306225A73BF
:10285000D2E76FF0010070476FF00500D1E76FF02D
:102860000500CEE77C0B002009286BD82DE9F0414C
:1028700004460E4690461F46FFF70BFE0546012E06
:1028800020D0022E4CD000231A46194601F06EFBD0
:102890002E4B03EB041300229A73954208DB05F0DC
:1028A0001F016B0901228A406033294941F8232026
:1028B0002846FFF7AFFD254B03EB0413002098607B
:1028C00058601DE0214B03EB04139B7BEBB91F4BBE
:1028D00003EB0413C3F804809F60002D08DB05F0B0
:1028E0001F016B0901228A406033194941F82320F6
:1028F00006992846FFF7A0FD2846FFF77DFD00203A
:102900002401124B1E55BDE8F08100231A461946DA
:1029100001F02CFB0D4B03EB041300229A73D6E756
:1029200001233A460B4901F021FB28B9074B03EB81
:102930000413C3F804809F60044B03EB04130122CB
:102940009A73DDE76FF00100704700BF7C0B002039
:1029500000E100E0B126000009280BD810B50C46B4
:10296000FFF733FE036823F4006343EAC4230360E4
:10297000002010BD6FF00100704709280BD810B57A
:102980000C46FFF722FE036823F4805343EA043326
:102990000360002010BD6FF00100704708B50020F3
:1029A000FFF71CFE08BD08B50120FFF717FE08BDA4
:1029B00008B50220FFF712FE08BD08B50320FFF797
:1029C0000DFE08BD08B50420FFF708FE08BD08B5D8
:1029D0000520FFF703FE08BD08B50620FFF7FEFD42
:1029E00008BD08B50720FFF7F9FD08BD08B50820A8
:1029F000FFF7F4FD08BD08B50920FFF7EFFD08BD9E
:102A0000104B98420DD9104B984213D90F4B984256
:102A100012D90F4B984211D90E4B984210D804216D
:102A200000E000214FF08242136823F00F030B43B4
:102A3000136070470121F5E70221F3E70321F1E775
:102A40000521EFE7408AF7018014EF0300E1F50567
:102A5000406BED0780F5E40904285FD8DFE800F05B
:102A60002533414F03004FF0070C00204FF0804307
:102A7000596C21F0706141EA02625A64596CC1F3E9
:102A80000241294A1268CA4028490A604FF082412F
:102A90000A6822F00F0242F005020A605A6C22F026
:102AA000070242EA0C025A6470474FF080410B6CF7
:102AB00043F002030B641E4B13411B490B604FF0A4
:102AC000060C0020D2E74FF080410B6C43F0080366
:102AD0000B64184B134114490B604FF0020C00209B
:102AE000C4E74FF080410B6C43F020030B64124BA2
:102AF00013410D490B604FF0000C6046B6E74FF0F4
:102B000080410B6C43F080030B644FF4004313418E
:102B100005490B604FF0010C0020A7E74FF0000CB7
:102B20006FF00500A2E700BF100000200C0000209D
:102B300000093D000024F40020A107000F292ED831
:102B40004FF08042136D23F00F0301F00F010B4390
:102B5000136507281CD8DFE800F015121F07181BA3
:102B60001B040421002001E0012100204FF08042DD
:102B7000136D23F0E00343EA411313657047052109
:102B80000020F3E706210020F0E707210020EDE711
:102B900000216FF00500E9E700210846E6E76FF045
:102BA000050070474FF0804CDCF8443023F440734C
:102BB00043EA0123CCF84430032925D8DFE801F0AB
:102BC00002141216012398B1012820D14FF0804041
:102BD000016C41F0020101640E49B1FBF3F3136093
:102BE000002070470423EEE70223ECE70823EAE71E
:102BF0004FF08040016C41F0080101640649B1FBCF
:102C0000F3F31360002070476FF0050070476FF01A
:102C10000500704700093D000024F40082B00C4B11
:102C20001B680C4AA2FB0312920C0B498B4200D882
:102C3000012200FB02F20023019303E000BF019B8D
:102C400001330193019B9342F8D302B0704700BF58
:102C50001000002083DE1B433F420F0010B50346E7
:102C600001280FD002281AD030BB4FF08042906C60
:102C700010F0200021D01146926C42F020028A64AC
:102C800001201AE04FF08042906C10F0020014D046
:102C90001146926C42F002028A6402200DE04FF06D
:102CA0008042906C10F4007007D01146926C42F490
:102CB00000728A64042000E0002003EB4302044910
:102CC00051F822401CB101EB82035968A04710BDA6
:102CD0001C0C002038B50378042B43D0002B46D0C1
:102CE00000214FF08042536C23F4805343EA0133B8
:102CF0005364827841780078FFF7AEFE054678BBD2
:102D00001C4B1C68E30E6101091B63F100039B006F
:102D100043EA91738900091943F100034FEAC30C98
:102D2000154A0023C8004CEA517101F053FE134BC1
:102D3000A3FB00308008124B1860124BA3FB042346
:102D4000DB0C114A1360114B9C4202D8134601223E
:102D50001A60C82001F030FE064B1868FFF750FEDD
:102D6000284638BD0A4B1A68024B1A60C1E7012198
:102D7000B7E700BF1000002040420F00ABAAAAAA8C
:102D800008000020819F5E16040000207F8D5B00FC
:102D9000400C002003282BD8DFE800F0020C16209E
:102DA0004FF08042136C23F0020343EA41031364A3
:102DB000002070474FF08042136C23F0080343EA71
:102DC000C1031364002070474FF08042136C23F05E
:102DD000200343EA41131364002070474FF0804200
:102DE000136C23F0800343EAC1131364002070477F
:102DF0006FF005007047000030B583B000230193E9
:102E000048B94FF08042136E23F480031366002507
:102E1000284603B030BD0C4605464FF08042136E85
:102E200043F4800313660220FFF7F8FE2378012B9A
:102E300000D000254FF08042536C23F4805343EAC6
:102E40000533536401AA61782078FFF7ABFE05468D
:102E50000028DDD1A37803F00F0343F48003E27868
:102E600043EA02236279120402F47022134343F40A
:102E70000013A279920602F040621343E27912062F
:102E800002F0407213434FF0804213664FF4FA7021
:102E9000FFF7C4FE0F4B1B684FF4FA7202FB03F3FB
:102EA0004FF08042126E002A04DB0BB1013BF7E7C2
:102EB0006FF00305002DABD16279A378013302FBDB
:102EC0000332019BB3FBF2F3E27802FB0333024AC5
:102ED00013609DE704000020400C002010B514464C
:102EE000FFF72CFE38B94FF080410B6D23F0100333
:102EF00043EA04130B6510BD04280ED84FF080423E
:102F0000536C23F4E02343EA00435364044B1B68EF
:102F1000C340044A1360002070476FF005007047FB
:102F2000100000200C00002008B50020FFF796FEDE
:102F300008BD08B50120FFF791FE08BD08B50220C5
:102F4000FFF78CFE08BD062801D8002070476FF0FF
:102F50000500704710B584461046114BD3F8F04F6A
:102F600024F0FF0444F01504C3F8F04FD3F8F04FF9
:102F700024F0FF0444F05104C3F8F04F4A62D3F840
:102F8000F02F22F0FF02C3F8F02F064B03EB0C13D7
:102F90005A6822B1034B03EB0C139968904710BD9C
:102FA00000000141440C002008B5044B5A6A02B9E4
:102FB00008BD19460020FFF7CDFFF9E700000141E9
:102FC00008B5044B5A6A02B908BD19460120FFF73B
:102FD000C1FFF9E70001014108B5044B5A6A02B983
:102FE00008BD19460220FFF7B5FFF9E700020141CD
:102FF00008B5044B5A6A02B908BD19460320FFF709
:10300000A9FFF9E70003014108B5044B5A6A02B968
:1030100008BD19460420FFF79DFFF9E700040141B0
:1030200008B5044B5A6A02B908BD19460520FFF7D6
:1030300091FFF9E70005014108B5044B5A6A02B94E
:1030400008BD19460620FFF785FFF9E70006014194
:1030500070B504460D461646FFF775FF002841D1AE
:10306000014604F5820303F580731B021F48D0F864
:10307000F02F22F0FF0242F01502C0F8F02FD0F836
:10308000F02F22F0FF0242F05102C0F8F02F072D7E
:1030900017D81A68AD000F20A84022EA0002042EBB
:1030A0000DD846F00806AE4032431A600F4AD2F8F7
:1030B000F03F23F0FF03C2F8F03F084670BD0F2633
:1030C000F1E75A68083DAD000F20A84022EA00024F
:1030D000042E05D846F00806AE4032435A60E5E7B4
:1030E0000F26F9E76FF00101E7E700BF000001419B
:1030F00070B504460E461546FFF725FF002842D15D
:1031000004F5820303F580731B022049D1F8F02FE8
:1031100022F0FF0242F01502C1F8F02FD1F8F02F93
:1031200022F0FF0242F05102C1F8F02F012D21D010
:1031300010D83DB99A6876000321B14022EA010215
:103140000A439A60114AD2F8F03F23F0FF03C2F815
:10315000F03F70BDAA1ED2B2012AF3D89A68760059
:103160000321B14022EA010205F00105B5402A43DE
:103170009A60E7E79A6876000321B14022EA0102EB
:103180000A439A60DEE76FF00100E2E700000141C8
:1031900070B504460E461546FFF7D5FEA8B904F5EE
:1031A000820303F580731B023DB99A6B0121B14084
:1031B00022EA01020A439A6370BDDA6B0121B14031
:1031C00022EA01020A43DA63F6E76FF00100F3E74F
:1031D00008B5FFF7E9FE08BD08B5FFF7F1FE08BD29
:1031E00008B5FFF7F9FE08BD08B5FFF701FF08BDF8
:1031F00008B5FFF709FF08BD08B5FFF711FF08BDC7
:1032000008B5FFF719FF08BD002807DB00F01F0213
:10321000400901239340024A42F82030704700BF22
:1032200000E100E000280CDB00F01F024009012350
:1032300093402030034A42F82030BFF34F8FBFF352
:103240006F8F704700E100E0002808DB0901C9B278
:1032500000F1604000F5614080F80013704700F015
:103260000F000901C9B2014B1954704714ED00E079
:10327000032813D84FF08042D36A04304FF0010C7A
:103280000CFA00FC23EA0C0381400B43D362536B1E
:1032900023EA0C0319435163002070476FF00100CB
:1032A0007047032803D8DFE800F00B0507096FF02B
:1032B000100070473D2070473E20704764207047E3
:1032C0003C20704700F58000A0300002704708B530
:1032D000FFF7CEFF08BD0000064B426912F0800FD9
:1032E00002D11BB1013BF8E7806870474FF0FF3017
:1032F000704700BF80841E00436943F002034361AE
:10330000064B426912F0800F02D10BB1013BF8E786
:10331000436923F002034361704700BF80841E00AD
:10332000094B1B680D2B0ED810B4090241EA02624A
:10333000C0B205490B685C1C0C600243034941F8AC
:10334000232010BC70477047B40C0020B80C00203C
:1033500070B582B000230093032800F28F810446E9
:10336000FFF7B0FF054683680193019B472B3CD8CC
:10337000152B38D3153B322B00F25D81DFE813F0BB
:10338000DC005B0173005B015B015B015B015B01C6
:103390005B015B015B01FE005B0155005B015B01B2
:1033A0005B015B015B015B015B015B015B015B013D
:1033B0005B015B015B015B015B015B015B015B012D
:1033C0005B015B015B015B015B015B015B015B011D
:1033D0005B015B015B015B015B015B015B011C014C
:1033E0001C01A700A700002326E1972B00F24881CB
:1033F000852B18D3853B122B00F21B81DFE813F0DD
:103400008100FC004D001901190119011901190170
:1034100019011901190119011901190119011901DC
:10342000AD0019016700002306E19B4B2C2202FB33
:1034300004331A6A9B699A42C0F02481964B2C226D
:1034400002FB04335B7B002B00F0F680009B43F013
:1034500001030093904A2C2303FB042200231362F0
:1034600093615373E8E08C4B2C2202FB04331B7BEB
:10347000002B40F0CE80884B02FB04331A6A9B6914
:103480009A42C0F0C680436943F002034361436936
:1034900023F0080343610023CEE07F4B2C2202FB84
:1034A00004331B7B002B40F0B4807B4B02FB0433C6
:1034B0001A6A9B699A42C0F0AC806B6943F00203C0
:1034C0006B616B6923F008036B610023B4E0724BFE
:1034D0002C2202FB04331B7B002B40F09A806E4BA6
:1034E00002FB04331A6A9B699A42C0F092806B69AE
:1034F00043F002036B616B6923F008036B610023E7
:103500009AE0654B2C2202FB04331B7B002B40F01E
:10351000BB80614B02FB0433012283F828205A6AE6
:103520000132DB699A4201D0002385E06B6923F008
:1035300008036B6100237FE0574B2C2202FB04330E
:103540001B7B012B01D0002376E0534B02FB04339D
:10355000012283F8282000236EE04F4B2C2202FB2F
:1035600004331B7B012B01D0002365E04A4A2C2346
:1035700003FB0422012382F828305DE0464B2C2215
:1035800002FB04335A6ADB699A427FD3424B2C22F6
:1035900002FB043393F82830002B4DD0009B43F0FE
:1035A000020300933C4A2C2303FB042200235362B2
:1035B000937382F828303FE0374B2C2202FB043310
:1035C0001B7B002B64D1344B02FB04335A6A511C21
:1035D000DB69013B994203D09A4207D001232BE0DB
:1035E000436923F008034361012325E0436943F065
:1035F0000203436101231FE0274B2C2202FB04330B
:103600001B7B002B46D16B6943F001036B610023E8
:1036100012E02B6823F0FF031F4A2C2101FB042238
:103620001069116A4E1C1662425C13432B60002322
:1036300002E0002300E000237BB1174B2C2202FBA9
:10364000043393F8283043B12868134B02FB04334A
:1036500059695A6A561C5E6288540F4B2C2202FB31
:1036600004335B6843B1009A32B100980A4A2C21B6
:1036700001FB0422916898477923AB6002B070BDCA
:103680000023D9E70023D7E70023D5E70023D3E7BA
:103690000123D1E70023CFE7F80C002010B5002468
:1036A00000E00134032C0BDC064B2C2202FB04331C
:1036B00093F82930002BF4D0E0B2FFF749FEF0E791
:1036C00010BD00BFF80C002038B503280FD8044601
:1036D0000121FFF7FCFD054608B1284638BD2C2224
:1036E0000021044802FB040001F002FDF5E76FF041
:1036F0000105F2E7F80C0020032841D838B505464B
:103700000C46FFF7DFFD034621781F4A2C2000FB03
:1037100005221173DA6822F0FE02617842EA410262
:10372000DA60DA6822F00102A1780A43DA60A1685F
:10373000E9B1164A1268B2FBF1F2C2F34F02901ED1
:1037400080B2033A92B299696FF30F010143996114
:10375000D9696FF30F010A43DA61227B52B11A6A09
:103760006FF30E02E1890A431A62002038BD2089F6
:103770006289E8E71A6A6FF30E021A620020F5E721
:103780006FF00100704700BFF80C00200C00002013
:1037900003287ED82DE9F04104460E4690461F4688
:1037A000FFF77FFD0546012E1BD073B2002B4DD0D5
:1037B000F31EDBB2012B49D801233A46364900F00B
:1037C000D5FB30B9354B2C2202FB0433C3F80480FF
:1037D0009F60324B2C2202FB0433012283F8292004
:1037E00020E02E4B2C2202FB043393F8293003BB3C
:1037F0002A4B2C2202FB0433C3F804809F60002D67
:1038000008DB05F01F016B0901228A40603324495F
:1038100041F8232006992846FFF716FD2846FFF7B2
:10382000F3FC00202C2303FB04F41C4B1E55BDE8C5
:10383000F08100231A46194600F098FB174B2C2202
:1038400002FB0433002283F82920D1E700231A4623
:103850001946284600F08AFB104B2C2202FB043349
:10386000002283F82920954208DB05F01F016B092F
:1038700001228A4060330A4941F823202846FFF795
:10388000D1FC064B2C2202FB0433002098605860C8
:10389000C8E76FF0010070479D360000F80C00206B
:1038A00000E100E02DE9F0479DF820A0032800F298
:1038B000C18005460F4691469846FFF703FD044632
:1038C000614B2C2202FB05335E7B002E40F0B5805D
:1038D0005D4A2C2005FB00F001215973C3F81090BC
:1038E000C3F8188000211962135C1BB1BAF1000FF4
:1038F00000D10126636923F0100343EA06136361D4
:10390000636943F0080363617923A3604E4B2C2263
:1039100002FB05331B7B4BB9236823F0FF0343EA0B
:1039200047032360636943F001036361002E40F0A5
:10393000878037464FF0000851E0172866D02228CC
:1039400023D1414B2C2202FB05331A6A9B699A4210
:1039500026D33E46012723E03B4B2C2202FB0533B6
:103960001A6A9B699A4255D3374B2C2202FB0533C6
:103970001B7B2BB13B467922A2603E461F460FE0DF
:103980002046FFF7B9FC0123F5E72F4B2C2202FB61
:1039900005331B7B9BB37923A3603E466FF0080879
:1039A000B8F1000F3DD1D6B1274B2C2202FB0533D5
:1039B0001A6A9B69013B9A422ED0236823F0FF03C9
:1039C000214A2C2101FB05221069116A01F1010C29
:1039D000C2F820C0425C134323607923A36007BB75
:1039E0002046FFF779FC46280DD0A6D94728B3D04A
:1039F000CBD387280CD09728C7D10126D0E7204603
:103A0000FFF77AFCC7E73E460127C9E70126C7E76B
:103A10000126C5E70126C3E7636923F00803636154
:103A2000CBE7094B2C2202FB053300225A73404698
:103A3000BDE8F0876FF00108F9E76FF00208F6E7DC
:103A40004FF00008F3E700BFF80C00202DE9F04725
:103A50009DF820A0032800F2138104460F469146EA
:103A60009846FFF72FFC05468A4B2C2202FB0433B5
:103A70009E7B002E40F00781864A2C2004FB00F03C
:103A800001219973C3F81490C3F81C800021596276
:103A9000135C1BB1BAF1000F00D101266B6923F052
:103AA000100343EA06136B616B6943F008036B6113
:103AB0007923AB60774B2C2202FB04331B7B5BB971
:103AC0002B6823F0FF0343EA470343F001032B6015
:103AD0006B6943F001036B61002E40F0D7806D4BA2
:103AE0002C2202FB04334FF0000883F8288037466D
:103AF00091E0852810D0952858D1664B2C2202FBE6
:103B000004331B7B012B5DD1624B02FB043301228A
:103B100083F828203E4655E05E4B2C2202FB0433FE
:103B20001B7B002B4ED15B4B02FB0433012283F83D
:103B300028203E4646E0574B2C2202FB04335A6AAB
:103B4000DB699A423ED3534B2C2202FB043393F899
:103B50002830002B36D04F4A2C2101FB04220021B3
:103B6000516282F828103E461F462BE0494B2C221A
:103B700002FB04335A6ADB699A4270D3454B2C220C
:103B800002FB043393F82890B9F1000F69D0414B40
:103B900002FB04331B7B2BB1B9467923AB603E4655
:103BA0004F460FE02846FFF7A7FBF6E7394B2C22DC
:103BB00002FB04331B7B002B4AD07923AB603E46CB
:103BC0006FF00808B8F1000F53D1D6B1314B2C2259
:103BD00002FB043393F828309BB12E4B02FB0433D5
:103BE0005A6ADB69013B9A423ED02868294B2C2255
:103BF00002FB043359695A6A02F1010CC3F824C06C
:103C00008854244B2C2202FB04335A6ADB699A4203
:103C100001D27923AB6067BB2846FFF75DFB4528DF
:103C2000A4D03FF666AF202885D0442814D01528AC
:103C3000BCD1184B2C2202FB04331B7B012BC1D1BE
:103C4000144B02FB0433012283F828203E46B9E7D7
:103C50002846FFF751FBB0E73E460127B2E70126B1
:103C6000B0E74F460126ADE76B6923F008036B61AF
:103C7000BBE7084B2C2202FB04330020987306E0BC
:103C80006FF0010003E06FF0020000E00020BDE8EB
:103C9000F08700BFF80C00202DE9F04F83B00192AF
:103CA00000938A4B00221A60032800F20681064620
:103CB0000D46FFF707FB0446854B2C2202FB06331B
:103CC0005B7B002B40F0FC80814B02FB06339B7B2F
:103CD000002B40F0F8807E4B02FB063301225A7322
:103CE000436923F010034361436943F008034361D0
:103CF00079238360036823F0FF0305FA02FA43EA9D
:103D0000450303604369134343610027B846B9463E
:103D10002046FFF7E1FA0546B0F1FF3F1BD05FB345
:103D2000452800F08E80852800F08480442800F02B
:103D3000B2803A460021FFF7F3FA2046FFF7DCFA9B
:103D40007923A360624B2C2202FB063300225A73B4
:103D50006FF00800AEE03A460021FF20FFF7E0FADE
:103D60002046FFF7C9FA5A4B2C2202FB06330022E9
:103D70005A736FF008009DE03A460021FFF7D0FA31
:103D8000472D25D0872D47D1009B99450CD223681C
:103D900023F0FF03019A12F80920134323607923CB
:103DA000A36009F10109B3E7636943F008036361A4
:103DB000236823F0FF034AEA030343F0010323606F
:103DC000636943F0010363617923A36001279FE7DF
:103DD000009B99450CD2236823F0FF03019A12F847
:103DE0000920134323607923A36009F101098FE7B8
:103DF000636943F008036361236823F0FF034AEA21
:103E0000030343F001032360636943F0010363612B
:103E10007923A36001277BE72046FFF76DFA79231A
:103E2000A3602B4B2C2202FB063300225A736FF047
:103E300008003FE03A460021FFF772FA7923A360B9
:103E400066E70D9B984510D22168C9B208F1010BB5
:103E50000C9B03F808103A46FFF762FA0D9B5B458E
:103E600013D07923A360D84652E73A46FE21FFF7E4
:103E700057FA2046FFF740FA7923A360144B2C220F
:103E800002FB06330020587314E0636923F0080333
:103E90006361D8463CE73A460021FFF741FA2046E5
:103EA000FFF72AFA7923A360094B2C2202FB063381
:103EB0000020587303B0BDE8F08F6FF00100F9E700
:103EC0006FF00200F6E76FF00200F3E7B40C002099
:103ED000F80C002008B50020FFF73AFA08BD08B535
:103EE0000120FFF735FA08BD08B50220FFF730FAC8
:103EF00008BD08B50320FFF72BFA08BD38B54FF011
:103F000080439D6D45F00C429A65002400E0013429
:103F1000072C1CDC04EB44029300134AD35C002BF7
:103F2000F5D025FA04F313F0010FF0D004EB4403AD
:103F30009A000D4B13445A68002AE8D004EB44035E
:103F40009900094B0B44996801209047DFE7064B25
:103F500093F854303BB115F4004F04D0024B9A6DE6
:103F6000D96D0120904738BDA80D002010B44FF046
:103F7000804CDCF8544024F4004444EAC334CCF8C8
:103F800054400F4C84F8543073B1DCF8543023F4AF
:103F90007F03C0B243EA0040CCF85400084B996557
:103FA000DA65002010BC70474FF08042536D23F457
:103FB0007F035365024B00229A65DA65F1E700BF83
:103FC000A80D002008B5FFF799FF08BD002807DB02
:103FD00000F01F02400901239340024A42F82030BA
:103FE000704700BF00E100E000280CDB00F01F027A
:103FF0004009012393402030034A42F82030BFF3A8
:104000004F8FBFF36F8F704700E100E0002808DB9F
:104010000901C9B200F1604000F5614080F8001369
:10402000704700F00F000901C9B2014B19547047E5
:1040300014ED00E0022813D84FF08042D36A143008
:104040004FF0010C0CFA00FC23EA0C0381400B43F7
:10405000D362536B23EA0C0319435163002070476A
:104060006FF00100704710B5032935D884694FEA15
:10407000C10C4FF01F0E0EFA0CFE24EA0E0402FAD9
:104080000CFC44EA0C048461C2684FEA810E4FF0D4
:104090000F0C0CFA0EFC22EA0C029DF80840012CD1
:1040A0002BD04FF00F0C0CFA0EFC42EA0C02C2604F
:1040B00010304FEA910E50F82E2001F00301C90094
:1040C0004FF01F0C0CFA01FC22EA0C028B40134348
:1040D00040F82E30002010BDC469A1F1040E4FEA53
:1040E000CE0E4FF01F0C0CFA0EFC24EA0C0C02FA58
:1040F0000EF24CEA0202C261C6E79DF80CC0D2E79C
:1041000000F5820000F590700002704708B5FFF7D7
:1041100091FF08BD08B5FFF7F3FF0146036843F0C0
:1041200080030360836823F4FE4343F400738360D9
:10413000036823F0300343F010030360036843F483
:10414000E0630360036A43F001030362064B4A6ABB
:1041500012F0040F04D1013BF9D16FF0030000E02D
:1041600000204B6A4B6208BDA086010010B50446D2
:10417000FFF7C6FF436A436213F0010000D001203D
:1041800013F0040F01D040F0020013F0080F01D02B
:1041900040F0040004F10802D34013F0010F01D0F5
:1041A00040F00800054B03EB04135B682BB120B112
:1041B000024A02EB04129168984710BD080E0020D5
:1041C00010B5002400E00134022C09DC054B03EBA0
:1041D0000413DB7B002BF6D0E0B2FFF7C7FFF2E75A
:1041E00010BD00BF080E0020022813D810B50446E9
:1041F0000121FFF78BFF034600B110BD20010749E5
:1042000001EB04120B5053609360D3602046FFF71C
:1042100081FFF2E76FF00100704700BF080E002039
:1042200002280FD810B50C46FFF76AFF2378012B40
:104230000BD0836823F4FE43E27843EA02238360D1
:10424000002010BD6FF0010070476FF00400F8E728
:10425000022839D838B505460C46FFF751FF03460A
:10426000A278012A33D0026822F030022178012995
:1042700013D9013909010A431A601A6822F4E0626D
:10428000E17842EA01221A601A6822F00702617896
:1042900029B1012904D00B2102E00021EBE7002124
:1042A0000A431A601A6822F04002617942EA8112D8
:1042B0001A601A6A42F002021A622278054B03EB76
:1042C00005131A73002038BD6FF0010070476FF0BE
:1042D0000400F8E7080E002002287ED82DE9F041FE
:1042E00004460D4690461F46022979D0012804D085
:1042F000022804D0E8B94A2602E04B2600E04C260A
:10430000022D19D9EB1EDBB2012B46D801233A4608
:1043100035493046FFF72AFE28B9344B03EB041326
:10432000C3F804809F60314B03EB04130122DA735E
:1043300022E06FF01006E3E76BB273B32B4B03EB95
:104340000413DB7BEBB9294B03EB0413C3F80480A4
:104350009F60002E08DB06F00F01730901228A40DE
:104360006033234941F8232006993046FFF74EFE7B
:104370003046FFF72BFE002024011C4B1D55BDE8E5
:10438000F08100231A4619463046FFF7EFFD174B20
:1043900003EB04130022DA73D5E700231A4619460B
:1043A0003046FFF7E3FD114B03EB04130022DA73F1
:1043B000964208DB06F00F01730901228A40603340
:1043C0000B4941F823203046FFF70EFE074B03EB65
:1043D0000413002098605860CEE76FF0010070472A
:1043E0006FF00400CBE700BFC1410000080E0020C1
:1043F00000E100E002282BD810B50446FFF780FE4C
:10440000034600224262426242622401124A125D65
:104410008AB9826A22F001028262826A22F0040270
:104420008262826A22F0080282621A6A42F0010203
:104430001A62002010BD826A42F001028262826A22
:1044400042F004028262826A42F008028262ECE771
:104450006FF00100704700BF080E0020022825D829
:1044600010B50446FFF74CFE036823F040030360D9
:10447000114B03EB04135B7B1BB9036A23F080032E
:10448000036224010C4B1B5D013BDBB2032B10D8F4
:10449000836A23F001038362836A23F00403836247
:1044A000836A23F008038362002003E06FF00100B9
:1044B0007047002010BD00BF080E002002281AD847
:1044C00038B50D461446072918D8FFF719FE23788A
:1044D0006BB12C300368C3F30B1363800368C3F321
:1044E0000443237103681B0E6371002038BD303014
:1044F00000EB8500EEE76FF0010070476FF0010000
:10450000F4E7000002281CD830B583B005460C46FD
:10451000D1B1FFF7F5FD2378022B08D06FF005002D
:1045200062780B4B03EB05135A7303B030BD63780D
:10453000A27801920093A37922796179FFF793FD24
:10454000EEE76FF0010070476FF00100EDE700BF8C
:10455000080E002008B50020FFF708FE08BD08B5CA
:104560000120FFF703FE08BD08B50220FFF7FEFD9E
:1045700008BD08B5014601231A460020FDF7F6FDE7
:1045800008BD08B50146002301221846FDF7EEFDDF
:1045900008BD08B5014601231A460020FDF748FE74
:1045A00008BD08B50146002301221846FDF740FE6C
:1045B00008BD08B50020FDF7C1FE08BD10B586B0E6
:1045C0000024049405944FF41643049303238DF8B8
:1045D000143004238DF815300D4B1B68ADF80C30EA
:1045E0001B0C8DF80E302046FDF7AAFC03A92046CF
:1045F000FDF7D2FC04A92046FDF7DAFC0F23009357
:104600002346044A01212046FDF726FD06B010BDD1
:10461000B46800001946000010B5044610F0020FFF
:1046200003D114F0010F03D110BD00F007F9F8E732
:1046300000F07CF8F8E7000008B5024800F0AAF89E
:1046400008BD00BF140000200FB410B582B004AB49
:1046500053F8042B0193074C8021204600F03AFDCB
:104660002146054800F002FC002002B0BDE81040E1
:1046700004B07047380E00207C68000070B50E460C
:104680001546002403E0305700F0AAF80134AC428C
:10469000F9DB284670BD10B50C46002000F004F987
:1046A000B0F1FF3FF9D02070012010BD012070470C
:1046B00001207047012070470020704701600023EF
:1046C0008371013A82808360C360704738B572B6E7
:1046D000134A938895681D40D26813409D4205D2C5
:1046E000C3F500732B449DB2002412E0ED1AADB265
:1046F000FAE70B4B1968DA68988802408A5C094827
:104700000270DA680132DA60074B1B685B69984710
:104710000134A542EDDC024B00229A7162B638BD2D
:10472000B80E0020F1100020E810002008B5164B4C
:104730009A68DB689A421CD0134A918893680B40B0
:10474000D2680A40934218D2C2F500721A4493B25A
:10475000FF2B15D80C4B1A68D8680140525C0B48E7
:104760000270DA680132DA60094B1B681B699847EE
:1047700008BD054B00229A71FAE79B1A9BB2E7E746
:10478000FFF7A4FFF4E700BFB80E0020F1100020EF
:10479000E810002008B50C4B1860036898471022F9
:1047A0000A490B48FFF78AFF4FF4007209490A488B
:1047B000FFF784FF094B186800230222194680681E
:1047C00000F066FB002008BDE8100020D810002093
:1047D000C80E0020D80E0020B80E0020380000209F
:1047E00038B5044672B6124B9B79A3B9104B01221F
:1047F0009A71C5B20F4805700F4B1B681B6998472B
:1048000090B10B4B19689A68988802408D549A6849
:1048100001329A6008E0064B19689A68988802404D
:104820008C549A6801329A6062B6204638BD00BF47
:10483000B80E0020F1100020E810002008B5164B3B
:104840001878082809D040B2FFF7CAFF134B1B683D
:104850006BB1114A1078984708BD40B2FFF7C0FF0E
:104860002020FFF7BDFF0820FFF7BAFFEEE70A4858
:1048700090F800C00A4B19689A68B3F804E002EA9D
:104880000E0201F802C09A6801329A60054B1B685B
:104890009B689847E0E700BFF0100020EC10002074
:1048A000C80E0020E810002008B5144B1860C8B9E5
:1048B000134B9B793BB9124B01229A71114B1B6828
:1048C0009B68114898470E4B9A68DB689A4211D052
:1048D0000B4B1968DA6898880240885CDA68013204
:1048E000DA6008BD074B1B689B68074898474FF084
:1048F000FF30F6E74FF0FF30F3E700BFEC10002089
:10490000C80E0020E8100020F0100020FEE7FEE7AF
:1049100008B500F02DF8124A0AE01068516850F806
:10492000230041F82300013391688B42F5D30C3208
:104930000C4B9A4201D20023F6E70B4A08E01168BB
:10494000002041F82300013351688B42F7D308322D
:10495000064B9A4201D20023F6E7FBF77BFD00BF2E
:10496000706900008869000088690000886900009B
:1049700072B60D4A0D4B9A600D4B4AF25A52C3F86B
:10498000F02000229A604FF080435722C3F8F020B5
:104990007522C3F8F020074B1522C3F8F02F5122DF
:1049A000C3F8F02F62B670470000000000ED00E091
:1049B0000002004000000141054B1B6803FB00F0B2
:1049C000002301E000BF01338342FBD3704700BFE7
:1049D0000400002053B94AB9002908BF00281CBFB1
:1049E0004FF0FF314FF0FF3000F06AB9ADF1080C25
:1049F0006DE904CE00F006F8DDF804E0DDE90223FD
:104A000004B070472DE9F047089D0E4604460F4656
:104A1000002B4AD194468C45B2FA82F260D942B159
:104A2000C2F12003974020FA03F30CFA02FC1F4363
:104A300094404FEA1C4E1FFA8CF6B7FBFEF1230C94
:104A40000EFB117743EA074301FB06F098420AD9AF
:104A50001CEB030301F1FF3780F01581984240F20F
:104A60001281023963441B1AA4B2B3FBFEF00EFBA1
:104A7000103344EA034400FB06F6A6420AD91CEBB5
:104A8000040400F1FF3380F00081A64240F2FD8073
:104A90006444023840EA0140A41B00211DB1D44007
:104AA0000023C5E90043BDE8F0878B4205D90DB16D
:104AB000C5E9000100210846F5E7B3FA83F10029B2
:104AC00046D1B34202D3824200F2F580841A66EBEB
:104AD000030201201746002DE5D0C5E90047E2E7B3
:104AE000002A40F09380A1EB0C034FEA1C471FFA09
:104AF0008CFE0121B3FBF7F607FB1630230C43EACB
:104B000000430EFB06F0984208D91CEB030306F1A4
:104B1000FF3802D2984200F2D08046461B1AA4B257
:104B2000B3FBF7F007FB103344EA03440EFB00FE2F
:104B3000A64508D91CEB040400F1FF3302D2A645B8
:104B400000F2B6801846A4EB0E0440EA0640A5E742
:104B5000C1F120078B4022FA07FC4CEA030C06FA4D
:104B600001FE20FA07F426FA07F344EA0E0400FADD
:104B700001F84FEA1C404FEA1449B3FBF0FE1FFA5C
:104B80008CF600FB1E3349EA03430EFB06F99945F8
:104B900002FA01F20BD91CEB03030EF1FF3A80F08D
:104BA0008580994540F28280AEF1020E6344A3EB0A
:104BB0000909A4B2B9FBF0F300FB139944EA0944D4
:104BC00003FB06F6A64208D91CEB040403F1FF30F0
:104BD00068D2A64266D9023B644443EA0E40A41B55
:104BE000A0FB02E6B4427346B14652D34FD05DB14A
:104BF000B8EB030264EB090404FA07F722FA01F3A5
:104C00001F43CC40C5E9007400214CE7C2F12001EC
:104C100020FA01F30CFA02FC26FA01F19640334324
:104C20004FEA1C471FFA8CFEB1FBF7F007FB10168A
:104C3000190C41EA064100FB0EF68E4204FA02F41A
:104C400008D91CEB010100F1FF382DD28E422BD97F
:104C500002386144891B9BB2B1FBF7F607FB1611C2
:104C600043EA014306FB0EF1994208D91CEB03030A
:104C700006F1FF3814D2994212D9023E63445B1AFE
:104C800046EA004136E73946EDE6184602E7F045C8
:104C9000ADD2BEEB020366EB0C060138B146A6E7C7
:104CA0004646ECE7034698E74046D3E7D6467EE71C
:104CB0006444023847E708460DE7023E63442DE7A7
:104CC000704700BF08B5064B044613B10021AFF38F
:104CD0000080044B1B6803B19847204601F032FA6C
:104CE000000000002C120020002310B50446C0E98B
:104CF0000033C0E90433836081814366C2818361EC
:104D0000194608225C3000F0F3F90D4B63620D4B3D
:104D1000A3620D4BE3620D4B23630D4B24629C4257
:104D200006D003F16802944202D0D0339C4205D1F0
:104D300004F15800BDE8104000F04CBA10BD00BFAF
:104D4000F94F00001B500000535000007750000046
:104D5000F4100020024A0349034800F069B800BF7C
:104D60002C000020255D00003C00002041680C4B19
:104D7000994210B5044601D000F0D4FFA168094B58
:104D8000994202D0204600F0CDFFE168064B9942DF
:104D900004D02046BDE8104000F0C4BF10BD00BFE5
:104DA000F41000205C110020C411002010B50B4B42
:104DB0000B4C0C4A1A60204600220421FFF794FF96
:104DC00004F1680001220921FFF78EFF04F1D000F1
:104DD0000222BDE810401221FFF786BF2C120020EE
:104DE000F4100020554D0000014800F0F4B900BF58
:104DF00035120020014800F0EFB900BF3512002045
:104E000010B50446FFF7F0FF236A1BB1BDE8104060
:104E1000FFF7F0BF044B2362044B1B68002BF5D156
:104E2000FFF7C4FFF2E700BF6D4D00002C12002019
:104E30002DE9F8430746884614460026D4E9019533
:104E4000B9F1010905D52468002CF7D13046BDE839
:104E5000F883AB89012B07D9B5F90E30013303D0A4
:104E600029463846C04706436835E9E70FB407B519
:104E7000064904AB086853F8042B8168019300F0DD
:104E80002DFC03B05DF804EB04B07047380000203F
:104E90002DE9F7431D46574B1F6804460E469046C2
:104EA00027B13B6A13B93846FFF7AAFFB8F1020FE2
:104EB00006D0B8F1010F00F29A80002DC0F2978061
:104EC000636ED90705D4A3899A0502D4A06D00F0BA
:104ED00082F92146384600F025FF616B41B104F1AB
:104EE0004403994202D0384600F078F90023636306
:104EF0000023A3616360A3891B0603D5216938469B
:104F000000F06CF9A38923F44A6323F00303B8F19A
:104F1000020FA38161D001AB6A462146384600F0FA
:104F200029FFA3891843A0812DBB009D284600F0CE
:104F30009FF90646002852D1DDF80090A94540D1DE
:104F40004FF0FF35B4F90C3043F00202A281002289
:104F5000A26004F147022260226101226261626E56
:104F6000D60704D4980502D4A06D00F035F9284680
:104F700003B0BDE8F083002ED8D03B6A13B93846A1
:104F8000FFF73EFFB8F1010F08BFA389266004BFF9
:104F900043F00103A381B4F90C3013F00802C4E913
:104FA00004651ED0D90741BF00226D42A260A561F1
:104FB00058BFA560626ED20701D49B0513D50025AA
:104FC000D5E7484600F054F906460028B8D0A38932
:104FD00043F08003A3814D46CFE70025B2E7A94601
:104FE000F5E7A260E6E7A06D00F0F6F8E7E74FF01E
:104FF000FF35BCE73800002010B50C46B1F90E10A3
:1050000000F0A0F80028ABBF636DA3891B1823F440
:105010008053ACBF6365A38110BD2DE9F0411F46ED
:105020008B89DB0505460C46164605D5B1F90E10F1
:105030000223002200F074F8A389B4F90E1023F4BF
:105040008053A38132463B462846BDE8F04100F03C
:105050008BB810B50C46B1F90E1000F061F8431C86
:10506000A38915BF606523F4805343F48053A38163
:1050700018BFA38110BDB1F90E1000F041B830B5D2
:105080001446002C9BB005461A4605DA8B230360B4
:105090004FF0FF301BB030BD4FF40273ADF80C3051
:1050A00014BF04F1FF332346029305934FF6FF73B9
:1050B00000910491ADF80E3069461E9B00F0EAF9AC
:1050C000431CBCBF8B232B60002CE3D0009B002231
:1050D0001A70DFE707B5009313460A4601460348F6
:1050E0000068FFF7CCFF03B05DF804FB3800002038
:1050F00002440346934200D1704703F8011BF9E7CD
:1051000038B5064D0023044608462B60FFF7CEFA5B
:10511000431C02D12B6803B1236038BD301200203C
:1051200038B5074D04460846114600222A601A4643
:10513000FFF7C2FA431C02D12B6803B1236038BDCC
:105140003012002038B5074D0446084611460022AB
:105150002A601A46FFF79FFA431C02D12B6803B15D
:10516000236038BD3012002038B5074D044608468C
:10517000114600222A601A46FFF780FA431C02D12A
:105180002B6803B1236038BD3012002070B50D4D7F
:105190000D4C641BA4100026A64209D10B4D0C4CEB
:1051A00000F0D2FF641BA4100026A64205D170BDFA
:1051B00055F8043B98470136EEE755F8043B98470D
:1051C0000136F2E7880000208800002088000020D7
:1051D0008C000020704770477047000038B50546C6
:1051E000002941D051F8043C0C1F002BB8BFE41833
:1051F00000F0E8F81D4A136833B96360146028466C
:10520000BDE8384000F0E4B8A34208D9206821186E
:105210008B4201BF19685B6809182160EDE71A46E7
:105220005B680BB1A342FAD911685018A0420BD1A8
:1052300020680144501883421160E0D118685B680F
:10524000536008441060DAE702D90C232B60D6E7DC
:10525000206821188B4204BF19685B68636004BF33
:10526000091821605460CAE738BD00BF3C12002015
:10527000024B0146186800F025B800BF3800002036
:1052800070B50F4E0C463168054611B900F0A4FE0A
:1052900030602146284600F09FFE431C03D14FF0AA
:1052A000FF34204670BDC41C24F00304A042F8D093
:1052B000211A284600F090FE0130F2D1EFE700BF3E
:1052C000381200202DE9F843CD1C25F003050835E0
:1052D0000C2D38BF0C25002D064601DBA94204D950
:1052E0000C2333600020BDE8F883DFF8D48000F0A1
:1052F00069F8D8F800301C4644BB29463046FFF711
:10530000BFFF431C044658D1D8F800402746002F61
:1053100043D1002C4BD023683946304604EB0309B7
:1053200000F05AFE814542D121686D1A2946304667
:10533000FFF7A6FF01303AD023682B442360D8F84A
:1053400000305A6862BBC8F800700FE02268521B38
:1053500020D40B2A17D96119A342256018BF5960C0
:10536000636808BFC8F8001062514B60304600F017
:105370002FF804F10B00231D20F00700C21A1CBFF8
:105380001B1AA350AFE76268A3420CBFC8F8002005
:105390005A60EBE723466468AEE73C467F68B6E7B1
:1053A0001A465B68A342FBD100235360DEE70C235F
:1053B0003360304600F00CF894E70560D6E700BF94
:1053C0003C1200200148FFF706BF00BF3412002046
:1053D0000148FFF701BF00BF341200202DE9F0475C
:1053E0008E681F46BE420B6882460C4690462DD8FA
:1053F000B1F90C2012F4906F26D06569096905EBAC
:105400004505A3EB010905EBD5757B1C4B446D10DD
:105410009D4238BF1D46530527D52946FFF752FF49
:10542000064660B321694A4600F03AFEA38923F498
:10543000906343F08003A381266165614E44A5EB30
:1054400009052660A5603E46BE4200D93E4620685A
:105450003246414600F084FDA3689B1BA36023688D
:10546000334423600020BDE8F0872A4600F026FE82
:1054700006460028E0D121695046FFF7AFFE0C2315
:10548000CAF80030A38943F04003A3814FF0FF30F6
:10549000E9E700002DE9F04F98468B891B069DB087
:1054A00007460D46144610D50B6973B94021FFF726
:1054B00009FF2860286130B90C233B604FF0FF30B2
:1054C0001DB0BDE8F08F40236B61002309932023BA
:1054D0008DF82930CDF80C803023DFF89C818DF8D1
:1054E0002A304FF0010923469A4613F8012B0AB1DE
:1054F000252AF9D1BAEB040B0BD05B46224629468C
:105500003846FFF76BFF013000F0A780099A5A4434
:1055100009929AF80030002B00F09F8000234FF092
:10552000FF32CDE905230AF1010A049307938DF8B0
:1055300053301A935446052214F8011B4E4800F0CC
:105540005FFD049AD8B9D00644BF20238DF85330AC
:10555000110744BF2B238DF853309AF800302A2BC3
:1055600015D0079A544600204FF00A0C214611F836
:10557000013B303B092B4BD9B0B1079214E0A0EBB3
:10558000080309FA03F313430493A246D2E7039BEB
:10559000191D1B680391002BBBBF5B4242F0020246
:1055A00007930793B8BF049223782E2B0AD1637810
:1055B0002A2B32D1039B1A1D1B68039243EAE37323
:1055C00002340593DFF8B4A021780322504600F09E
:1055D00017FD38B1049BA0EB0A0040228240134320
:1055E0000134049314F8011B25488DF82810062275
:1055F00000F006FD002836D0224B1BBB039B07336F
:1056000023F0070308330393099B334409936AE7A4
:105610000CFB02320C460120A8E70023013405935D
:1056200019464FF00A0C204610F8012B303A092A8F
:1056300003D9002BC6D00591C4E70CFB0121044619
:105640000123F0E703AB00932A460F4B04A9384629
:10565000AFF30080421C0646D6D1AB895B063FF50E
:105660002DAF09982CE703AB00932A46064B04A9FB
:10567000384600F0B9F9EDE7B7680000BD680000F2
:10568000C168000000000000DD5300009368013B8A
:10569000002B10B4936007DA9469A34201DB0A2956
:1056A00002D110BC00F0C8BB1368581C1060197000
:1056B000084610BC7047F8B506460F461446D51884
:1056C000AC4201D1002007E014F8011B3A463046F5
:1056D000FFF7DCFF431CF3D1F8BD00002DE9F04FCC
:1056E0000D469DB014469846064618B1036A0BB99C
:1056F000FFF786FB6B6ED90705D4AB899A0502D4F8
:10570000A86DFFF768FDAB891B0701D52B699BB915
:105710002946304600F0CEFB70B16B6EDC0704D535
:105720004FF0FF301DB0BDE8F08FAB899805F7D47E
:10573000A86DFFF751FDF3E70023099320238DF8AF
:105740002930CDF80C803023DFF8AC818DF82A3079
:105750004FF0010923469A4613F8012B0AB1252A76
:10576000F9D1BAEB040B0BD05B46224629463046F2
:10577000FFF7A1FF013000F0A780099A5A4409926F
:105780009AF80030002B00F09F8000234FF0FF328A
:10579000CDE905230AF1010A049307938DF85330EC
:1057A0001A935446052214F8011B534800F028FCB4
:1057B000049AD8B9D10644BF20238DF8533013077B
:1057C00044BF2B238DF853309AF800302A2B15D084
:1057D000079A544600204FF00A0C214611F8013B6D
:1057E000303B092B4BD9B0B1079214E0A0EB080372
:1057F00009FA03F313430493A246D2E7039B191D4E
:105800001B680391002BBBBF5B4242F0020207936F
:105810000793B8BF049223782E2B0AD163782A2BE2
:1058200032D1039B1A1D1B68039243EAE3730234CF
:105830000593DFF8C8A021780322504600F0E0FB72
:1058400038B1049BA0EB0A0040228240134301348C
:10585000049314F8011B2A488DF82810062200F042
:10586000CFFB00283FD0274B1BBB039B073323F004
:10587000070308330393099B3B4409936AE70CFB36
:1058800002320C460120A8E7002301340593194693
:105890004FF00A0C204610F8012B303A092A03D9A0
:1058A000002BC6D00591C4E70CFB0121044601235F
:1058B000F0E703AB00932A46134B04A93046AFF33D
:1058C00000800746781CD6D16B6ED90705D4AB890A
:1058D0009A0502D4A86DFFF77FFCAB895B063FF504
:1058E0001FAF09981EE703AB00932A46064B04A995
:1058F000304600F079F8E4E7B7680000BD680000C2
:10590000C168000000000000B75600002DE9F04714
:10591000164698468A680B69DDF820909342B8BF16
:105920001346336091F8432007460C460AB1013311
:1059300033602368990642BF3368023333602568B9
:1059400015F0060506D104F1190AE36832689B1ABE
:10595000AB4226DC94F843302268003B18BF012399
:1059600092062BD404F1430241463846C847013021
:105970001ED02368226903F00603042B02BFE568EA
:105980003368ED1AA3680CBF25EAE575002593423C
:10599000C4BF9B1AED1800261A34B5421AD1002054
:1059A00008E00123524641463846C847013003D13A
:1059B0004FF0FF30BDE8F0870135C6E7E1185A1C0B
:1059C000302081F84300224494F8451082F84310B7
:1059D0000233C7E70123224641463846C847013013
:1059E000E6D00136D9E700002DE9FF470F7E0C9E77
:1059F000782F914680460C469A4601F1430207D81B
:105A0000622F0AD8002F00F0D180582F00F0B88004
:105A100004F1420684F842703AE0A7F16303152BC3
:105A2000F6D801A151F823F0815A0000955A0000E0
:105A3000115A0000115A0000115A0000115A0000BA
:105A4000955A0000115A0000115A0000115A000026
:105A5000115A0000935B0000BF5A00004D5B00002C
:105A6000115A0000115A0000B55B0000115A0000E5
:105A7000BF5A0000115A0000115A0000555B000087
:105A800033681A1D1B68326004F1420684F8423004
:105A900001239CE033682068191D3160060601D59A
:105AA0001D6803E04506FBD5B3F90050002D03DA6D
:105AB0002D236D4284F8433058480A2311E02168B1
:105AC0003368080653F8045B02D4490648BFADB2F8
:105AD0006F2F5248336014BF0A230823002184F833
